2022-01-09 10:59:51,299 : (Admin) R << 8=FIX.4.3|9=73|35=A|34=1|49=CLIENT|52=20220109-16:59:51.000|56=SERVER|98=0|108=30|141=Y|10=189|
2022-01-09 10:59:51,299 : (Admin) S >> 8=FIX.4.3|9=73|35=A|34=1|49=SERVER|52=20220109-16:59:51.000|56=CLIENT|98=0|108=30|141=Y|10=189|
2022-01-09 10:59:52,403 : (App) R << 8=FIX.4.3|9=151|35=D|34=2|49=CLIENT|52=20220109-16:59:52.000|56=SERVER|11=00001|21=3|38=10000|40=2|44=100|54=1|55=MSFT|58=NewOrderSingle|59=0|60=20220109-16:59:52.403|10=082|
2022-01-09 10:59:52,404 : (App) S >> 8=FIX.4.3|9=152|35=8|34=2|49=SERVER|52=20220109-16:59:52.000|56=CLIENT|6=100|11=00001|14=10000|17=00001|31=100|32=10000|37=00001|38=10000|39=2|54=1|55=MSFT|150=2|151=0|10=250|
2022-01-09 11:00:22,424 : (Admin) R << 8=FIX.4.3|9=55|35=0|34=3|49=CLIENT|52=20220109-17:00:22.000|56=SERVER|10=089|
2022-01-09 11:00:22,424 : (Admin) S >> 8=FIX.4.3|9=55|35=0|34=3|49=SERVER|52=20220109-17:00:22.000|56=CLIENT|10=089|
2022-01-09 11:00:52,383 : (Admin) S >> 8=FIX.4.3|9=55|35=0|34=4|49=SERVER|52=20220109-17:00:52.000|56=CLIENT|10=093|
2022-01-09 11:00:52,384 : (Admin) R << 8=FIX.4.3|9=55|35=0|34=4|49=CLIENT|52=20220109-17:00:52.000|56=SERVER|10=093|
2022-01-09 11:01:17,581 : (Admin) R << 8=FIX.4.3|9=73|35=A|34=1|49=CLIENT|52=20220109-17:01:17.000|56=SERVER|98=0|108=30|141=Y|10=179|
2022-01-09 11:01:17,581 : (Admin) S >> 8=FIX.4.3|9=73|35=A|34=1|49=SERVER|52=20220109-17:01:17.000|56=CLIENT|98=0|108=30|141=Y|10=179|
2022-01-09 11:01:18,510 : (App) R << 8=FIX.4.3|9=151|35=D|34=2|49=CLIENT|52=20220109-17:01:18.000|56=SERVER|11=00001|21=3|38=10000|40=2|44=100|54=1|55=MSFT|58=NewOrderSingle|59=0|60=20220109-17:01:18.510|10=061|
2022-01-09 11:01:18,510 : (App) S >> 8=FIX.4.3|9=152|35=8|34=2|49=SERVER|52=20220109-17:01:18.000|56=CLIENT|6=100|11=00001|14=10000|17=00002|31=100|32=10000|37=00002|38=10000|39=2|54=1|55=MSFT|150=2|151=0|10=242|
2022-01-09 12:13:42,984 : (Admin) R << 8=FIX.4.3|9=73|35=A|34=1|49=CLIENT|52=20220109-18:13:42.000|56=SERVER|98=0|108=30|141=Y|10=181|
2022-01-09 12:13:42,984 : (Admin) S >> 8=FIX.4.3|9=73|35=A|34=1|49=SERVER|52=20220109-18:13:42.000|56=CLIENT|98=0|108=30|141=Y|10=181|
2022-01-09 12:13:44,354 : (App) R << 8=FIX.4.3|9=151|35=D|34=2|49=CLIENT|52=20220109-18:13:44.000|56=SERVER|11=00001|21=3|38=10000|40=2|44=100|54=1|55=MSFT|58=NewOrderSingle|59=0|60=20220109-18:13:44.353|10=072|
2022-01-09 12:13:44,354 : (App) S >> 8=FIX.4.3|9=152|35=8|34=2|49=SERVER|52=20220109-18:13:44.000|56=CLIENT|6=100|11=00001|14=10000|17=00003|31=100|32=10000|37=00003|38=10000|39=2|54=1|55=MSFT|150=2|151=0|10=247|
2022-01-09 12:13:46,959 : (App) R << 8=FIX.4.3|9=151|35=D|34=3|49=CLIENT|52=20220109-18:13:46.000|56=SERVER|11=00002|21=3|38=10000|40=2|44=100|54=2|55=MSFT|58=NewOrderSingle|59=0|60=20220109-18:13:46.957|10=089|
2022-01-09 12:13:46,959 : (App) S >> 8=FIX.4.3|9=152|35=8|34=3|49=SERVER|52=20220109-18:13:46.000|56=CLIENT|6=100|11=00002|14=10000|17=00004|31=100|32=10000|37=00004|38=10000|39=2|54=2|55=MSFT|150=2|151=0|10=254|
2022-01-09 12:14:16,053 : (Admin) S >> 8=FIX.4.3|9=55|35=0|34=4|49=SERVER|52=20220109-18:14:16.000|56=CLIENT|10=099|
2022-01-09 12:14:16,054 : (Admin) R << 8=FIX.4.3|9=55|35=0|34=4|49=CLIENT|52=20220109-18:14:16.000|56=SERVER|10=099|
2022-01-09 12:14:46,091 : (Admin) S >> 8=FIX.4.3|9=55|35=0|34=5|49=SERVER|52=20220109-18:14:46.000|56=CLIENT|10=103|
2022-01-09 12:14:46,092 : (Admin) R << 8=FIX.4.3|9=55|35=0|34=5|49=CLIENT|52=20220109-18:14:46.000|56=SERVER|10=103|
2022-01-09 12:15:16,076 : (Admin) S >> 8=FIX.4.3|9=55|35=0|34=6|49=SERVER|52=20220109-18:15:16.000|56=CLIENT|10=102|
2022-01-09 12:15:16,077 : (Admin) R << 8=FIX.4.3|9=55|35=0|34=6|49=CLIENT|52=20220109-18:15:16.000|56=SERVER|10=102|
2022-01-09 12:15:37,690 : (Admin) R << 8=FIX.4.3|9=73|35=A|34=1|49=CLIENT|52=20220109-18:15:37.000|56=SERVER|98=0|108=30|141=Y|10=187|
2022-01-09 12:15:37,690 : (Admin) S >> 8=FIX.4.3|9=73|35=A|34=1|49=SERVER|52=20220109-18:15:37.000|56=CLIENT|98=0|108=30|141=Y|10=187|
2022-01-09 12:15:38,590 : (App) R << 8=FIX.4.3|9=151|35=D|34=2|49=CLIENT|52=20220109-18:15:38.000|56=SERVER|11=00001|21=3|38=10000|40=2|44=100|54=1|55=MSFT|58=NewOrderSingle|59=0|60=20220109-18:15:38.589|10=093|
2022-01-09 12:15:38,590 : (App) S >> 8=FIX.4.3|9=152|35=8|34=2|49=SERVER|52=20220109-18:15:38.000|56=CLIENT|6=100|11=00001|14=10000|17=00005|31=100|32=10000|37=00005|38=10000|39=2|54=1|55=MSFT|150=2|151=0|10=000|
2022-01-09 12:16:08,011 : (Admin) S >> 8=FIX.4.3|9=55|35=0|34=3|49=SERVER|52=20220109-18:16:08.000|56=CLIENT|10=101|
2022-01-09 12:16:08,012 : (Admin) R << 8=FIX.4.3|9=55|35=0|34=3|49=CLIENT|52=20220109-18:16:08.000|56=SERVER|10=101|
2022-01-09 12:16:38,060 : (Admin) S >> 8=FIX.4.3|9=55|35=0|34=4|49=SERVER|52=20220109-18:16:38.000|56=CLIENT|10=105|
2022-01-09 12:16:38,061 : (Admin) R << 8=FIX.4.3|9=55|35=0|34=4|49=CLIENT|52=20220109-18:16:38.000|56=SERVER|10=105|
2022-01-09 12:17:08,007 : (Admin) S >> 8=FIX.4.3|9=55|35=0|34=5|49=SERVER|52=20220109-18:17:08.000|56=CLIENT|10=104|
2022-01-09 12:17:08,007 : (Admin) R << 8=FIX.4.3|9=55|35=0|34=5|49=CLIENT|52=20220109-18:17:08.000|56=SERVER|10=104|
2022-01-09 12:17:15,612 : (Admin) R << 8=FIX.4.3|9=73|35=A|34=1|49=CLIENT|52=20220109-18:17:15.000|56=SERVER|98=0|108=30|141=Y|10=185|
2022-01-09 12:17:15,612 : (Admin) S >> 8=FIX.4.3|9=73|35=A|34=1|49=SERVER|52=20220109-18:17:15.000|56=CLIENT|98=0|108=30|141=Y|10=185|
2022-01-09 12:17:16,458 : (App) R << 8=FIX.4.3|9=151|35=D|34=2|49=CLIENT|52=20220109-18:17:16.000|56=SERVER|11=00001|21=3|38=10000|40=2|44=100|54=1|55=MSFT|58=NewOrderSingle|59=0|60=20220109-18:17:16.457|10=083|
2022-01-09 12:17:16,458 : (App) S >> 8=FIX.4.3|9=152|35=8|34=2|49=SERVER|52=20220109-18:17:16.000|56=CLIENT|6=100|11=00001|14=10000|17=00006|31=100|32=10000|37=00006|38=10000|39=2|54=1|55=MSFT|150=2|151=0|10=000|
2022-01-09 12:17:44,177 : (Admin) R << 8=FIX.4.3|9=73|35=A|34=1|49=CLIENT|52=20220109-18:17:44.000|56=SERVER|98=0|108=30|141=Y|10=187|
2022-01-09 12:17:44,177 : (Admin) S >> 8=FIX.4.3|9=73|35=A|34=1|49=SERVER|52=20220109-18:17:44.000|56=CLIENT|98=0|108=30|141=Y|10=187|
2022-01-09 12:17:45,018 : (App) R << 8=FIX.4.3|9=151|35=D|34=2|49=CLIENT|52=20220109-18:17:45.000|56=SERVER|11=00001|21=3|38=10000|40=2|44=100|54=1|55=MSFT|58=NewOrderSingle|59=0|60=20220109-18:17:45.018|10=080|
2022-01-09 12:17:45,019 : (App) S >> 8=FIX.4.3|9=152|35=8|34=2|49=SERVER|52=20220109-18:17:45.000|56=CLIENT|6=100|11=00001|14=10000|17=00007|31=100|32=10000|37=00007|38=10000|39=2|54=1|55=MSFT|150=2|151=0|10=004|
2022-01-09 12:17:49,660 : (Admin) R << 8=FIX.4.3|9=73|35=A|34=1|49=CLIENT|52=20220109-18:17:49.000|56=SERVER|98=0|108=30|141=Y|10=192|
2022-01-09 12:17:49,660 : (Admin) S >> 8=FIX.4.3|9=73|35=A|34=1|49=SERVER|52=20220109-18:17:49.000|56=CLIENT|98=0|108=30|141=Y|10=192|
2022-01-09 12:17:50,933 : (App) R << 8=FIX.4.3|9=151|35=D|34=2|49=CLIENT|52=20220109-18:17:50.000|56=SERVER|11=00001|21=3|38=10000|40=2|44=100|54=2|55=MSFT|58=NewOrderSingle|59=0|60=20220109-18:17:50.932|10=078|
2022-01-09 12:17:50,933 : (App) S >> 8=FIX.4.3|9=152|35=8|34=2|49=SERVER|52=20220109-18:17:50.000|56=CLIENT|6=100|11=00001|14=10000|17=00008|31=100|32=10000|37=00008|38=10000|39=2|54=2|55=MSFT|150=2|151=0|10=003|
2022-01-09 12:18:20,026 : (Admin) S >> 8=FIX.4.3|9=55|35=0|34=3|49=SERVER|52=20220109-18:18:20.000|56=CLIENT|10=097|
2022-01-09 12:18:20,028 : (Admin) R << 8=FIX.4.3|9=55|35=0|34=3|49=CLIENT|52=20220109-18:18:20.000|56=SERVER|10=097|
2022-01-09 12:18:50,011 : (Admin) S >> 8=FIX.4.3|9=55|35=0|34=4|49=SERVER|52=20220109-18:18:50.000|56=CLIENT|10=101|
2022-01-09 12:18:50,011 : (Admin) R << 8=FIX.4.3|9=55|35=0|34=4|49=CLIENT|52=20220109-18:18:50.000|56=SERVER|10=101|
2022-01-09 12:19:20,876 : (Admin) R << 8=FIX.4.3|9=55|35=0|34=5|49=CLIENT|52=20220109-18:19:20.000|56=SERVER|10=100|
2022-01-09 12:19:20,876 : (Admin) S >> 8=FIX.4.3|9=55|35=0|34=5|49=SERVER|52=20220109-18:19:20.000|56=CLIENT|10=100|
2022-01-09 12:19:25,151 : (Admin) R << 8=FIX.4.3|9=73|35=A|34=1|49=CLIENT|52=20220109-18:19:25.000|56=SERVER|98=0|108=30|141=Y|10=188|
2022-01-09 12:19:25,151 : (Admin) S >> 8=FIX.4.3|9=73|35=A|34=1|49=SERVER|52=20220109-18:19:25.000|56=CLIENT|98=0|108=30|141=Y|10=188|
2022-01-09 12:19:26,167 : (App) R << 8=FIX.4.3|9=151|35=D|34=2|49=CLIENT|52=20220109-18:19:26.000|56=SERVER|11=00001|21=3|38=10000|40=2|44=100|54=1|55=MSFT|58=NewOrderSingle|59=0|60=20220109-18:19:26.166|10=086|
2022-01-09 12:19:26,167 : (App) S >> 8=FIX.4.3|9=152|35=8|34=2|49=SERVER|52=20220109-18:19:26.000|56=CLIENT|6=100|11=00001|14=10000|17=00009|31=100|32=10000|37=00009|38=10000|39=2|54=1|55=MSFT|150=2|151=0|10=009|
2022-01-09 12:19:34,611 : (App) R << 8=FIX.4.3|9=151|35=D|34=3|49=CLIENT|52=20220109-18:19:34.000|56=SERVER|11=00002|21=3|38=10000|40=2|44=100|54=2|55=MSFT|58=NewOrderSingle|59=0|60=20220109-18:19:34.610|10=081|
2022-01-09 12:19:34,612 : (App) S >> 8=FIX.4.3|9=152|35=8|34=3|49=SERVER|52=20220109-18:19:34.000|56=CLIENT|6=100|11=00002|14=10000|17=00010|31=100|32=10000|37=00010|38=10000|39=2|54=2|55=MSFT|150=2|151=0|10=251|
2022-01-09 12:20:17,295 : (Admin) R << 8=FIX.4.3|9=73|35=A|34=1|49=CLIENT|52=20220109-18:20:17.000|56=SERVER|98=0|108=30|141=Y|10=181|
2022-01-09 12:20:17,295 : (Admin) S >> 8=FIX.4.3|9=73|35=A|34=1|49=SERVER|52=20220109-18:20:17.000|56=CLIENT|98=0|108=30|141=Y|10=181|
2022-01-09 12:20:47,318 : (Admin) R << 8=FIX.4.3|9=55|35=0|34=2|49=CLIENT|52=20220109-18:20:47.000|56=SERVER|10=098|
2022-01-09 12:20:47,318 : (Admin) S >> 8=FIX.4.3|9=55|35=0|34=2|49=SERVER|52=20220109-18:20:47.000|56=CLIENT|10=098|
2022-01-09 12:21:17,206 : (Admin) R << 8=FIX.4.3|9=55|35=0|34=3|49=CLIENT|52=20220109-18:21:17.000|56=SERVER|10=097|
2022-01-09 12:21:17,206 : (Admin) S >> 8=FIX.4.3|9=55|35=0|34=3|49=SERVER|52=20220109-18:21:17.000|56=CLIENT|10=097|
2022-01-09 12:21:47,379 : (Admin) S >> 8=FIX.4.3|9=55|35=0|34=4|49=SERVER|52=20220109-18:21:47.000|56=CLIENT|10=101|
2022-01-09 12:21:47,381 : (Admin) R << 8=FIX.4.3|9=55|35=0|34=4|49=CLIENT|52=20220109-18:21:47.000|56=SERVER|10=101|
2022-01-09 12:22:17,094 : (Admin) R << 8=FIX.4.3|9=55|35=0|34=5|49=CLIENT|52=20220109-18:22:17.000|56=SERVER|10=100|
2022-01-09 12:22:17,095 : (Admin) S >> 8=FIX.4.3|9=55|35=0|34=5|49=SERVER|52=20220109-18:22:17.000|56=CLIENT|10=100|
2022-01-09 12:22:47,597 : (Admin) R << 8=FIX.4.3|9=55|35=0|34=6|49=CLIENT|52=20220109-18:22:47.000|56=SERVER|10=104|
2022-01-09 12:22:47,598 : (Admin) S >> 8=FIX.4.3|9=55|35=0|34=6|49=SERVER|52=20220109-18:22:47.000|56=CLIENT|10=104|
2022-01-09 12:23:17,260 : (Admin) S >> 8=FIX.4.3|9=55|35=0|34=7|49=SERVER|52=20220109-18:23:17.000|56=CLIENT|10=103|
2022-01-09 12:23:17,261 : (Admin) R << 8=FIX.4.3|9=55|35=0|34=7|49=CLIENT|52=20220109-18:23:17.000|56=SERVER|10=103|
2022-01-09 12:23:47,465 : (Admin) R << 8=FIX.4.3|9=55|35=0|34=8|49=CLIENT|52=20220109-18:23:47.000|56=SERVER|10=107|
2022-01-09 12:23:47,466 : (Admin) S >> 8=FIX.4.3|9=55|35=0|34=8|49=SERVER|52=20220109-18:23:47.000|56=CLIENT|10=107|
2022-01-09 12:24:17,554 : (Admin) R << 8=FIX.4.3|9=55|35=0|34=9|49=CLIENT|52=20220109-18:24:17.000|56=SERVER|10=106|
2022-01-09 12:24:17,554 : (Admin) S >> 8=FIX.4.3|9=55|35=0|34=9|49=SERVER|52=20220109-18:24:17.000|56=CLIENT|10=106|
2022-01-09 12:24:47,545 : (Admin) R << 8=FIX.4.3|9=56|35=0|34=10|49=CLIENT|52=20220109-18:24:47.000|56=SERVER|10=150|
2022-01-09 12:24:47,545 : (Admin) S >> 8=FIX.4.3|9=56|35=0|34=10|49=SERVER|52=20220109-18:24:47.000|56=CLIENT|10=150|
2022-01-09 12:25:17,378 : (Admin) R << 8=FIX.4.3|9=56|35=0|34=11|49=CLIENT|52=20220109-18:25:17.000|56=SERVER|10=149|
2022-01-09 12:25:17,378 : (Admin) S >> 8=FIX.4.3|9=56|35=0|34=11|49=SERVER|52=20220109-18:25:17.000|56=CLIENT|10=149|
2022-01-09 12:25:47,034 : (Admin) R << 8=FIX.4.3|9=56|35=0|34=12|49=CLIENT|52=20220109-18:25:47.000|56=SERVER|10=153|
2022-01-09 12:25:47,034 : (Admin) S >> 8=FIX.4.3|9=56|35=0|34=12|49=SERVER|52=20220109-18:25:47.000|56=CLIENT|10=153|
2022-01-09 12:26:17,498 : (Admin) R << 8=FIX.4.3|9=56|35=0|34=13|49=CLIENT|52=20220109-18:26:17.000|56=SERVER|10=152|
2022-01-09 12:26:17,498 : (Admin) S >> 8=FIX.4.3|9=56|35=0|34=13|49=SERVER|52=20220109-18:26:17.000|56=CLIENT|10=152|
2022-01-09 12:26:47,849 : (Admin) R << 8=FIX.4.3|9=56|35=0|34=14|49=CLIENT|52=20220109-18:26:47.000|56=SERVER|10=156|
2022-01-09 12:26:47,849 : (Admin) S >> 8=FIX.4.3|9=56|35=0|34=14|49=SERVER|52=20220109-18:26:47.000|56=CLIENT|10=156|
2022-01-09 12:27:17,159 : (Admin) R << 8=FIX.4.3|9=56|35=0|34=15|49=CLIENT|52=20220109-18:27:17.000|56=SERVER|10=155|
2022-01-09 12:27:17,159 : (Admin) S >> 8=FIX.4.3|9=56|35=0|34=15|49=SERVER|52=20220109-18:27:17.000|56=CLIENT|10=155|
2022-01-09 12:27:47,235 : (Admin) S >> 8=FIX.4.3|9=56|35=0|34=16|49=SERVER|52=20220109-18:27:47.000|56=CLIENT|10=159|
2022-01-09 12:27:47,237 : (Admin) R << 8=FIX.4.3|9=56|35=0|34=16|49=CLIENT|52=20220109-18:27:47.000|56=SERVER|10=159|
2022-01-09 12:28:17,177 : (Admin) S >> 8=FIX.4.3|9=56|35=0|34=17|49=SERVER|52=20220109-18:28:17.000|56=CLIENT|10=158|
2022-01-09 12:28:17,178 : (Admin) R << 8=FIX.4.3|9=56|35=0|34=17|49=CLIENT|52=20220109-18:28:17.000|56=SERVER|10=158|
2022-01-09 12:28:47,035 : (Admin) S >> 8=FIX.4.3|9=56|35=0|34=18|49=SERVER|52=20220109-18:28:47.000|56=CLIENT|10=162|
2022-01-09 12:28:47,035 : (Admin) R << 8=FIX.4.3|9=56|35=0|34=18|49=CLIENT|52=20220109-18:28:47.000|56=SERVER|10=162|
2022-01-09 12:29:17,681 : (Admin) S >> 8=FIX.4.3|9=56|35=0|34=19|49=SERVER|52=20220109-18:29:17.000|56=CLIENT|10=161|
2022-01-09 12:29:17,683 : (Admin) R << 8=FIX.4.3|9=56|35=0|34=19|49=CLIENT|52=20220109-18:29:17.000|56=SERVER|10=161|
2022-01-09 12:29:47,298 : (Admin) S >> 8=FIX.4.3|9=56|35=0|34=20|49=SERVER|52=20220109-18:29:47.000|56=CLIENT|10=156|
2022-01-09 12:29:47,299 : (Admin) R << 8=FIX.4.3|9=56|35=0|34=20|49=CLIENT|52=20220109-18:29:47.000|56=SERVER|10=156|
2022-01-09 12:30:17,019 : (Admin) R << 8=FIX.4.3|9=56|35=0|34=21|49=CLIENT|52=20220109-18:30:17.000|56=SERVER|10=146|
2022-01-09 12:30:17,020 : (Admin) S >> 8=FIX.4.3|9=56|35=0|34=21|49=SERVER|52=20220109-18:30:17.000|56=CLIENT|10=146|
2022-01-09 12:30:20,978 : (Admin) R << 8=FIX.4.3|9=73|35=A|34=1|49=CLIENT|52=20220109-18:30:20.000|56=SERVER|98=0|108=30|141=Y|10=176|
2022-01-09 12:30:20,978 : (Admin) S >> 8=FIX.4.3|9=73|35=A|34=1|49=SERVER|52=20220109-18:30:20.000|56=CLIENT|98=0|108=30|141=Y|10=176|
2022-01-09 12:30:21,968 : (App) R << 8=FIX.4.3|9=151|35=D|34=2|49=CLIENT|52=20220109-18:30:21.000|56=SERVER|11=00001|21=3|38=10000|40=2|44=100|54=1|55=MSFT|58=NewOrderSingle|59=0|60=20220109-18:30:21.968|10=072|
2022-01-09 12:30:21,968 : (App) S >> 8=FIX.4.3|9=152|35=8|34=2|49=SERVER|52=20220109-18:30:21.000|56=CLIENT|6=100|11=00001|14=10000|17=00011|31=100|32=10000|37=00011|38=10000|39=2|54=1|55=MSFT|150=2|151=0|10=239|
2022-01-09 12:30:42,835 : (Admin) R << 8=FIX.4.3|9=73|35=A|34=1|49=CLIENT|52=20220109-18:30:42.000|56=SERVER|98=0|108=30|141=Y|10=180|
2022-01-09 12:30:42,835 : (Admin) S >> 8=FIX.4.3|9=73|35=A|34=1|49=SERVER|52=20220109-18:30:42.000|56=CLIENT|98=0|108=30|141=Y|10=180|
2022-01-09 12:30:43,920 : (App) R << 8=FIX.4.3|9=151|35=D|34=2|49=CLIENT|52=20220109-18:30:43.000|56=SERVER|11=00001|21=3|38=10000|40=2|44=100|54=1|55=MSFT|58=NewOrderSingle|59=0|60=20220109-18:30:43.920|10=068|
2022-01-09 12:30:43,920 : (App) S >> 8=FIX.4.3|9=152|35=8|34=2|49=SERVER|52=20220109-18:30:43.000|56=CLIENT|6=100|11=00001|14=10000|17=00012|31=100|32=10000|37=00012|38=10000|39=2|54=1|55=MSFT|150=2|151=0|10=245|
2022-01-09 12:30:45,319 : (App) R << 8=FIX.4.3|9=151|35=D|34=3|49=CLIENT|52=20220109-18:30:45.000|56=SERVER|11=00002|21=3|38=10000|40=2|44=100|54=2|55=MSFT|58=NewOrderSingle|59=0|60=20220109-18:30:45.318|10=076|
2022-01-09 12:30:45,320 : (App) S >> 8=FIX.4.3|9=152|35=8|34=3|49=SERVER|52=20220109-18:30:45.000|56=CLIENT|6=100|11=00002|14=10000|17=00013|31=100|32=10000|37=00013|38=10000|39=2|54=2|55=MSFT|150=2|151=0|10=252|
2022-01-09 12:32:18,521 : (Admin) R << 8=FIX.4.3|9=73|35=A|34=1|49=CLIENT|52=20220109-18:32:18.000|56=SERVER|98=0|108=30|141=Y|10=185|
2022-01-09 12:32:18,521 : (Admin) S >> 8=FIX.4.3|9=73|35=A|34=1|49=SERVER|52=20220109-18:32:18.000|56=CLIENT|98=0|108=30|141=Y|10=185|
2022-01-09 12:32:19,527 : (App) R << 8=FIX.4.3|9=151|35=D|34=2|49=CLIENT|52=20220109-18:32:19.000|56=SERVER|11=00001|21=3|38=10000|40=2|44=100|54=1|55=MSFT|58=NewOrderSingle|59=0|60=20220109-18:32:19.527|10=081|
2022-01-09 12:32:19,528 : (App) S >> 8=FIX.4.3|9=152|35=8|34=2|49=SERVER|52=20220109-18:32:19.000|56=CLIENT|6=100|11=00001|14=10000|17=00014|31=100|32=10000|37=00014|38=10000|39=2|54=1|55=MSFT|150=2|151=0|10=254|
2022-01-09 12:32:22,330 : (App) R << 8=FIX.4.3|9=151|35=D|34=3|49=CLIENT|52=20220109-18:32:22.000|56=SERVER|11=00002|21=3|38=10000|40=2|44=100|54=2|55=MSFT|58=NewOrderSingle|59=0|60=20220109-18:32:22.329|10=072|
2022-01-09 12:32:22,331 : (App) S >> 8=FIX.4.3|9=152|35=8|34=3|49=SERVER|52=20220109-18:32:22.000|56=CLIENT|6=100|11=00002|14=10000|17=00015|31=100|32=10000|37=00015|38=10000|39=2|54=2|55=MSFT|150=2|151=0|10=253|
2022-01-09 12:32:38,732 : (App) R << 8=FIX.4.3|9=151|35=D|34=4|49=CLIENT|52=20220109-18:32:38.000|56=SERVER|11=00003|21=3|38=10000|40=2|44=100|54=1|55=MSFT|58=NewOrderSingle|59=0|60=20220109-18:32:38.732|10=085|
2022-01-09 12:32:38,733 : (App) S >> 8=FIX.4.3|9=152|35=8|34=4|49=SERVER|52=20220109-18:32:38.000|56=CLIENT|6=100|11=00003|14=10000|17=00016|31=100|32=10000|37=00016|38=10000|39=2|54=1|55=MSFT|150=2|151=0|10=007|
2022-01-09 12:32:43,955 : (Admin) R << 8=FIX.4.3|9=73|35=A|34=1|49=CLIENT|52=20220109-18:32:43.000|56=SERVER|98=0|108=30|141=Y|10=183|
2022-01-09 12:32:43,955 : (Admin) S >> 8=FIX.4.3|9=73|35=A|34=1|49=SERVER|52=20220109-18:32:43.000|56=CLIENT|98=0|108=30|141=Y|10=183|
2022-01-09 12:32:44,657 : (App) R << 8=FIX.4.3|9=151|35=D|34=2|49=CLIENT|52=20220109-18:32:44.000|56=SERVER|11=00001|21=3|38=10000|40=2|44=100|54=1|55=MSFT|58=NewOrderSingle|59=0|60=20220109-18:32:44.657|10=081|
2022-01-09 12:32:44,657 : (App) S >> 8=FIX.4.3|9=152|35=8|34=2|49=SERVER|52=20220109-18:32:44.000|56=CLIENT|6=100|11=00001|14=10000|17=00017|31=100|32=10000|37=00017|38=10000|39=2|54=1|55=MSFT|150=2|151=0|10=002|
2022-01-09 12:32:46,664 : (App) R << 8=FIX.4.3|9=151|35=D|34=3|49=CLIENT|52=20220109-18:32:46.000|56=SERVER|11=00002|21=3|38=10000|40=2|44=100|54=2|55=MSFT|58=NewOrderSingle|59=0|60=20220109-18:32:46.663|10=085|
2022-01-09 12:32:46,664 : (App) S >> 8=FIX.4.3|9=152|35=8|34=3|49=SERVER|52=20220109-18:32:46.000|56=CLIENT|6=100|11=00002|14=10000|17=00018|31=100|32=10000|37=00018|38=10000|39=2|54=2|55=MSFT|150=2|151=0|10=009|
2022-01-09 12:33:16,394 : (Admin) R << 8=FIX.4.3|9=73|35=A|34=1|49=CLIENT|52=20220109-18:33:16.000|56=SERVER|98=0|108=30|141=Y|10=184|
2022-01-09 12:33:16,394 : (Admin) S >> 8=FIX.4.3|9=73|35=A|34=1|49=SERVER|52=20220109-18:33:16.000|56=CLIENT|98=0|108=30|141=Y|10=184|
2022-01-09 12:33:17,081 : (App) R << 8=FIX.4.3|9=151|35=D|34=2|49=CLIENT|52=20220109-18:33:17.000|56=SERVER|11=00001|21=3|38=10000|40=2|44=100|54=1|55=MSFT|58=NewOrderSingle|59=0|60=20220109-18:33:17.080|10=073|
2022-01-09 12:33:17,081 : (App) S >> 8=FIX.4.3|9=152|35=8|34=2|49=SERVER|52=20220109-18:33:17.000|56=CLIENT|6=100|11=00001|14=10000|17=00019|31=100|32=10000|37=00019|38=10000|39=2|54=1|55=MSFT|150=2|151=0|10=007|
2022-01-09 12:33:47,089 : (Admin) R << 8=FIX.4.3|9=55|35=0|34=3|49=CLIENT|52=20220109-18:33:47.000|56=SERVER|10=103|
2022-01-09 12:33:47,089 : (Admin) S >> 8=FIX.4.3|9=55|35=0|34=3|49=SERVER|52=20220109-18:33:47.000|56=CLIENT|10=103|
2022-01-09 12:34:17,071 : (Admin) R << 8=FIX.4.3|9=55|35=0|34=4|49=CLIENT|52=20220109-18:34:17.000|56=SERVER|10=102|
2022-01-09 12:34:17,071 : (Admin) S >> 8=FIX.4.3|9=55|35=0|34=4|49=SERVER|52=20220109-18:34:17.000|56=CLIENT|10=102|
2022-01-09 12:34:47,088 : (Admin) S >> 8=FIX.4.3|9=55|35=0|34=5|49=SERVER|52=20220109-18:34:47.000|56=CLIENT|10=106|
2022-01-09 12:34:47,092 : (Admin) R << 8=FIX.4.3|9=55|35=0|34=5|49=CLIENT|52=20220109-18:34:47.000|56=SERVER|10=106|
2022-01-09 12:35:17,788 : (Admin) S >> 8=FIX.4.3|9=55|35=0|34=6|49=SERVER|52=20220109-18:35:17.000|56=CLIENT|10=105|
2022-01-09 12:35:17,791 : (Admin) R << 8=FIX.4.3|9=55|35=0|34=6|49=CLIENT|52=20220109-18:35:17.000|56=SERVER|10=105|
2022-01-09 12:35:47,447 : (Admin) S >> 8=FIX.4.3|9=55|35=0|34=7|49=SERVER|52=20220109-18:35:47.000|56=CLIENT|10=109|
2022-01-09 12:35:47,447 : (Admin) R << 8=FIX.4.3|9=55|35=0|34=7|49=CLIENT|52=20220109-18:35:47.000|56=SERVER|10=109|
2022-01-09 12:35:57,471 : (Admin) R << 8=FIX.4.3|9=73|35=A|34=1|49=CLIENT|52=20220109-18:35:57.000|56=SERVER|98=0|108=30|141=Y|10=191|
2022-01-09 12:35:57,471 : (Admin) S >> 8=FIX.4.3|9=73|35=A|34=1|49=SERVER|52=20220109-18:35:57.000|56=CLIENT|98=0|108=30|141=Y|10=191|
2022-01-09 12:35:58,682 : (App) R << 8=FIX.4.3|9=151|35=D|34=2|49=CLIENT|52=20220109-18:35:58.000|56=SERVER|11=00001|21=3|38=10000|40=2|44=100|54=1|55=MSFT|58=NewOrderSingle|59=0|60=20220109-18:35:58.681|10=094|
2022-01-09 12:35:58,682 : (App) S >> 8=FIX.4.3|9=152|35=8|34=2|49=SERVER|52=20220109-18:35:58.000|56=CLIENT|6=100|11=00001|14=10000|17=00020|31=100|32=10000|37=00020|38=10000|39=2|54=1|55=MSFT|150=2|151=0|10=254|
2022-01-09 12:35:59,685 : (App) R << 8=FIX.4.3|9=151|35=D|34=3|49=CLIENT|52=20220109-18:35:59.000|56=SERVER|11=00002|21=3|38=10000|40=2|44=100|54=2|55=MSFT|58=NewOrderSingle|59=0|60=20220109-18:35:59.685|10=103|
2022-01-09 12:35:59,685 : (App) S >> 8=FIX.4.3|9=152|35=8|34=3|49=SERVER|52=20220109-18:35:59.000|56=CLIENT|6=100|11=00002|14=10000|17=00021|31=100|32=10000|37=00021|38=10000|39=2|54=2|55=MSFT|150=2|151=0|10=004|
2022-01-09 12:36:29,128 : (Admin) S >> 8=FIX.4.3|9=55|35=0|34=4|49=SERVER|52=20220109-18:36:29.000|56=CLIENT|10=107|
2022-01-09 12:36:29,129 : (Admin) R << 8=FIX.4.3|9=55|35=0|34=4|49=CLIENT|52=20220109-18:36:29.000|56=SERVER|10=107|
2022-01-09 12:36:59,012 : (Admin) R << 8=FIX.4.3|9=55|35=0|34=5|49=CLIENT|52=20220109-18:36:59.000|56=SERVER|10=111|
2022-01-09 12:36:59,012 : (Admin) S >> 8=FIX.4.3|9=55|35=0|34=5|49=SERVER|52=20220109-18:36:59.000|56=CLIENT|10=111|
2022-01-09 12:37:29,746 : (Admin) R << 8=FIX.4.3|9=55|35=0|34=6|49=CLIENT|52=20220109-18:37:29.000|56=SERVER|10=110|
2022-01-09 12:37:29,746 : (Admin) S >> 8=FIX.4.3|9=55|35=0|34=6|49=SERVER|52=20220109-18:37:29.000|56=CLIENT|10=110|
2022-01-09 12:37:59,446 : (Admin) R << 8=FIX.4.3|9=55|35=0|34=7|49=CLIENT|52=20220109-18:37:59.000|56=SERVER|10=114|
2022-01-09 12:37:59,446 : (Admin) S >> 8=FIX.4.3|9=55|35=0|34=7|49=SERVER|52=20220109-18:37:59.000|56=CLIENT|10=114|
2022-01-09 12:38:29,032 : (Admin) R << 8=FIX.4.3|9=55|35=0|34=8|49=CLIENT|52=20220109-18:38:29.000|56=SERVER|10=113|
2022-01-09 12:38:29,033 : (Admin) S >> 8=FIX.4.3|9=55|35=0|34=8|49=SERVER|52=20220109-18:38:29.000|56=CLIENT|10=113|
2022-01-09 12:38:59,174 : (Admin) S >> 8=FIX.4.3|9=55|35=0|34=9|49=SERVER|52=20220109-18:38:59.000|56=CLIENT|10=117|
2022-01-09 12:38:59,178 : (Admin) R << 8=FIX.4.3|9=55|35=0|34=9|49=CLIENT|52=20220109-18:38:59.000|56=SERVER|10=117|
2022-01-09 12:39:29,336 : (Admin) R << 8=FIX.4.3|9=56|35=0|34=10|49=CLIENT|52=20220109-18:39:29.000|56=SERVER|10=156|
2022-01-09 12:39:29,336 : (Admin) S >> 8=FIX.4.3|9=56|35=0|34=10|49=SERVER|52=20220109-18:39:29.000|56=CLIENT|10=156|
2022-01-09 12:39:59,300 : (Admin) R << 8=FIX.4.3|9=56|35=0|34=11|49=CLIENT|52=20220109-18:39:59.000|56=SERVER|10=160|
2022-01-09 12:39:59,301 : (Admin) S >> 8=FIX.4.3|9=56|35=0|34=11|49=SERVER|52=20220109-18:39:59.000|56=CLIENT|10=160|
2022-01-09 12:40:29,044 : (Admin) R << 8=FIX.4.3|9=56|35=0|34=12|49=CLIENT|52=20220109-18:40:29.000|56=SERVER|10=150|
2022-01-09 12:40:29,045 : (Admin) S >> 8=FIX.4.3|9=56|35=0|34=12|49=SERVER|52=20220109-18:40:29.000|56=CLIENT|10=150|
2022-01-09 12:40:59,418 : (Admin) S >> 8=FIX.4.3|9=56|35=0|34=13|49=SERVER|52=20220109-18:40:59.000|56=CLIENT|10=154|
2022-01-09 12:40:59,423 : (Admin) R << 8=FIX.4.3|9=56|35=0|34=13|49=CLIENT|52=20220109-18:40:59.000|56=SERVER|10=154|
2022-01-09 12:41:29,416 : (Admin) S >> 8=FIX.4.3|9=56|35=0|34=14|49=SERVER|52=20220109-18:41:29.000|56=CLIENT|10=153|
2022-01-09 12:41:29,420 : (Admin) R << 8=FIX.4.3|9=56|35=0|34=14|49=CLIENT|52=20220109-18:41:29.000|56=SERVER|10=153|
2022-01-09 12:41:59,046 : (Admin) S >> 8=FIX.4.3|9=56|35=0|34=15|49=SERVER|52=20220109-18:41:59.000|56=CLIENT|10=157|
2022-01-09 12:41:59,050 : (Admin) R << 8=FIX.4.3|9=56|35=0|34=15|49=CLIENT|52=20220109-18:41:59.000|56=SERVER|10=157|
2022-01-09 12:42:29,048 : (Admin) S >> 8=FIX.4.3|9=56|35=0|34=16|49=SERVER|52=20220109-18:42:29.000|56=CLIENT|10=156|
2022-01-09 12:42:29,051 : (Admin) R << 8=FIX.4.3|9=56|35=0|34=16|49=CLIENT|52=20220109-18:42:29.000|56=SERVER|10=156|
2022-01-09 12:42:59,408 : (Admin) S >> 8=FIX.4.3|9=56|35=0|34=17|49=SERVER|52=20220109-18:42:59.000|56=CLIENT|10=160|
2022-01-09 12:42:59,413 : (Admin) R << 8=FIX.4.3|9=56|35=0|34=17|49=CLIENT|52=20220109-18:42:59.000|56=SERVER|10=160|
2022-01-09 12:43:29,458 : (Admin) S >> 8=FIX.4.3|9=56|35=0|34=18|49=SERVER|52=20220109-18:43:29.000|56=CLIENT|10=159|
2022-01-09 12:43:29,462 : (Admin) R << 8=FIX.4.3|9=56|35=0|34=18|49=CLIENT|52=20220109-18:43:29.000|56=SERVER|10=159|
2022-01-09 12:43:59,080 : (Admin) S >> 8=FIX.4.3|9=56|35=0|34=19|49=SERVER|52=20220109-18:43:59.000|56=CLIENT|10=163|
2022-01-09 12:43:59,082 : (Admin) R << 8=FIX.4.3|9=56|35=0|34=19|49=CLIENT|52=20220109-18:43:59.000|56=SERVER|10=163|
2022-01-09 12:44:29,065 : (Admin) S >> 8=FIX.4.3|9=56|35=0|34=20|49=SERVER|52=20220109-18:44:29.000|56=CLIENT|10=153|
2022-01-09 12:44:29,069 : (Admin) R << 8=FIX.4.3|9=56|35=0|34=20|49=CLIENT|52=20220109-18:44:29.000|56=SERVER|10=153|
2022-01-09 12:44:59,275 : (Admin) S >> 8=FIX.4.3|9=56|35=0|34=21|49=SERVER|52=20220109-18:44:59.000|56=CLIENT|10=157|
2022-01-09 12:44:59,279 : (Admin) R << 8=FIX.4.3|9=56|35=0|34=21|49=CLIENT|52=20220109-18:44:59.000|56=SERVER|10=157|
2022-01-09 12:45:29,058 : (Admin) S >> 8=FIX.4.3|9=56|35=0|34=22|49=SERVER|52=20220109-18:45:29.000|56=CLIENT|10=156|
2022-01-09 12:45:29,062 : (Admin) R << 8=FIX.4.3|9=56|35=0|34=22|49=CLIENT|52=20220109-18:45:29.000|56=SERVER|10=156|
2022-01-09 12:45:59,040 : (Admin) S >> 8=FIX.4.3|9=56|35=0|34=23|49=SERVER|52=20220109-18:45:59.000|56=CLIENT|10=160|
2022-01-09 12:45:59,043 : (Admin) R << 8=FIX.4.3|9=56|35=0|34=23|49=CLIENT|52=20220109-18:45:59.000|56=SERVER|10=160|
2022-01-09 12:46:29,187 : (Admin) R << 8=FIX.4.3|9=56|35=0|34=24|49=CLIENT|52=20220109-18:46:29.000|56=SERVER|10=159|
2022-01-09 12:46:29,188 : (Admin) S >> 8=FIX.4.3|9=56|35=0|34=24|49=SERVER|52=20220109-18:46:29.000|56=CLIENT|10=159|
2022-01-09 12:46:59,078 : (Admin) R << 8=FIX.4.3|9=56|35=0|34=25|49=CLIENT|52=20220109-18:46:59.000|56=SERVER|10=163|
2022-01-09 12:46:59,079 : (Admin) S >> 8=FIX.4.3|9=56|35=0|34=25|49=SERVER|52=20220109-18:46:59.000|56=CLIENT|10=163|
2022-01-09 12:47:29,009 : (Admin) S >> 8=FIX.4.3|9=56|35=0|34=26|49=SERVER|52=20220109-18:47:29.000|56=CLIENT|10=162|
2022-01-09 12:47:29,014 : (Admin) R << 8=FIX.4.3|9=56|35=0|34=26|49=CLIENT|52=20220109-18:47:29.000|56=SERVER|10=162|
2022-01-09 12:47:59,054 : (Admin) S >> 8=FIX.4.3|9=56|35=0|34=27|49=SERVER|52=20220109-18:47:59.000|56=CLIENT|10=166|
2022-01-09 12:47:59,058 : (Admin) R << 8=FIX.4.3|9=56|35=0|34=27|49=CLIENT|52=20220109-18:47:59.000|56=SERVER|10=166|
2022-01-09 12:48:29,159 : (Admin) R << 8=FIX.4.3|9=56|35=0|34=28|49=CLIENT|52=20220109-18:48:29.000|56=SERVER|10=165|
2022-01-09 12:48:29,160 : (Admin) S >> 8=FIX.4.3|9=56|35=0|34=28|49=SERVER|52=20220109-18:48:29.000|56=CLIENT|10=165|
2022-01-09 12:48:59,345 : (Admin) S >> 8=FIX.4.3|9=56|35=0|34=29|49=SERVER|52=20220109-18:48:59.000|56=CLIENT|10=169|
2022-01-09 12:48:59,349 : (Admin) R << 8=FIX.4.3|9=56|35=0|34=29|49=CLIENT|52=20220109-18:48:59.000|56=SERVER|10=169|
2022-01-09 12:49:29,177 : (Admin) S >> 8=FIX.4.3|9=56|35=0|34=30|49=SERVER|52=20220109-18:49:29.000|56=CLIENT|10=159|
2022-01-09 12:49:29,180 : (Admin) R << 8=FIX.4.3|9=56|35=0|34=30|49=CLIENT|52=20220109-18:49:29.000|56=SERVER|10=159|
2022-01-09 12:49:59,032 : (Admin) R << 8=FIX.4.3|9=56|35=0|34=31|49=CLIENT|52=20220109-18:49:59.000|56=SERVER|10=163|
2022-01-09 12:49:59,033 : (Admin) S >> 8=FIX.4.3|9=56|35=0|34=31|49=SERVER|52=20220109-18:49:59.000|56=CLIENT|10=163|
2022-01-09 12:51:07,793 : (Admin) S >> 8=FIX.4.3|9=65|35=1|34=32|49=SERVER|52=20220109-18:51:07.000|56=CLIENT|112=TEST|10=169|
2022-01-09 12:51:07,794 : (Admin) R << 8=FIX.4.3|9=65|35=0|34=32|49=CLIENT|52=20220109-18:51:07.000|56=SERVER|112=TEST|10=168|
2022-01-09 12:51:37,420 : (Admin) S >> 8=FIX.4.3|9=56|35=0|34=33|49=SERVER|52=20220109-18:51:37.000|56=CLIENT|10=154|
2022-01-09 12:51:37,424 : (Admin) R << 8=FIX.4.3|9=56|35=0|34=33|49=CLIENT|52=20220109-18:51:37.000|56=SERVER|10=154|
2022-01-09 12:52:07,406 : (Admin) S >> 8=FIX.4.3|9=56|35=0|34=34|49=SERVER|52=20220109-18:52:07.000|56=CLIENT|10=153|
2022-01-09 12:52:07,410 : (Admin) R << 8=FIX.4.3|9=56|35=0|34=34|49=CLIENT|52=20220109-18:52:07.000|56=SERVER|10=153|
2022-01-09 12:52:37,185 : (Admin) S >> 8=FIX.4.3|9=56|35=0|34=35|49=SERVER|52=20220109-18:52:37.000|56=CLIENT|10=157|
2022-01-09 12:52:37,188 : (Admin) R << 8=FIX.4.3|9=56|35=0|34=35|49=CLIENT|52=20220109-18:52:37.000|56=SERVER|10=157|
2022-01-09 12:53:07,311 : (Admin) S >> 8=FIX.4.3|9=56|35=0|34=36|49=SERVER|52=20220109-18:53:07.000|56=CLIENT|10=156|
2022-01-09 12:53:07,313 : (Admin) R << 8=FIX.4.3|9=56|35=0|34=36|49=CLIENT|52=20220109-18:53:07.000|56=SERVER|10=156|
2022-01-09 12:53:37,134 : (Admin) S >> 8=FIX.4.3|9=56|35=0|34=37|49=SERVER|52=20220109-18:53:37.000|56=CLIENT|10=160|
2022-01-09 12:53:37,137 : (Admin) R << 8=FIX.4.3|9=56|35=0|34=37|49=CLIENT|52=20220109-18:53:37.000|56=SERVER|10=160|
2022-01-09 12:54:12,108 : (Admin) R << 8=FIX.4.3|9=56|35=0|34=38|49=CLIENT|52=20220109-18:54:12.000|56=SERVER|10=155|
2022-01-09 12:54:12,109 : (Admin) S >> 8=FIX.4.3|9=56|35=0|34=38|49=SERVER|52=20220109-18:54:12.000|56=CLIENT|10=155|
2022-01-09 12:54:42,177 : (Admin) S >> 8=FIX.4.3|9=56|35=0|34=39|49=SERVER|52=20220109-18:54:42.000|56=CLIENT|10=159|
2022-01-09 12:54:42,191 : (Admin) R << 8=FIX.4.3|9=56|35=0|34=39|49=CLIENT|52=20220109-18:54:42.000|56=SERVER|10=159|
2022-01-09 12:55:12,329 : (Admin) S >> 8=FIX.4.3|9=56|35=0|34=40|49=SERVER|52=20220109-18:55:12.000|56=CLIENT|10=149|
2022-01-09 12:55:12,331 : (Admin) R << 8=FIX.4.3|9=56|35=0|34=40|49=CLIENT|52=20220109-18:55:12.000|56=SERVER|10=149|
2022-01-09 12:55:42,160 : (Admin) R << 8=FIX.4.3|9=56|35=0|34=41|49=CLIENT|52=20220109-18:55:42.000|56=SERVER|10=153|
2022-01-09 12:55:42,161 : (Admin) S >> 8=FIX.4.3|9=56|35=0|34=41|49=SERVER|52=20220109-18:55:42.000|56=CLIENT|10=153|
2022-01-09 12:56:12,204 : (Admin) S >> 8=FIX.4.3|9=56|35=0|34=42|49=SERVER|52=20220109-18:56:12.000|56=CLIENT|10=152|
2022-01-09 12:56:12,208 : (Admin) R << 8=FIX.4.3|9=56|35=0|34=42|49=CLIENT|52=20220109-18:56:12.000|56=SERVER|10=152|
2022-01-09 12:56:43,558 : (Admin) S >> 8=FIX.4.3|9=56|35=0|34=43|49=SERVER|52=20220109-18:56:43.000|56=CLIENT|10=157|
2022-01-09 12:56:43,560 : (Admin) R << 8=FIX.4.3|9=56|35=0|34=43|49=CLIENT|52=20220109-18:56:43.000|56=SERVER|10=157|
2022-01-09 12:57:13,356 : (Admin) S >> 8=FIX.4.3|9=56|35=0|34=44|49=SERVER|52=20220109-18:57:13.000|56=CLIENT|10=156|
2022-01-09 12:57:13,360 : (Admin) R << 8=FIX.4.3|9=56|35=0|34=44|49=CLIENT|52=20220109-18:57:13.000|56=SERVER|10=156|
2022-01-09 12:57:43,082 : (Admin) S >> 8=FIX.4.3|9=56|35=0|34=45|49=SERVER|52=20220109-18:57:43.000|56=CLIENT|10=160|
2022-01-09 12:57:43,087 : (Admin) R << 8=FIX.4.3|9=56|35=0|34=45|49=CLIENT|52=20220109-18:57:43.000|56=SERVER|10=160|
2022-01-09 12:58:13,082 : (Admin) S >> 8=FIX.4.3|9=56|35=0|34=46|49=SERVER|52=20220109-18:58:13.000|56=CLIENT|10=159|
2022-01-09 12:58:13,086 : (Admin) R << 8=FIX.4.3|9=56|35=0|34=46|49=CLIENT|52=20220109-18:58:13.000|56=SERVER|10=159|
2022-01-09 12:58:43,153 : (Admin) S >> 8=FIX.4.3|9=56|35=0|34=47|49=SERVER|52=20220109-18:58:43.000|56=CLIENT|10=163|
2022-01-09 12:58:43,157 : (Admin) R << 8=FIX.4.3|9=56|35=0|34=47|49=CLIENT|52=20220109-18:58:43.000|56=SERVER|10=163|
2022-01-09 12:59:13,761 : (Admin) S >> 8=FIX.4.3|9=56|35=0|34=48|49=SERVER|52=20220109-18:59:13.000|56=CLIENT|10=162|
2022-01-09 12:59:13,767 : (Admin) R << 8=FIX.4.3|9=56|35=0|34=48|49=CLIENT|52=20220109-18:59:13.000|56=SERVER|10=162|
2022-01-09 12:59:43,029 : (Admin) S >> 8=FIX.4.3|9=56|35=0|34=49|49=SERVER|52=20220109-18:59:43.000|56=CLIENT|10=166|
2022-01-09 12:59:43,033 : (Admin) R << 8=FIX.4.3|9=56|35=0|34=49|49=CLIENT|52=20220109-18:59:43.000|56=SERVER|10=166|
2022-01-09 13:00:13,213 : (Admin) S >> 8=FIX.4.3|9=56|35=0|34=50|49=SERVER|52=20220109-19:00:13.000|56=CLIENT|10=142|
2022-01-09 13:00:13,217 : (Admin) R << 8=FIX.4.3|9=56|35=0|34=50|49=CLIENT|52=20220109-19:00:13.000|56=SERVER|10=142|
2022-01-09 13:00:43,044 : (Admin) S >> 8=FIX.4.3|9=56|35=0|34=51|49=SERVER|52=20220109-19:00:43.000|56=CLIENT|10=146|
2022-01-09 13:00:43,048 : (Admin) R << 8=FIX.4.3|9=56|35=0|34=51|49=CLIENT|52=20220109-19:00:43.000|56=SERVER|10=146|
2022-01-09 13:01:13,085 : (Admin) S >> 8=FIX.4.3|9=56|35=0|34=52|49=SERVER|52=20220109-19:01:13.000|56=CLIENT|10=145|
2022-01-09 13:01:13,129 : (Admin) R << 8=FIX.4.3|9=56|35=0|34=52|49=CLIENT|52=20220109-19:01:13.000|56=SERVER|10=145|
2022-01-09 13:01:46,652 : (Admin) S >> 8=FIX.4.3|9=56|35=0|34=53|49=SERVER|52=20220109-19:01:46.000|56=CLIENT|10=152|
2022-01-09 13:01:46,658 : (Admin) R << 8=FIX.4.3|9=56|35=0|34=53|49=CLIENT|52=20220109-19:01:46.000|56=SERVER|10=152|
2022-01-09 13:02:16,147 : (Admin) S >> 8=FIX.4.3|9=56|35=0|34=54|49=SERVER|52=20220109-19:02:16.000|56=CLIENT|10=151|
2022-01-09 13:02:16,151 : (Admin) R << 8=FIX.4.3|9=56|35=0|34=54|49=CLIENT|52=20220109-19:02:16.000|56=SERVER|10=151|
2022-01-09 13:02:46,186 : (Admin) S >> 8=FIX.4.3|9=56|35=0|34=55|49=SERVER|52=20220109-19:02:46.000|56=CLIENT|10=155|
2022-01-09 13:02:46,189 : (Admin) R << 8=FIX.4.3|9=56|35=0|34=55|49=CLIENT|52=20220109-19:02:46.000|56=SERVER|10=155|
2022-01-09 13:03:16,002 : (Admin) S >> 8=FIX.4.3|9=56|35=0|34=56|49=SERVER|52=20220109-19:03:16.000|56=CLIENT|10=154|
2022-01-09 13:03:16,006 : (Admin) R << 8=FIX.4.3|9=56|35=0|34=56|49=CLIENT|52=20220109-19:03:16.000|56=SERVER|10=154|
2022-01-09 13:03:46,046 : (Admin) S >> 8=FIX.4.3|9=56|35=0|34=57|49=SERVER|52=20220109-19:03:46.000|56=CLIENT|10=158|
2022-01-09 13:03:46,052 : (Admin) R << 8=FIX.4.3|9=56|35=0|34=57|49=CLIENT|52=20220109-19:03:46.000|56=SERVER|10=158|
2022-01-09 13:04:16,200 : (Admin) S >> 8=FIX.4.3|9=56|35=0|34=58|49=SERVER|52=20220109-19:04:16.000|56=CLIENT|10=157|
2022-01-09 13:04:16,205 : (Admin) R << 8=FIX.4.3|9=56|35=0|34=58|49=CLIENT|52=20220109-19:04:16.000|56=SERVER|10=157|
2022-01-09 13:04:46,240 : (Admin) S >> 8=FIX.4.3|9=56|35=0|34=59|49=SERVER|52=20220109-19:04:46.000|56=CLIENT|10=161|
2022-01-09 13:04:46,244 : (Admin) R << 8=FIX.4.3|9=56|35=0|34=59|49=CLIENT|52=20220109-19:04:46.000|56=SERVER|10=161|
2022-01-09 13:05:16,048 : (Admin) S >> 8=FIX.4.3|9=56|35=0|34=60|49=SERVER|52=20220109-19:05:16.000|56=CLIENT|10=151|
2022-01-09 13:05:16,051 : (Admin) R << 8=FIX.4.3|9=56|35=0|34=60|49=CLIENT|52=20220109-19:05:16.000|56=SERVER|10=151|
2022-01-09 13:05:46,131 : (Admin) S >> 8=FIX.4.3|9=56|35=0|34=61|49=SERVER|52=20220109-19:05:46.000|56=CLIENT|10=155|
2022-01-09 13:05:46,135 : (Admin) R << 8=FIX.4.3|9=56|35=0|34=61|49=CLIENT|52=20220109-19:05:46.000|56=SERVER|10=155|
2022-01-09 13:06:16,009 : (Admin) S >> 8=FIX.4.3|9=56|35=0|34=62|49=SERVER|52=20220109-19:06:16.000|56=CLIENT|10=154|
2022-01-09 13:06:16,012 : (Admin) R << 8=FIX.4.3|9=56|35=0|34=62|49=CLIENT|52=20220109-19:06:16.000|56=SERVER|10=154|
2022-01-09 13:06:46,677 : (Admin) S >> 8=FIX.4.3|9=56|35=0|34=63|49=SERVER|52=20220109-19:06:46.000|56=CLIENT|10=158|
2022-01-09 13:06:46,681 : (Admin) R << 8=FIX.4.3|9=56|35=0|34=63|49=CLIENT|52=20220109-19:06:46.000|56=SERVER|10=158|
2022-01-09 13:07:16,051 : (Admin) R << 8=FIX.4.3|9=56|35=0|34=64|49=CLIENT|52=20220109-19:07:16.000|56=SERVER|10=157|
2022-01-09 13:07:16,051 : (Admin) S >> 8=FIX.4.3|9=56|35=0|34=64|49=SERVER|52=20220109-19:07:16.000|56=CLIENT|10=157|
2022-01-09 13:07:46,160 : (Admin) S >> 8=FIX.4.3|9=56|35=0|34=65|49=SERVER|52=20220109-19:07:46.000|56=CLIENT|10=161|
2022-01-09 13:07:46,164 : (Admin) R << 8=FIX.4.3|9=56|35=0|34=65|49=CLIENT|52=20220109-19:07:46.000|56=SERVER|10=161|
2022-01-09 13:08:16,052 : (Admin) S >> 8=FIX.4.3|9=56|35=0|34=66|49=SERVER|52=20220109-19:08:16.000|56=CLIENT|10=160|
2022-01-09 13:08:16,056 : (Admin) R << 8=FIX.4.3|9=56|35=0|34=66|49=CLIENT|52=20220109-19:08:16.000|56=SERVER|10=160|
2022-01-09 13:08:46,030 : (Admin) S >> 8=FIX.4.3|9=56|35=0|34=67|49=SERVER|52=20220109-19:08:46.000|56=CLIENT|10=164|
2022-01-09 13:08:46,033 : (Admin) R << 8=FIX.4.3|9=56|35=0|34=67|49=CLIENT|52=20220109-19:08:46.000|56=SERVER|10=164|
2022-01-09 13:09:16,096 : (Admin) S >> 8=FIX.4.3|9=56|35=0|34=68|49=SERVER|52=20220109-19:09:16.000|56=CLIENT|10=163|
2022-01-09 13:09:16,100 : (Admin) R << 8=FIX.4.3|9=56|35=0|34=68|49=CLIENT|52=20220109-19:09:16.000|56=SERVER|10=163|
2022-01-09 13:09:46,053 : (Admin) S >> 8=FIX.4.3|9=56|35=0|34=69|49=SERVER|52=20220109-19:09:46.000|56=CLIENT|10=167|
2022-01-09 13:09:46,057 : (Admin) R << 8=FIX.4.3|9=56|35=0|34=69|49=CLIENT|52=20220109-19:09:46.000|56=SERVER|10=167|
2022-01-09 13:10:16,036 : (Admin) S >> 8=FIX.4.3|9=56|35=0|34=70|49=SERVER|52=20220109-19:10:16.000|56=CLIENT|10=148|
2022-01-09 13:10:16,039 : (Admin) R << 8=FIX.4.3|9=56|35=0|34=70|49=CLIENT|52=20220109-19:10:16.000|56=SERVER|10=148|
2022-01-09 13:10:46,423 : (Admin) R << 8=FIX.4.3|9=56|35=0|34=71|49=CLIENT|52=20220109-19:10:46.000|56=SERVER|10=152|
2022-01-09 13:10:46,424 : (Admin) S >> 8=FIX.4.3|9=56|35=0|34=71|49=SERVER|52=20220109-19:10:46.000|56=CLIENT|10=152|
2022-01-09 13:11:16,118 : (Admin) S >> 8=FIX.4.3|9=56|35=0|34=72|49=SERVER|52=20220109-19:11:16.000|56=CLIENT|10=151|
2022-01-09 13:11:16,122 : (Admin) R << 8=FIX.4.3|9=56|35=0|34=72|49=CLIENT|52=20220109-19:11:16.000|56=SERVER|10=151|
2022-01-09 13:11:46,520 : (Admin) R << 8=FIX.4.3|9=56|35=0|34=73|49=CLIENT|52=20220109-19:11:46.000|56=SERVER|10=155|
2022-01-09 13:11:46,521 : (Admin) S >> 8=FIX.4.3|9=56|35=0|34=73|49=SERVER|52=20220109-19:11:46.000|56=CLIENT|10=155|
2022-01-09 13:12:18,905 : (Admin) S >> 8=FIX.4.3|9=56|35=0|34=74|49=SERVER|52=20220109-19:12:18.000|56=CLIENT|10=156|
2022-01-09 13:12:18,907 : (Admin) R << 8=FIX.4.3|9=56|35=0|34=74|49=CLIENT|52=20220109-19:12:18.000|56=SERVER|10=156|
2022-01-09 13:12:48,123 : (Admin) R << 8=FIX.4.3|9=56|35=0|34=75|49=CLIENT|52=20220109-19:12:48.000|56=SERVER|10=160|
2022-01-09 13:12:48,124 : (Admin) S >> 8=FIX.4.3|9=56|35=0|34=75|49=SERVER|52=20220109-19:12:48.000|56=CLIENT|10=160|
2022-01-09 13:13:25,244 : (Admin) R << 8=FIX.4.3|9=65|35=1|34=76|49=CLIENT|52=20220109-19:13:25.000|56=SERVER|112=TEST|10=176|
2022-01-09 13:13:25,245 : (Admin) S >> 8=FIX.4.3|9=65|35=0|34=76|49=SERVER|52=20220109-19:13:25.000|56=CLIENT|112=TEST|10=175|
2022-01-09 13:13:55,394 : (Admin) S >> 8=FIX.4.3|9=56|35=0|34=77|49=SERVER|52=20220109-19:13:55.000|56=CLIENT|10=161|
2022-01-09 13:13:55,397 : (Admin) R << 8=FIX.4.3|9=56|35=0|34=77|49=CLIENT|52=20220109-19:13:55.000|56=SERVER|10=161|
2022-01-09 13:14:25,435 : (Admin) R << 8=FIX.4.3|9=56|35=0|34=78|49=CLIENT|52=20220109-19:14:25.000|56=SERVER|10=160|
2022-01-09 13:14:25,436 : (Admin) S >> 8=FIX.4.3|9=56|35=0|34=78|49=SERVER|52=20220109-19:14:25.000|56=CLIENT|10=160|
2022-01-09 13:14:55,181 : (Admin) S >> 8=FIX.4.3|9=56|35=0|34=79|49=SERVER|52=20220109-19:14:55.000|56=CLIENT|10=164|
2022-01-09 13:14:55,185 : (Admin) R << 8=FIX.4.3|9=56|35=0|34=79|49=CLIENT|52=20220109-19:14:55.000|56=SERVER|10=164|
2022-01-09 13:15:37,252 : (Admin) S >> 8=FIX.4.3|9=65|35=1|34=80|49=SERVER|52=20220109-19:15:37.000|56=CLIENT|112=TEST|10=176|
2022-01-09 13:15:37,254 : (Admin) R << 8=FIX.4.3|9=65|35=1|34=80|49=CLIENT|52=20220109-19:15:37.000|56=SERVER|112=TEST|10=176|
2022-01-09 13:15:37,254 : (Admin) S >> 8=FIX.4.3|9=65|35=0|34=81|49=SERVER|52=20220109-19:15:37.000|56=CLIENT|112=TEST|10=176|
2022-01-09 13:15:37,255 : (Admin) R << 8=FIX.4.3|9=65|35=0|34=81|49=CLIENT|52=20220109-19:15:37.000|56=SERVER|112=TEST|10=176|
2022-01-09 13:16:07,499 : (Admin) R << 8=FIX.4.3|9=56|35=0|34=82|49=CLIENT|52=20220109-19:16:07.000|56=SERVER|10=157|
2022-01-09 13:16:07,499 : (Admin) S >> 8=FIX.4.3|9=56|35=0|34=82|49=SERVER|52=20220109-19:16:07.000|56=CLIENT|10=157|
2022-01-09 13:16:37,043 : (Admin) S >> 8=FIX.4.3|9=56|35=0|34=83|49=SERVER|52=20220109-19:16:37.000|56=CLIENT|10=161|
2022-01-09 13:16:37,047 : (Admin) R << 8=FIX.4.3|9=56|35=0|34=83|49=CLIENT|52=20220109-19:16:37.000|56=SERVER|10=161|
2022-01-09 13:17:07,409 : (Admin) R << 8=FIX.4.3|9=56|35=0|34=84|49=CLIENT|52=20220109-19:17:07.000|56=SERVER|10=160|
2022-01-09 13:17:07,410 : (Admin) S >> 8=FIX.4.3|9=56|35=0|34=84|49=SERVER|52=20220109-19:17:07.000|56=CLIENT|10=160|
2022-01-09 13:17:37,172 : (Admin) R << 8=FIX.4.3|9=56|35=0|34=85|49=CLIENT|52=20220109-19:17:37.000|56=SERVER|10=164|
2022-01-09 13:17:37,172 : (Admin) S >> 8=FIX.4.3|9=56|35=0|34=85|49=SERVER|52=20220109-19:17:37.000|56=CLIENT|10=164|
2022-01-09 13:18:07,164 : (Admin) R << 8=FIX.4.3|9=56|35=0|34=86|49=CLIENT|52=20220109-19:18:07.000|56=SERVER|10=163|
2022-01-09 13:18:07,164 : (Admin) S >> 8=FIX.4.3|9=56|35=0|34=86|49=SERVER|52=20220109-19:18:07.000|56=CLIENT|10=163|
2022-01-09 13:18:37,321 : (Admin) R << 8=FIX.4.3|9=56|35=0|34=87|49=CLIENT|52=20220109-19:18:37.000|56=SERVER|10=167|
2022-01-09 13:18:37,321 : (Admin) S >> 8=FIX.4.3|9=56|35=0|34=87|49=SERVER|52=20220109-19:18:37.000|56=CLIENT|10=167|
2022-01-09 13:19:07,400 : (Admin) S >> 8=FIX.4.3|9=56|35=0|34=88|49=SERVER|52=20220109-19:19:07.000|56=CLIENT|10=166|
2022-01-09 13:19:07,404 : (Admin) R << 8=FIX.4.3|9=56|35=0|34=88|49=CLIENT|52=20220109-19:19:07.000|56=SERVER|10=166|
2022-01-09 13:19:37,143 : (Admin) R << 8=FIX.4.3|9=56|35=0|34=89|49=CLIENT|52=20220109-19:19:37.000|56=SERVER|10=170|
2022-01-09 13:19:37,143 : (Admin) S >> 8=FIX.4.3|9=56|35=0|34=89|49=SERVER|52=20220109-19:19:37.000|56=CLIENT|10=170|
2022-01-09 13:20:07,022 : (Admin) R << 8=FIX.4.3|9=56|35=0|34=90|49=CLIENT|52=20220109-19:20:07.000|56=SERVER|10=151|
2022-01-09 13:20:07,023 : (Admin) S >> 8=FIX.4.3|9=56|35=0|34=90|49=SERVER|52=20220109-19:20:07.000|56=CLIENT|10=151|
2022-01-09 13:20:37,257 : (Admin) R << 8=FIX.4.3|9=56|35=0|34=91|49=CLIENT|52=20220109-19:20:37.000|56=SERVER|10=155|
2022-01-09 13:20:37,257 : (Admin) S >> 8=FIX.4.3|9=56|35=0|34=91|49=SERVER|52=20220109-19:20:37.000|56=CLIENT|10=155|
2022-01-09 13:21:07,437 : (Admin) R << 8=FIX.4.3|9=56|35=0|34=92|49=CLIENT|52=20220109-19:21:07.000|56=SERVER|10=154|
2022-01-09 13:21:07,438 : (Admin) S >> 8=FIX.4.3|9=56|35=0|34=92|49=SERVER|52=20220109-19:21:07.000|56=CLIENT|10=154|
2022-01-09 13:21:37,251 : (Admin) R << 8=FIX.4.3|9=56|35=0|34=93|49=CLIENT|52=20220109-19:21:37.000|56=SERVER|10=158|
2022-01-09 13:21:37,251 : (Admin) S >> 8=FIX.4.3|9=56|35=0|34=93|49=SERVER|52=20220109-19:21:37.000|56=CLIENT|10=158|
2022-01-09 13:22:07,197 : (Admin) R << 8=FIX.4.3|9=56|35=0|34=94|49=CLIENT|52=20220109-19:22:07.000|56=SERVER|10=157|
2022-01-09 13:22:07,197 : (Admin) S >> 8=FIX.4.3|9=56|35=0|34=94|49=SERVER|52=20220109-19:22:07.000|56=CLIENT|10=157|
2022-01-09 13:22:37,020 : (Admin) S >> 8=FIX.4.3|9=56|35=0|34=95|49=SERVER|52=20220109-19:22:37.000|56=CLIENT|10=161|
2022-01-09 13:22:37,024 : (Admin) R << 8=FIX.4.3|9=56|35=0|34=95|49=CLIENT|52=20220109-19:22:37.000|56=SERVER|10=161|
2022-01-09 13:23:07,432 : (Admin) R << 8=FIX.4.3|9=56|35=0|34=96|49=CLIENT|52=20220109-19:23:07.000|56=SERVER|10=160|
2022-01-09 13:23:07,432 : (Admin) S >> 8=FIX.4.3|9=56|35=0|34=96|49=SERVER|52=20220109-19:23:07.000|56=CLIENT|10=160|
2022-01-09 13:23:37,036 : (Admin) R << 8=FIX.4.3|9=56|35=0|34=97|49=CLIENT|52=20220109-19:23:37.000|56=SERVER|10=164|
2022-01-09 13:23:37,036 : (Admin) S >> 8=FIX.4.3|9=56|35=0|34=97|49=SERVER|52=20220109-19:23:37.000|56=CLIENT|10=164|
2022-01-09 13:24:07,013 : (Admin) R << 8=FIX.4.3|9=56|35=0|34=98|49=CLIENT|52=20220109-19:24:07.000|56=SERVER|10=163|
2022-01-09 13:24:07,013 : (Admin) S >> 8=FIX.4.3|9=56|35=0|34=98|49=SERVER|52=20220109-19:24:07.000|56=CLIENT|10=163|
2022-01-09 13:24:37,055 : (Admin) R << 8=FIX.4.3|9=56|35=0|34=99|49=CLIENT|52=20220109-19:24:37.000|56=SERVER|10=167|
2022-01-09 13:24:37,055 : (Admin) S >> 8=FIX.4.3|9=56|35=0|34=99|49=SERVER|52=20220109-19:24:37.000|56=CLIENT|10=167|
2022-01-09 13:24:46,231 : (Admin) R << 8=FIX.4.3|9=73|35=A|34=1|49=CLIENT|52=20220109-19:24:46.000|56=SERVER|98=0|108=30|141=Y|10=188|
2022-01-09 13:24:46,231 : (Admin) S >> 8=FIX.4.3|9=73|35=A|34=1|49=SERVER|52=20220109-19:24:46.000|56=CLIENT|98=0|108=30|141=Y|10=188|
2022-01-09 13:24:47,090 : (App) R << 8=FIX.4.3|9=151|35=D|34=2|49=CLIENT|52=20220109-19:24:47.000|56=SERVER|11=00001|21=3|38=10000|40=2|44=100|54=1|55=MSFT|58=NewOrderSingle|59=0|60=20220109-19:24:47.090|10=082|
2022-01-09 13:24:47,091 : (App) S >> 8=FIX.4.3|9=152|35=8|34=2|49=SERVER|52=20220109-19:24:47.000|56=CLIENT|6=100|11=00001|14=10000|17=00022|31=100|32=10000|37=00022|38=10000|39=2|54=1|55=MSFT|150=2|151=0|10=255|
2022-01-09 13:24:49,748 : (App) R << 8=FIX.4.3|9=151|35=D|34=3|49=CLIENT|52=20220109-19:24:49.000|56=SERVER|11=00002|21=3|38=10000|40=2|44=100|54=2|55=MSFT|58=NewOrderSingle|59=0|60=20220109-19:24:49.747|10=098|
2022-01-09 13:24:49,748 : (App) S >> 8=FIX.4.3|9=152|35=8|34=3|49=SERVER|52=20220109-19:24:49.000|56=CLIENT|6=100|11=00002|14=10000|17=00023|31=100|32=10000|37=00023|38=10000|39=2|54=2|55=MSFT|150=2|151=0|10=006|
2022-01-09 13:25:19,648 : (Admin) S >> 8=FIX.4.3|9=55|35=0|34=4|49=SERVER|52=20220109-19:25:19.000|56=CLIENT|10=105|
2022-01-09 13:25:19,649 : (Admin) R << 8=FIX.4.3|9=55|35=0|34=4|49=CLIENT|52=20220109-19:25:19.000|56=SERVER|10=105|
2022-01-09 13:25:49,473 : (Admin) S >> 8=FIX.4.3|9=55|35=0|34=5|49=SERVER|52=20220109-19:25:49.000|56=CLIENT|10=109|
2022-01-09 13:25:49,473 : (Admin) R << 8=FIX.4.3|9=55|35=0|34=5|49=CLIENT|52=20220109-19:25:49.000|56=SERVER|10=109|
2022-01-09 13:26:19,196 : (Admin) S >> 8=FIX.4.3|9=55|35=0|34=6|49=SERVER|52=20220109-19:26:19.000|56=CLIENT|10=108|
2022-01-09 13:26:19,198 : (Admin) R << 8=FIX.4.3|9=55|35=0|34=6|49=CLIENT|52=20220109-19:26:19.000|56=SERVER|10=108|
2022-01-09 13:26:49,561 : (Admin) S >> 8=FIX.4.3|9=55|35=0|34=7|49=SERVER|52=20220109-19:26:49.000|56=CLIENT|10=112|
2022-01-09 13:26:49,565 : (Admin) R << 8=FIX.4.3|9=55|35=0|34=7|49=CLIENT|52=20220109-19:26:49.000|56=SERVER|10=112|
2022-01-09 13:27:19,094 : (Admin) R << 8=FIX.4.3|9=55|35=0|34=8|49=CLIENT|52=20220109-19:27:19.000|56=SERVER|10=111|
2022-01-09 13:27:19,094 : (Admin) S >> 8=FIX.4.3|9=55|35=0|34=8|49=SERVER|52=20220109-19:27:19.000|56=CLIENT|10=111|
2022-01-09 13:27:49,400 : (Admin) R << 8=FIX.4.3|9=55|35=0|34=9|49=CLIENT|52=20220109-19:27:49.000|56=SERVER|10=115|
2022-01-09 13:27:49,400 : (Admin) S >> 8=FIX.4.3|9=55|35=0|34=9|49=SERVER|52=20220109-19:27:49.000|56=CLIENT|10=115|
2022-01-09 13:28:19,495 : (Admin) R << 8=FIX.4.3|9=56|35=0|34=10|49=CLIENT|52=20220109-19:28:19.000|56=SERVER|10=154|
2022-01-09 13:28:19,495 : (Admin) S >> 8=FIX.4.3|9=56|35=0|34=10|49=SERVER|52=20220109-19:28:19.000|56=CLIENT|10=154|
2022-01-09 13:28:49,402 : (Admin) R << 8=FIX.4.3|9=56|35=0|34=11|49=CLIENT|52=20220109-19:28:49.000|56=SERVER|10=158|
2022-01-09 13:28:49,403 : (Admin) S >> 8=FIX.4.3|9=56|35=0|34=11|49=SERVER|52=20220109-19:28:49.000|56=CLIENT|10=158|
2022-01-09 13:29:19,216 : (Admin) R << 8=FIX.4.3|9=56|35=0|34=12|49=CLIENT|52=20220109-19:29:19.000|56=SERVER|10=157|
2022-01-09 13:29:19,216 : (Admin) S >> 8=FIX.4.3|9=56|35=0|34=12|49=SERVER|52=20220109-19:29:19.000|56=CLIENT|10=157|
2022-01-09 13:29:49,682 : (Admin) S >> 8=FIX.4.3|9=56|35=0|34=13|49=SERVER|52=20220109-19:29:49.000|56=CLIENT|10=161|
2022-01-09 13:29:49,684 : (Admin) R << 8=FIX.4.3|9=56|35=0|34=13|49=CLIENT|52=20220109-19:29:49.000|56=SERVER|10=161|
2022-01-09 13:30:19,065 : (Admin) S >> 8=FIX.4.3|9=56|35=0|34=14|49=SERVER|52=20220109-19:30:19.000|56=CLIENT|10=151|
2022-01-09 13:30:19,067 : (Admin) R << 8=FIX.4.3|9=56|35=0|34=14|49=CLIENT|52=20220109-19:30:19.000|56=SERVER|10=151|
2022-01-09 13:30:49,008 : (Admin) S >> 8=FIX.4.3|9=56|35=0|34=15|49=SERVER|52=20220109-19:30:49.000|56=CLIENT|10=155|
2022-01-09 13:30:49,014 : (Admin) R << 8=FIX.4.3|9=56|35=0|34=15|49=CLIENT|52=20220109-19:30:49.000|56=SERVER|10=155|
2022-01-09 13:31:19,264 : (Admin) R << 8=FIX.4.3|9=56|35=0|34=16|49=CLIENT|52=20220109-19:31:19.000|56=SERVER|10=154|
2022-01-09 13:31:19,265 : (Admin) S >> 8=FIX.4.3|9=56|35=0|34=16|49=SERVER|52=20220109-19:31:19.000|56=CLIENT|10=154|
2022-01-09 13:31:49,339 : (Admin) R << 8=FIX.4.3|9=56|35=0|34=17|49=CLIENT|52=20220109-19:31:49.000|56=SERVER|10=158|
2022-01-09 13:31:49,340 : (Admin) S >> 8=FIX.4.3|9=56|35=0|34=17|49=SERVER|52=20220109-19:31:49.000|56=CLIENT|10=158|
2022-01-09 13:32:19,243 : (Admin) R << 8=FIX.4.3|9=56|35=0|34=18|49=CLIENT|52=20220109-19:32:19.000|56=SERVER|10=157|
2022-01-09 13:32:19,244 : (Admin) S >> 8=FIX.4.3|9=56|35=0|34=18|49=SERVER|52=20220109-19:32:19.000|56=CLIENT|10=157|
2022-01-09 13:32:49,671 : (Admin) S >> 8=FIX.4.3|9=56|35=0|34=19|49=SERVER|52=20220109-19:32:49.000|56=CLIENT|10=161|
2022-01-09 13:32:49,675 : (Admin) R << 8=FIX.4.3|9=56|35=0|34=19|49=CLIENT|52=20220109-19:32:49.000|56=SERVER|10=161|
2022-01-09 13:33:19,002 : (Admin) S >> 8=FIX.4.3|9=56|35=0|34=20|49=SERVER|52=20220109-19:33:19.000|56=CLIENT|10=151|
2022-01-09 13:33:19,007 : (Admin) R << 8=FIX.4.3|9=56|35=0|34=20|49=CLIENT|52=20220109-19:33:19.000|56=SERVER|10=151|
2022-01-09 13:33:49,317 : (Admin) R << 8=FIX.4.3|9=56|35=0|34=21|49=CLIENT|52=20220109-19:33:49.000|56=SERVER|10=155|
2022-01-09 13:33:49,318 : (Admin) S >> 8=FIX.4.3|9=56|35=0|34=21|49=SERVER|52=20220109-19:33:49.000|56=CLIENT|10=155|
2022-01-09 13:34:19,400 : (Admin) R << 8=FIX.4.3|9=56|35=0|34=22|49=CLIENT|52=20220109-19:34:19.000|56=SERVER|10=154|
2022-01-09 13:34:19,401 : (Admin) S >> 8=FIX.4.3|9=56|35=0|34=22|49=SERVER|52=20220109-19:34:19.000|56=CLIENT|10=154|
2022-01-09 13:34:49,292 : (Admin) S >> 8=FIX.4.3|9=56|35=0|34=23|49=SERVER|52=20220109-19:34:49.000|56=CLIENT|10=158|
2022-01-09 13:34:49,293 : (Admin) R << 8=FIX.4.3|9=56|35=0|34=23|49=CLIENT|52=20220109-19:34:49.000|56=SERVER|10=158|
2022-01-09 13:35:19,566 : (Admin) S >> 8=FIX.4.3|9=56|35=0|34=24|49=SERVER|52=20220109-19:35:19.000|56=CLIENT|10=157|
2022-01-09 13:35:19,569 : (Admin) R << 8=FIX.4.3|9=56|35=0|34=24|49=CLIENT|52=20220109-19:35:19.000|56=SERVER|10=157|
2022-01-09 13:35:49,065 : (Admin) R << 8=FIX.4.3|9=56|35=0|34=25|49=CLIENT|52=20220109-19:35:49.000|56=SERVER|10=161|
2022-01-09 13:35:49,066 : (Admin) S >> 8=FIX.4.3|9=56|35=0|34=25|49=SERVER|52=20220109-19:35:49.000|56=CLIENT|10=161|
2022-01-09 13:36:19,236 : (Admin) R << 8=FIX.4.3|9=56|35=0|34=26|49=CLIENT|52=20220109-19:36:19.000|56=SERVER|10=160|
2022-01-09 13:36:19,237 : (Admin) S >> 8=FIX.4.3|9=56|35=0|34=26|49=SERVER|52=20220109-19:36:19.000|56=CLIENT|10=160|
2022-01-09 13:36:49,070 : (Admin) S >> 8=FIX.4.3|9=56|35=0|34=27|49=SERVER|52=20220109-19:36:49.000|56=CLIENT|10=164|
2022-01-09 13:36:49,071 : (Admin) R << 8=FIX.4.3|9=56|35=0|34=27|49=CLIENT|52=20220109-19:36:49.000|56=SERVER|10=164|
2022-01-09 13:37:19,283 : (Admin) S >> 8=FIX.4.3|9=56|35=0|34=28|49=SERVER|52=20220109-19:37:19.000|56=CLIENT|10=163|
2022-01-09 13:37:19,284 : (Admin) R << 8=FIX.4.3|9=56|35=0|34=28|49=CLIENT|52=20220109-19:37:19.000|56=SERVER|10=163|
2022-01-09 13:37:49,261 : (Admin) S >> 8=FIX.4.3|9=56|35=0|34=29|49=SERVER|52=20220109-19:37:49.000|56=CLIENT|10=167|
2022-01-09 13:37:49,261 : (Admin) R << 8=FIX.4.3|9=56|35=0|34=29|49=CLIENT|52=20220109-19:37:49.000|56=SERVER|10=167|
2022-01-09 13:38:00,162 : (Admin) R << 8=FIX.4.3|9=73|35=A|34=1|49=CLIENT|52=20220109-19:38:00.000|56=SERVER|98=0|108=30|141=Y|10=183|
2022-01-09 13:38:00,162 : (Admin) S >> 8=FIX.4.3|9=73|35=A|34=1|49=SERVER|52=20220109-19:38:00.000|56=CLIENT|98=0|108=30|141=Y|10=183|
2022-01-09 13:38:01,309 : (App) R << 8=FIX.4.3|9=151|35=D|34=2|49=CLIENT|52=20220109-19:38:01.000|56=SERVER|11=00001|21=3|38=10000|40=2|44=100|54=1|55=MSFT|58=NewOrderSingle|59=0|60=20220109-19:38:01.308|10=074|
2022-01-09 13:38:01,309 : (App) S >> 8=FIX.4.3|9=152|35=8|34=2|49=SERVER|52=20220109-19:38:01.000|56=CLIENT|6=100|11=00001|14=10000|17=00024|31=100|32=10000|37=00024|38=10000|39=2|54=1|55=MSFT|150=2|151=0|10=254|
2022-01-09 13:38:02,588 : (App) R << 8=FIX.4.3|9=151|35=D|34=3|49=CLIENT|52=20220109-19:38:02.000|56=SERVER|11=00002|21=3|38=10000|40=2|44=100|54=2|55=MSFT|58=NewOrderSingle|59=0|60=20220109-19:38:02.587|10=088|
2022-01-09 13:38:02,588 : (App) S >> 8=FIX.4.3|9=152|35=8|34=3|49=SERVER|52=20220109-19:38:02.000|56=CLIENT|6=100|11=00002|14=10000|17=00025|31=100|32=10000|37=00025|38=10000|39=2|54=2|55=MSFT|150=2|151=0|10=004|
2022-01-09 13:38:32,125 : (Admin) S >> 8=FIX.4.3|9=55|35=0|34=4|49=SERVER|52=20220109-19:38:32.000|56=CLIENT|10=104|
2022-01-09 13:38:32,129 : (Admin) R << 8=FIX.4.3|9=55|35=0|34=4|49=CLIENT|52=20220109-19:38:32.000|56=SERVER|10=104|
2022-01-09 13:39:02,612 : (Admin) S >> 8=FIX.4.3|9=55|35=0|34=5|49=SERVER|52=20220109-19:39:02.000|56=CLIENT|10=103|
2022-01-09 13:39:02,614 : (Admin) R << 8=FIX.4.3|9=55|35=0|34=5|49=CLIENT|52=20220109-19:39:02.000|56=SERVER|10=103|
2022-01-09 13:39:32,092 : (Admin) S >> 8=FIX.4.3|9=55|35=0|34=6|49=SERVER|52=20220109-19:39:32.000|56=CLIENT|10=107|
2022-01-09 13:39:32,092 : (Admin) R << 8=FIX.4.3|9=55|35=0|34=6|49=CLIENT|52=20220109-19:39:32.000|56=SERVER|10=107|
2022-01-09 13:40:02,096 : (Admin) S >> 8=FIX.4.3|9=55|35=0|34=7|49=SERVER|52=20220109-19:40:02.000|56=CLIENT|10=097|
2022-01-09 13:40:02,096 : (Admin) R << 8=FIX.4.3|9=55|35=0|34=7|49=CLIENT|52=20220109-19:40:02.000|56=SERVER|10=097|
2022-01-09 13:40:32,555 : (Admin) S >> 8=FIX.4.3|9=55|35=0|34=8|49=SERVER|52=20220109-19:40:32.000|56=CLIENT|10=101|
2022-01-09 13:40:32,556 : (Admin) R << 8=FIX.4.3|9=55|35=0|34=8|49=CLIENT|52=20220109-19:40:32.000|56=SERVER|10=101|
2022-01-09 13:40:46,341 : (Admin) R << 8=FIX.4.3|9=73|35=A|34=1|49=CLIENT|52=20220109-19:40:46.000|56=SERVER|98=0|108=30|141=Y|10=186|
2022-01-09 13:40:46,341 : (Admin) S >> 8=FIX.4.3|9=73|35=A|34=1|49=SERVER|52=20220109-19:40:46.000|56=CLIENT|98=0|108=30|141=Y|10=186|
2022-01-09 13:40:47,075 : (App) R << 8=FIX.4.3|9=151|35=D|34=2|49=CLIENT|52=20220109-19:40:47.000|56=SERVER|11=00001|21=3|38=10000|40=2|44=100|54=1|55=MSFT|58=NewOrderSingle|59=0|60=20220109-19:40:47.075|10=081|
2022-01-09 13:40:47,075 : (App) S >> 8=FIX.4.3|9=152|35=8|34=2|49=SERVER|52=20220109-19:40:47.000|56=CLIENT|6=100|11=00001|14=10000|17=00026|31=100|32=10000|37=00026|38=10000|39=2|54=1|55=MSFT|150=2|151=0|10=005|
2022-01-09 13:40:51,569 : (App) R << 8=FIX.4.3|9=151|35=D|34=3|49=CLIENT|52=20220109-19:40:51.000|56=SERVER|11=00002|21=3|38=10000|40=2|44=100|54=2|55=MSFT|58=NewOrderSingle|59=0|60=20220109-19:40:51.568|10=081|
2022-01-09 13:40:51,570 : (App) S >> 8=FIX.4.3|9=152|35=8|34=3|49=SERVER|52=20220109-19:40:51.000|56=CLIENT|6=100|11=00002|14=10000|17=00027|31=100|32=10000|37=00027|38=10000|39=2|54=2|55=MSFT|150=2|151=0|10=005|
2022-01-09 13:41:21,456 : (Admin) R << 8=FIX.4.3|9=55|35=0|34=4|49=CLIENT|52=20220109-19:41:21.000|56=SERVER|10=096|
2022-01-09 13:41:21,456 : (Admin) S >> 8=FIX.4.3|9=55|35=0|34=4|49=SERVER|52=20220109-19:41:21.000|56=CLIENT|10=096|
2022-01-09 13:41:36,158 : (Admin) R << 8=FIX.4.3|9=73|35=A|34=1|49=CLIENT|52=20220109-19:41:36.000|56=SERVER|98=0|108=30|141=Y|10=186|
2022-01-09 13:41:36,158 : (Admin) S >> 8=FIX.4.3|9=73|35=A|34=1|49=SERVER|52=20220109-19:41:36.000|56=CLIENT|98=0|108=30|141=Y|10=186|
2022-01-09 13:41:36,913 : (App) R << 8=FIX.4.3|9=151|35=D|34=2|49=CLIENT|52=20220109-19:41:36.000|56=SERVER|11=00001|21=3|38=10000|40=2|44=100|54=1|55=MSFT|58=NewOrderSingle|59=0|60=20220109-19:41:36.913|10=080|
2022-01-09 13:41:36,913 : (App) S >> 8=FIX.4.3|9=152|35=8|34=2|49=SERVER|52=20220109-19:41:36.000|56=CLIENT|6=100|11=00001|14=10000|17=00028|31=100|32=10000|37=00028|38=10000|39=2|54=1|55=MSFT|150=2|151=0|10=008|
2022-01-09 13:41:58,420 : (Admin) R << 8=FIX.4.3|9=73|35=A|34=1|49=CLIENT|52=20220109-19:41:58.000|56=SERVER|98=0|108=30|141=Y|10=190|
2022-01-09 13:41:58,420 : (Admin) S >> 8=FIX.4.3|9=73|35=A|34=1|49=SERVER|52=20220109-19:41:58.000|56=CLIENT|98=0|108=30|141=Y|10=190|
2022-01-09 13:41:59,347 : (App) R << 8=FIX.4.3|9=151|35=D|34=2|49=CLIENT|52=20220109-19:41:59.000|56=SERVER|11=00001|21=3|38=10000|40=2|44=100|54=1|55=MSFT|58=NewOrderSingle|59=0|60=20220109-19:41:59.346|10=090|
2022-01-09 13:41:59,347 : (App) S >> 8=FIX.4.3|9=152|35=8|34=2|49=SERVER|52=20220109-19:41:59.000|56=CLIENT|6=100|11=00001|14=10000|17=00029|31=100|32=10000|37=00029|38=10000|39=2|54=1|55=MSFT|150=2|151=0|10=015|
2022-01-09 13:42:09,040 : (App) R << 8=FIX.4.3|9=151|35=D|34=3|49=CLIENT|52=20220109-19:42:09.000|56=SERVER|11=00002|21=3|38=10000|40=2|44=100|54=2|55=MSFT|58=NewOrderSingle|59=0|60=20220109-19:42:09.039|10=084|
2022-01-09 13:42:09,041 : (App) S >> 8=FIX.4.3|9=152|35=8|34=3|49=SERVER|52=20220109-19:42:09.000|56=CLIENT|6=100|11=00002|14=10000|17=00030|31=100|32=10000|37=00030|38=10000|39=2|54=2|55=MSFT|150=2|151=0|10=254|
2022-01-09 13:42:39,565 : (Admin) S >> 8=FIX.4.3|9=55|35=0|34=4|49=SERVER|52=20220109-19:42:39.000|56=CLIENT|10=106|
2022-01-09 13:42:39,569 : (Admin) R << 8=FIX.4.3|9=55|35=0|34=4|49=CLIENT|52=20220109-19:42:39.000|56=SERVER|10=106|
2022-01-09 13:42:50,848 : (Admin) R << 8=FIX.4.3|9=73|35=A|34=1|49=CLIENT|52=20220109-19:42:50.000|56=SERVER|98=0|108=30|141=Y|10=183|
2022-01-09 13:42:50,849 : (Admin) S >> 8=FIX.4.3|9=73|35=A|34=1|49=SERVER|52=20220109-19:42:50.000|56=CLIENT|98=0|108=30|141=Y|10=183|
2022-01-09 13:42:51,527 : (App) R << 8=FIX.4.3|9=151|35=D|34=2|49=CLIENT|52=20220109-19:42:51.000|56=SERVER|11=00001|21=3|38=10000|40=2|44=100|54=1|55=MSFT|58=NewOrderSingle|59=0|60=20220109-19:42:51.527|10=077|
2022-01-09 13:42:51,528 : (App) S >> 8=FIX.4.3|9=152|35=8|34=2|49=SERVER|52=20220109-19:42:51.000|56=CLIENT|6=100|11=00001|14=10000|17=00031|31=100|32=10000|37=00031|38=10000|39=2|54=1|55=MSFT|150=2|151=0|10=250|
2022-01-09 13:43:21,518 : (Admin) S >> 8=FIX.4.3|9=55|35=0|34=3|49=SERVER|52=20220109-19:43:21.000|56=CLIENT|10=097|
2022-01-09 13:43:21,519 : (Admin) R << 8=FIX.4.3|9=55|35=0|34=3|49=CLIENT|52=20220109-19:43:21.000|56=SERVER|10=097|
2022-01-09 13:43:51,178 : (Admin) S >> 8=FIX.4.3|9=55|35=0|34=4|49=SERVER|52=20220109-19:43:51.000|56=CLIENT|10=101|
2022-01-09 13:43:51,181 : (Admin) R << 8=FIX.4.3|9=55|35=0|34=4|49=CLIENT|52=20220109-19:43:51.000|56=SERVER|10=101|
2022-01-09 13:44:21,427 : (Admin) S >> 8=FIX.4.3|9=55|35=0|34=5|49=SERVER|52=20220109-19:44:21.000|56=CLIENT|10=100|
2022-01-09 13:44:21,431 : (Admin) R << 8=FIX.4.3|9=55|35=0|34=5|49=CLIENT|52=20220109-19:44:21.000|56=SERVER|10=100|
2022-01-09 13:44:51,019 : (Admin) R << 8=FIX.4.3|9=55|35=0|34=6|49=CLIENT|52=20220109-19:44:51.000|56=SERVER|10=104|
2022-01-09 13:44:51,020 : (Admin) S >> 8=FIX.4.3|9=55|35=0|34=6|49=SERVER|52=20220109-19:44:51.000|56=CLIENT|10=104|
2022-01-09 13:45:21,242 : (Admin) S >> 8=FIX.4.3|9=55|35=0|34=7|49=SERVER|52=20220109-19:45:21.000|56=CLIENT|10=103|
2022-01-09 13:45:21,246 : (Admin) R << 8=FIX.4.3|9=55|35=0|34=7|49=CLIENT|52=20220109-19:45:21.000|56=SERVER|10=103|
2022-01-09 13:45:51,379 : (Admin) S >> 8=FIX.4.3|9=55|35=0|34=8|49=SERVER|52=20220109-19:45:51.000|56=CLIENT|10=107|
2022-01-09 13:45:51,383 : (Admin) R << 8=FIX.4.3|9=55|35=0|34=8|49=CLIENT|52=20220109-19:45:51.000|56=SERVER|10=107|
2022-01-09 13:46:40,961 : (Admin) R << 8=FIX.4.3|9=73|35=A|34=1|49=CLIENT|52=20220109-19:46:40.000|56=SERVER|98=0|108=30|141=Y|10=186|
2022-01-09 13:46:40,961 : (Admin) S >> 8=FIX.4.3|9=73|35=A|34=1|49=SERVER|52=20220109-19:46:40.000|56=CLIENT|98=0|108=30|141=Y|10=186|
2022-01-09 13:46:42,464 : (App) R << 8=FIX.4.3|9=151|35=D|34=2|49=CLIENT|52=20220109-19:46:42.000|56=SERVER|11=00001|21=3|38=10000|40=2|44=100|54=1|55=MSFT|58=NewOrderSingle|59=0|60=20220109-19:46:42.464|10=085|
2022-01-09 13:46:42,464 : (App) S >> 8=FIX.4.3|9=152|35=8|34=2|49=SERVER|52=20220109-19:46:42.000|56=CLIENT|6=100|11=00001|14=10000|17=00032|31=100|32=10000|37=00032|38=10000|39=2|54=1|55=MSFT|150=2|151=0|10=000|
2022-01-09 13:46:43,729 : (App) R << 8=FIX.4.3|9=151|35=D|34=3|49=CLIENT|52=20220109-19:46:43.000|56=SERVER|11=00002|21=3|38=10000|40=2|44=100|54=2|55=MSFT|58=NewOrderSingle|59=0|60=20220109-19:46:43.728|10=093|
2022-01-09 13:46:43,730 : (App) S >> 8=FIX.4.3|9=152|35=8|34=3|49=SERVER|52=20220109-19:46:43.000|56=CLIENT|6=100|11=00002|14=10000|17=00033|31=100|32=10000|37=00033|38=10000|39=2|54=2|55=MSFT|150=2|151=0|10=006|
2022-01-09 13:47:13,070 : (Admin) S >> 8=FIX.4.3|9=55|35=0|34=4|49=SERVER|52=20220109-19:47:13.000|56=CLIENT|10=103|
2022-01-09 13:47:13,071 : (Admin) R << 8=FIX.4.3|9=55|35=0|34=4|49=CLIENT|52=20220109-19:47:13.000|56=SERVER|10=103|
2022-01-09 13:47:43,129 : (Admin) S >> 8=FIX.4.3|9=55|35=0|34=5|49=SERVER|52=20220109-19:47:43.000|56=CLIENT|10=107|
2022-01-09 13:47:43,131 : (Admin) R << 8=FIX.4.3|9=55|35=0|34=5|49=CLIENT|52=20220109-19:47:43.000|56=SERVER|10=107|
2022-01-09 13:48:13,024 : (Admin) S >> 8=FIX.4.3|9=55|35=0|34=6|49=SERVER|52=20220109-19:48:13.000|56=CLIENT|10=106|
2022-01-09 13:48:13,027 : (Admin) R << 8=FIX.4.3|9=55|35=0|34=6|49=CLIENT|52=20220109-19:48:13.000|56=SERVER|10=106|
2022-01-09 13:48:43,203 : (Admin) S >> 8=FIX.4.3|9=55|35=0|34=7|49=SERVER|52=20220109-19:48:43.000|56=CLIENT|10=110|
2022-01-09 13:48:43,206 : (Admin) R << 8=FIX.4.3|9=55|35=0|34=7|49=CLIENT|52=20220109-19:48:43.000|56=SERVER|10=110|
2022-01-09 13:49:13,101 : (Admin) S >> 8=FIX.4.3|9=55|35=0|34=8|49=SERVER|52=20220109-19:49:13.000|56=CLIENT|10=109|
2022-01-09 13:49:13,105 : (Admin) R << 8=FIX.4.3|9=55|35=0|34=8|49=CLIENT|52=20220109-19:49:13.000|56=SERVER|10=109|
2022-01-09 13:49:43,112 : (Admin) S >> 8=FIX.4.3|9=55|35=0|34=9|49=SERVER|52=20220109-19:49:43.000|56=CLIENT|10=113|
2022-01-09 13:49:43,117 : (Admin) R << 8=FIX.4.3|9=55|35=0|34=9|49=CLIENT|52=20220109-19:49:43.000|56=SERVER|10=113|
2022-01-09 13:50:13,069 : (Admin) R << 8=FIX.4.3|9=56|35=0|34=10|49=CLIENT|52=20220109-19:50:13.000|56=SERVER|10=143|
2022-01-09 13:50:13,069 : (Admin) S >> 8=FIX.4.3|9=56|35=0|34=10|49=SERVER|52=20220109-19:50:13.000|56=CLIENT|10=143|
2022-01-09 13:50:43,225 : (Admin) S >> 8=FIX.4.3|9=56|35=0|34=11|49=SERVER|52=20220109-19:50:43.000|56=CLIENT|10=147|
2022-01-09 13:50:43,229 : (Admin) R << 8=FIX.4.3|9=56|35=0|34=11|49=CLIENT|52=20220109-19:50:43.000|56=SERVER|10=147|
2022-01-09 13:51:13,329 : (Admin) S >> 8=FIX.4.3|9=56|35=0|34=12|49=SERVER|52=20220109-19:51:13.000|56=CLIENT|10=146|
2022-01-09 13:51:13,333 : (Admin) R << 8=FIX.4.3|9=56|35=0|34=12|49=CLIENT|52=20220109-19:51:13.000|56=SERVER|10=146|
2022-01-09 13:51:43,334 : (Admin) S >> 8=FIX.4.3|9=56|35=0|34=13|49=SERVER|52=20220109-19:51:43.000|56=CLIENT|10=150|
2022-01-09 13:51:43,338 : (Admin) R << 8=FIX.4.3|9=56|35=0|34=13|49=CLIENT|52=20220109-19:51:43.000|56=SERVER|10=150|
2022-01-09 13:52:13,126 : (Admin) S >> 8=FIX.4.3|9=56|35=0|34=14|49=SERVER|52=20220109-19:52:13.000|56=CLIENT|10=149|
2022-01-09 13:52:13,130 : (Admin) R << 8=FIX.4.3|9=56|35=0|34=14|49=CLIENT|52=20220109-19:52:13.000|56=SERVER|10=149|
2022-01-09 13:52:43,078 : (Admin) R << 8=FIX.4.3|9=56|35=0|34=15|49=CLIENT|52=20220109-19:52:43.000|56=SERVER|10=153|
2022-01-09 13:52:43,078 : (Admin) S >> 8=FIX.4.3|9=56|35=0|34=15|49=SERVER|52=20220109-19:52:43.000|56=CLIENT|10=153|
2022-01-09 13:53:13,179 : (Admin) S >> 8=FIX.4.3|9=56|35=0|34=16|49=SERVER|52=20220109-19:53:13.000|56=CLIENT|10=152|
2022-01-09 13:53:13,182 : (Admin) R << 8=FIX.4.3|9=56|35=0|34=16|49=CLIENT|52=20220109-19:53:13.000|56=SERVER|10=152|
2022-01-09 13:53:43,143 : (Admin) S >> 8=FIX.4.3|9=56|35=0|34=17|49=SERVER|52=20220109-19:53:43.000|56=CLIENT|10=156|
2022-01-09 13:53:43,147 : (Admin) R << 8=FIX.4.3|9=56|35=0|34=17|49=CLIENT|52=20220109-19:53:43.000|56=SERVER|10=156|
2022-01-09 13:54:13,163 : (Admin) S >> 8=FIX.4.3|9=56|35=0|34=18|49=SERVER|52=20220109-19:54:13.000|56=CLIENT|10=155|
2022-01-09 13:54:13,168 : (Admin) R << 8=FIX.4.3|9=56|35=0|34=18|49=CLIENT|52=20220109-19:54:13.000|56=SERVER|10=155|
2022-01-09 13:54:43,235 : (Admin) R << 8=FIX.4.3|9=56|35=0|34=19|49=CLIENT|52=20220109-19:54:43.000|56=SERVER|10=159|
2022-01-09 13:54:43,235 : (Admin) S >> 8=FIX.4.3|9=56|35=0|34=19|49=SERVER|52=20220109-19:54:43.000|56=CLIENT|10=159|
2022-01-09 13:55:13,059 : (Admin) R << 8=FIX.4.3|9=56|35=0|34=20|49=CLIENT|52=20220109-19:55:13.000|56=SERVER|10=149|
2022-01-09 13:55:13,060 : (Admin) S >> 8=FIX.4.3|9=56|35=0|34=20|49=SERVER|52=20220109-19:55:13.000|56=CLIENT|10=149|
2022-01-09 13:55:43,090 : (Admin) S >> 8=FIX.4.3|9=56|35=0|34=21|49=SERVER|52=20220109-19:55:43.000|56=CLIENT|10=153|
2022-01-09 13:55:43,094 : (Admin) R << 8=FIX.4.3|9=56|35=0|34=21|49=CLIENT|52=20220109-19:55:43.000|56=SERVER|10=153|
2022-01-09 13:56:13,199 : (Admin) S >> 8=FIX.4.3|9=56|35=0|34=22|49=SERVER|52=20220109-19:56:13.000|56=CLIENT|10=152|
2022-01-09 13:56:13,200 : (Admin) R << 8=FIX.4.3|9=56|35=0|34=22|49=CLIENT|52=20220109-19:56:13.000|56=SERVER|10=152|
2022-01-09 13:56:43,164 : (Admin) S >> 8=FIX.4.3|9=56|35=0|34=23|49=SERVER|52=20220109-19:56:43.000|56=CLIENT|10=156|
2022-01-09 13:56:43,165 : (Admin) R << 8=FIX.4.3|9=56|35=0|34=23|49=CLIENT|52=20220109-19:56:43.000|56=SERVER|10=156|
2022-01-09 13:57:13,098 : (Admin) S >> 8=FIX.4.3|9=56|35=0|34=24|49=SERVER|52=20220109-19:57:13.000|56=CLIENT|10=155|
2022-01-09 13:57:13,100 : (Admin) R << 8=FIX.4.3|9=56|35=0|34=24|49=CLIENT|52=20220109-19:57:13.000|56=SERVER|10=155|
2022-01-09 13:57:36,190 : (Admin) R << 8=FIX.4.3|9=73|35=A|34=1|49=CLIENT|52=20220109-19:57:36.000|56=SERVER|98=0|108=30|141=Y|10=193|
2022-01-09 13:57:36,190 : (Admin) S >> 8=FIX.4.3|9=73|35=A|34=1|49=SERVER|52=20220109-19:57:36.000|56=CLIENT|98=0|108=30|141=Y|10=193|
2022-01-09 13:57:37,116 : (App) R << 8=FIX.4.3|9=151|35=D|34=2|49=CLIENT|52=20220109-19:57:37.000|56=SERVER|11=00001|21=3|38=10000|40=2|44=100|54=1|55=MSFT|58=NewOrderSingle|59=0|60=20220109-19:57:37.116|10=091|
2022-01-09 13:57:37,117 : (App) S >> 8=FIX.4.3|9=152|35=8|34=2|49=SERVER|52=20220109-19:57:37.000|56=CLIENT|6=100|11=00001|14=10000|17=00034|31=100|32=10000|37=00034|38=10000|39=2|54=1|55=MSFT|150=2|151=0|10=010|
2022-01-09 13:57:42,021 : (App) R << 8=FIX.4.3|9=151|35=D|34=3|49=CLIENT|52=20220109-19:57:42.000|56=SERVER|11=00002|21=3|38=10000|40=2|44=100|54=2|55=MSFT|58=NewOrderSingle|59=0|60=20220109-19:57:42.020|10=080|
2022-01-09 13:57:42,022 : (App) S >> 8=FIX.4.3|9=152|35=8|34=3|49=SERVER|52=20220109-19:57:42.000|56=CLIENT|6=100|11=00002|14=10000|17=00035|31=100|32=10000|37=00035|38=10000|39=2|54=2|55=MSFT|150=2|151=0|10=011|
2022-01-09 13:58:12,066 : (Admin) S >> 8=FIX.4.3|9=55|35=0|34=4|49=SERVER|52=20220109-19:58:12.000|56=CLIENT|10=104|
2022-01-09 13:58:12,069 : (Admin) R << 8=FIX.4.3|9=55|35=0|34=4|49=CLIENT|52=20220109-19:58:12.000|56=SERVER|10=104|
2022-01-09 13:58:42,145 : (Admin) S >> 8=FIX.4.3|9=55|35=0|34=5|49=SERVER|52=20220109-19:58:42.000|56=CLIENT|10=108|
2022-01-09 13:58:42,148 : (Admin) R << 8=FIX.4.3|9=55|35=0|34=5|49=CLIENT|52=20220109-19:58:42.000|56=SERVER|10=108|
2022-01-09 13:59:12,062 : (Admin) S >> 8=FIX.4.3|9=55|35=0|34=6|49=SERVER|52=20220109-19:59:12.000|56=CLIENT|10=107|
2022-01-09 13:59:12,066 : (Admin) R << 8=FIX.4.3|9=55|35=0|34=6|49=CLIENT|52=20220109-19:59:12.000|56=SERVER|10=107|
2022-01-09 13:59:42,089 : (Admin) S >> 8=FIX.4.3|9=55|35=0|34=7|49=SERVER|52=20220109-19:59:42.000|56=CLIENT|10=111|
2022-01-09 13:59:42,093 : (Admin) R << 8=FIX.4.3|9=55|35=0|34=7|49=CLIENT|52=20220109-19:59:42.000|56=SERVER|10=111|
2022-01-09 14:00:12,063 : (Admin) S >> 8=FIX.4.3|9=55|35=0|34=8|49=SERVER|52=20220109-20:00:12.000|56=CLIENT|10=087|
2022-01-09 14:00:12,066 : (Admin) R << 8=FIX.4.3|9=55|35=0|34=8|49=CLIENT|52=20220109-20:00:12.000|56=SERVER|10=087|
2022-01-09 14:00:42,036 : (Admin) S >> 8=FIX.4.3|9=55|35=0|34=9|49=SERVER|52=20220109-20:00:42.000|56=CLIENT|10=091|
2022-01-09 14:00:42,040 : (Admin) R << 8=FIX.4.3|9=55|35=0|34=9|49=CLIENT|52=20220109-20:00:42.000|56=SERVER|10=091|
2022-01-09 14:01:12,030 : (Admin) S >> 8=FIX.4.3|9=56|35=0|34=10|49=SERVER|52=20220109-20:01:12.000|56=CLIENT|10=130|
2022-01-09 14:01:12,034 : (Admin) R << 8=FIX.4.3|9=56|35=0|34=10|49=CLIENT|52=20220109-20:01:12.000|56=SERVER|10=130|
2022-01-09 14:01:42,699 : (Admin) S >> 8=FIX.4.3|9=56|35=0|34=11|49=SERVER|52=20220109-20:01:42.000|56=CLIENT|10=134|
2022-01-09 14:01:42,703 : (Admin) R << 8=FIX.4.3|9=56|35=0|34=11|49=CLIENT|52=20220109-20:01:42.000|56=SERVER|10=134|
2022-01-09 14:02:12,255 : (Admin) R << 8=FIX.4.3|9=56|35=0|34=12|49=CLIENT|52=20220109-20:02:12.000|56=SERVER|10=133|
2022-01-09 14:02:12,256 : (Admin) S >> 8=FIX.4.3|9=56|35=0|34=12|49=SERVER|52=20220109-20:02:12.000|56=CLIENT|10=133|
2022-01-09 14:02:42,553 : (Admin) R << 8=FIX.4.3|9=56|35=0|34=13|49=CLIENT|52=20220109-20:02:42.000|56=SERVER|10=137|
2022-01-09 14:02:42,554 : (Admin) S >> 8=FIX.4.3|9=56|35=0|34=13|49=SERVER|52=20220109-20:02:42.000|56=CLIENT|10=137|
2022-01-09 14:03:12,010 : (Admin) S >> 8=FIX.4.3|9=56|35=0|34=14|49=SERVER|52=20220109-20:03:12.000|56=CLIENT|10=136|
2022-01-09 14:03:12,014 : (Admin) R << 8=FIX.4.3|9=56|35=0|34=14|49=CLIENT|52=20220109-20:03:12.000|56=SERVER|10=136|
2022-01-09 14:03:42,008 : (Admin) R << 8=FIX.4.3|9=56|35=0|34=15|49=CLIENT|52=20220109-20:03:42.000|56=SERVER|10=140|
2022-01-09 14:03:42,008 : (Admin) S >> 8=FIX.4.3|9=56|35=0|34=15|49=SERVER|52=20220109-20:03:42.000|56=CLIENT|10=140|
2022-01-09 14:04:12,686 : (Admin) R << 8=FIX.4.3|9=56|35=0|34=16|49=CLIENT|52=20220109-20:04:12.000|56=SERVER|10=139|
2022-01-09 14:04:12,686 : (Admin) S >> 8=FIX.4.3|9=56|35=0|34=16|49=SERVER|52=20220109-20:04:12.000|56=CLIENT|10=139|
2022-01-09 14:04:42,182 : (Admin) R << 8=FIX.4.3|9=56|35=0|34=17|49=CLIENT|52=20220109-20:04:42.000|56=SERVER|10=143|
2022-01-09 14:04:42,183 : (Admin) S >> 8=FIX.4.3|9=56|35=0|34=17|49=SERVER|52=20220109-20:04:42.000|56=CLIENT|10=143|
2022-01-09 14:05:12,362 : (Admin) R << 8=FIX.4.3|9=56|35=0|34=18|49=CLIENT|52=20220109-20:05:12.000|56=SERVER|10=142|
2022-01-09 14:05:12,363 : (Admin) S >> 8=FIX.4.3|9=56|35=0|34=18|49=SERVER|52=20220109-20:05:12.000|56=CLIENT|10=142|
2022-01-09 14:05:42,331 : (Admin) R << 8=FIX.4.3|9=56|35=0|34=19|49=CLIENT|52=20220109-20:05:42.000|56=SERVER|10=146|
2022-01-09 14:05:42,332 : (Admin) S >> 8=FIX.4.3|9=56|35=0|34=19|49=SERVER|52=20220109-20:05:42.000|56=CLIENT|10=146|
2022-01-09 14:06:12,051 : (Admin) R << 8=FIX.4.3|9=56|35=0|34=20|49=CLIENT|52=20220109-20:06:12.000|56=SERVER|10=136|
2022-01-09 14:06:12,051 : (Admin) S >> 8=FIX.4.3|9=56|35=0|34=20|49=SERVER|52=20220109-20:06:12.000|56=CLIENT|10=136|
2022-01-09 14:06:42,488 : (Admin) R << 8=FIX.4.3|9=56|35=0|34=21|49=CLIENT|52=20220109-20:06:42.000|56=SERVER|10=140|
2022-01-09 14:06:42,489 : (Admin) S >> 8=FIX.4.3|9=56|35=0|34=21|49=SERVER|52=20220109-20:06:42.000|56=CLIENT|10=140|
2022-01-09 14:07:12,004 : (Admin) S >> 8=FIX.4.3|9=56|35=0|34=22|49=SERVER|52=20220109-20:07:12.000|56=CLIENT|10=139|
2022-01-09 14:07:12,007 : (Admin) R << 8=FIX.4.3|9=56|35=0|34=22|49=CLIENT|52=20220109-20:07:12.000|56=SERVER|10=139|
2022-01-09 14:07:42,203 : (Admin) S >> 8=FIX.4.3|9=56|35=0|34=23|49=SERVER|52=20220109-20:07:42.000|56=CLIENT|10=143|
2022-01-09 14:07:42,206 : (Admin) R << 8=FIX.4.3|9=56|35=0|34=23|49=CLIENT|52=20220109-20:07:42.000|56=SERVER|10=143|
2022-01-09 14:08:12,091 : (Admin) S >> 8=FIX.4.3|9=56|35=0|34=24|49=SERVER|52=20220109-20:08:12.000|56=CLIENT|10=142|
2022-01-09 14:08:12,094 : (Admin) R << 8=FIX.4.3|9=56|35=0|34=24|49=CLIENT|52=20220109-20:08:12.000|56=SERVER|10=142|
2022-01-09 14:08:42,051 : (Admin) S >> 8=FIX.4.3|9=56|35=0|34=25|49=SERVER|52=20220109-20:08:42.000|56=CLIENT|10=146|
2022-01-09 14:08:42,055 : (Admin) R << 8=FIX.4.3|9=56|35=0|34=25|49=CLIENT|52=20220109-20:08:42.000|56=SERVER|10=146|
2022-01-09 14:09:12,266 : (Admin) R << 8=FIX.4.3|9=56|35=0|34=26|49=CLIENT|52=20220109-20:09:12.000|56=SERVER|10=145|
2022-01-09 14:09:12,267 : (Admin) S >> 8=FIX.4.3|9=56|35=0|34=26|49=SERVER|52=20220109-20:09:12.000|56=CLIENT|10=145|
2022-01-09 14:09:42,194 : (Admin) R << 8=FIX.4.3|9=56|35=0|34=27|49=CLIENT|52=20220109-20:09:42.000|56=SERVER|10=149|
2022-01-09 14:09:42,194 : (Admin) S >> 8=FIX.4.3|9=56|35=0|34=27|49=SERVER|52=20220109-20:09:42.000|56=CLIENT|10=149|
2022-01-09 14:10:12,043 : (Admin) R << 8=FIX.4.3|9=56|35=0|34=28|49=CLIENT|52=20220109-20:10:12.000|56=SERVER|10=139|
2022-01-09 14:10:12,044 : (Admin) S >> 8=FIX.4.3|9=56|35=0|34=28|49=SERVER|52=20220109-20:10:12.000|56=CLIENT|10=139|
2022-01-09 14:10:42,417 : (Admin) S >> 8=FIX.4.3|9=56|35=0|34=29|49=SERVER|52=20220109-20:10:42.000|56=CLIENT|10=143|
2022-01-09 14:10:42,421 : (Admin) R << 8=FIX.4.3|9=56|35=0|34=29|49=CLIENT|52=20220109-20:10:42.000|56=SERVER|10=143|
2022-01-09 14:11:14,277 : (Admin) S >> 8=FIX.4.3|9=56|35=0|34=30|49=SERVER|52=20220109-20:11:14.000|56=CLIENT|10=135|
2022-01-09 14:11:14,279 : (Admin) R << 8=FIX.4.3|9=56|35=0|34=30|49=CLIENT|52=20220109-20:11:14.000|56=SERVER|10=135|
2022-01-09 14:11:44,289 : (Admin) S >> 8=FIX.4.3|9=56|35=0|34=31|49=SERVER|52=20220109-20:11:44.000|56=CLIENT|10=139|
2022-01-09 14:11:44,293 : (Admin) R << 8=FIX.4.3|9=56|35=0|34=31|49=CLIENT|52=20220109-20:11:44.000|56=SERVER|10=139|
2022-01-09 14:12:14,177 : (Admin) R << 8=FIX.4.3|9=56|35=0|34=32|49=CLIENT|52=20220109-20:12:14.000|56=SERVER|10=138|
2022-01-09 14:12:14,178 : (Admin) S >> 8=FIX.4.3|9=56|35=0|34=32|49=SERVER|52=20220109-20:12:14.000|56=CLIENT|10=138|
2022-01-09 14:12:44,516 : (Admin) S >> 8=FIX.4.3|9=56|35=0|34=33|49=SERVER|52=20220109-20:12:44.000|56=CLIENT|10=142|
2022-01-09 14:12:44,520 : (Admin) R << 8=FIX.4.3|9=56|35=0|34=33|49=CLIENT|52=20220109-20:12:44.000|56=SERVER|10=142|
2022-01-09 14:13:37,889 : (Admin) R << 8=FIX.4.3|9=65|35=1|34=34|49=CLIENT|52=20220109-20:13:37.000|56=SERVER|112=TEST|10=165|
2022-01-09 14:13:37,889 : (Admin) S >> 8=FIX.4.3|9=65|35=0|34=34|49=SERVER|52=20220109-20:13:37.000|56=CLIENT|112=TEST|10=164|
2022-01-09 14:14:07,007 : (Admin) S >> 8=FIX.4.3|9=56|35=0|34=35|49=SERVER|52=20220109-20:14:07.000|56=CLIENT|10=145|
2022-01-09 14:14:07,011 : (Admin) R << 8=FIX.4.3|9=56|35=0|34=35|49=CLIENT|52=20220109-20:14:07.000|56=SERVER|10=145|
2022-01-09 14:14:38,677 : (Admin) R << 8=FIX.4.3|9=56|35=0|34=36|49=CLIENT|52=20220109-20:14:38.000|56=SERVER|10=150|
2022-01-09 14:14:38,677 : (Admin) S >> 8=FIX.4.3|9=56|35=0|34=36|49=SERVER|52=20220109-20:14:38.000|56=CLIENT|10=150|
2022-01-09 14:15:08,210 : (Admin) S >> 8=FIX.4.3|9=56|35=0|34=37|49=SERVER|52=20220109-20:15:08.000|56=CLIENT|10=149|
2022-01-09 14:15:08,214 : (Admin) R << 8=FIX.4.3|9=56|35=0|34=37|49=CLIENT|52=20220109-20:15:08.000|56=SERVER|10=149|
2022-01-09 14:17:41,918 : (Admin) R << 8=FIX.4.3|9=73|35=A|34=1|49=CLIENT|52=20220109-20:17:41.000|56=SERVER|98=0|108=30|141=Y|10=177|
2022-01-09 14:17:41,918 : (Admin) S >> 8=FIX.4.3|9=73|35=A|34=1|49=SERVER|52=20220109-20:17:41.000|56=CLIENT|98=0|108=30|141=Y|10=177|
2022-01-09 14:18:11,395 : (Admin) S >> 8=FIX.4.3|9=55|35=0|34=2|49=SERVER|52=20220109-20:18:11.000|56=CLIENT|10=089|
2022-01-09 14:18:11,398 : (Admin) R << 8=FIX.4.3|9=55|35=0|34=2|49=CLIENT|52=20220109-20:18:11.000|56=SERVER|10=089|
2022-01-09 14:19:04,406 : (Admin) R << 8=FIX.4.3|9=64|35=1|34=3|49=CLIENT|52=20220109-20:19:04.000|56=SERVER|112=TEST|10=112|
2022-01-09 14:19:04,406 : (Admin) S >> 8=FIX.4.3|9=64|35=0|34=3|49=SERVER|52=20220109-20:19:04.000|56=CLIENT|112=TEST|10=111|
2022-01-09 14:19:34,254 : (Admin) S >> 8=FIX.4.3|9=55|35=0|34=4|49=SERVER|52=20220109-20:19:34.000|56=CLIENT|10=097|
2022-01-09 14:19:34,259 : (Admin) R << 8=FIX.4.3|9=55|35=0|34=4|49=CLIENT|52=20220109-20:19:34.000|56=SERVER|10=097|
2022-01-09 14:24:58,709 : (Admin) R << 8=FIX.4.3|9=73|35=A|34=1|49=CLIENT|52=20220109-20:24:58.000|56=SERVER|98=0|108=30|141=Y|10=183|
2022-01-09 14:24:58,709 : (Admin) S >> 8=FIX.4.3|9=73|35=A|34=1|49=SERVER|52=20220109-20:24:58.000|56=CLIENT|98=0|108=30|141=Y|10=183|
2022-01-09 14:25:28,327 : (Admin) S >> 8=FIX.4.3|9=55|35=0|34=2|49=SERVER|52=20220109-20:25:28.000|56=CLIENT|10=095|
2022-01-09 14:25:28,330 : (Admin) R << 8=FIX.4.3|9=55|35=0|34=2|49=CLIENT|52=20220109-20:25:28.000|56=SERVER|10=095|
2022-01-09 14:25:58,410 : (Admin) S >> 8=FIX.4.3|9=55|35=0|34=3|49=SERVER|52=20220109-20:25:58.000|56=CLIENT|10=099|
2022-01-09 14:25:58,414 : (Admin) R << 8=FIX.4.3|9=55|35=0|34=3|49=CLIENT|52=20220109-20:25:58.000|56=SERVER|10=099|
2022-01-09 14:26:28,226 : (Admin) S >> 8=FIX.4.3|9=55|35=0|34=4|49=SERVER|52=20220109-20:26:28.000|56=CLIENT|10=098|
2022-01-09 14:26:28,230 : (Admin) R << 8=FIX.4.3|9=55|35=0|34=4|49=CLIENT|52=20220109-20:26:28.000|56=SERVER|10=098|
2022-01-09 14:26:58,088 : (Admin) R << 8=FIX.4.3|9=55|35=0|34=5|49=CLIENT|52=20220109-20:26:58.000|56=SERVER|10=102|
2022-01-09 14:26:58,089 : (Admin) S >> 8=FIX.4.3|9=55|35=0|34=5|49=SERVER|52=20220109-20:26:58.000|56=CLIENT|10=102|
2022-01-09 14:37:13,940 : (Admin) R << 8=FIX.4.3|9=73|35=A|34=1|49=CLIENT|52=20220109-20:37:13.000|56=SERVER|98=0|108=30|141=Y|10=178|
2022-01-09 14:37:13,940 : (Admin) S >> 8=FIX.4.3|9=73|35=A|34=1|49=SERVER|52=20220109-20:37:13.000|56=CLIENT|98=0|108=30|141=Y|10=178|
2022-01-09 14:37:43,387 : (Admin) S >> 8=FIX.4.3|9=55|35=0|34=2|49=SERVER|52=20220109-20:37:43.000|56=CLIENT|10=095|
2022-01-09 14:37:43,390 : (Admin) R << 8=FIX.4.3|9=55|35=0|34=2|49=CLIENT|52=20220109-20:37:43.000|56=SERVER|10=095|
2022-01-09 14:38:13,177 : (Admin) S >> 8=FIX.4.3|9=55|35=0|34=3|49=SERVER|52=20220109-20:38:13.000|56=CLIENT|10=094|
2022-01-09 14:38:13,181 : (Admin) R << 8=FIX.4.3|9=55|35=0|34=3|49=CLIENT|52=20220109-20:38:13.000|56=SERVER|10=094|
2022-01-09 14:38:43,337 : (Admin) S >> 8=FIX.4.3|9=55|35=0|34=4|49=SERVER|52=20220109-20:38:43.000|56=CLIENT|10=098|
2022-01-09 14:38:43,340 : (Admin) R << 8=FIX.4.3|9=55|35=0|34=4|49=CLIENT|52=20220109-20:38:43.000|56=SERVER|10=098|
2022-01-09 14:39:13,158 : (Admin) S >> 8=FIX.4.3|9=55|35=0|34=5|49=SERVER|52=20220109-20:39:13.000|56=CLIENT|10=097|
2022-01-09 14:39:13,162 : (Admin) R << 8=FIX.4.3|9=55|35=0|34=5|49=CLIENT|52=20220109-20:39:13.000|56=SERVER|10=097|
2022-01-09 14:39:43,307 : (Admin) S >> 8=FIX.4.3|9=55|35=0|34=6|49=SERVER|52=20220109-20:39:43.000|56=CLIENT|10=101|
2022-01-09 14:39:43,310 : (Admin) R << 8=FIX.4.3|9=55|35=0|34=6|49=CLIENT|52=20220109-20:39:43.000|56=SERVER|10=101|
2022-01-09 14:40:13,147 : (Admin) S >> 8=FIX.4.3|9=55|35=0|34=7|49=SERVER|52=20220109-20:40:13.000|56=CLIENT|10=091|
2022-01-09 14:40:13,151 : (Admin) R << 8=FIX.4.3|9=55|35=0|34=7|49=CLIENT|52=20220109-20:40:13.000|56=SERVER|10=091|
2022-01-09 14:40:43,066 : (Admin) R << 8=FIX.4.3|9=55|35=0|34=8|49=CLIENT|52=20220109-20:40:43.000|56=SERVER|10=095|
2022-01-09 14:40:43,067 : (Admin) S >> 8=FIX.4.3|9=55|35=0|34=8|49=SERVER|52=20220109-20:40:43.000|56=CLIENT|10=095|
2022-01-09 14:41:13,363 : (Admin) R << 8=FIX.4.3|9=55|35=0|34=9|49=CLIENT|52=20220109-20:41:13.000|56=SERVER|10=094|
2022-01-09 14:41:13,364 : (Admin) S >> 8=FIX.4.3|9=55|35=0|34=9|49=SERVER|52=20220109-20:41:13.000|56=CLIENT|10=094|
2022-01-09 14:41:43,265 : (Admin) R << 8=FIX.4.3|9=56|35=0|34=10|49=CLIENT|52=20220109-20:41:43.000|56=SERVER|10=138|
2022-01-09 14:41:43,265 : (Admin) S >> 8=FIX.4.3|9=56|35=0|34=10|49=SERVER|52=20220109-20:41:43.000|56=CLIENT|10=138|
2022-01-09 14:42:13,468 : (Admin) R << 8=FIX.4.3|9=56|35=0|34=11|49=CLIENT|52=20220109-20:42:13.000|56=SERVER|10=137|
2022-01-09 14:42:13,469 : (Admin) S >> 8=FIX.4.3|9=56|35=0|34=11|49=SERVER|52=20220109-20:42:13.000|56=CLIENT|10=137|
2022-01-09 14:42:43,228 : (Admin) R << 8=FIX.4.3|9=56|35=0|34=12|49=CLIENT|52=20220109-20:42:43.000|56=SERVER|10=141|
2022-01-09 14:42:43,228 : (Admin) S >> 8=FIX.4.3|9=56|35=0|34=12|49=SERVER|52=20220109-20:42:43.000|56=CLIENT|10=141|
2022-01-09 14:43:13,194 : (Admin) R << 8=FIX.4.3|9=56|35=0|34=13|49=CLIENT|52=20220109-20:43:13.000|56=SERVER|10=140|
2022-01-09 14:43:13,194 : (Admin) S >> 8=FIX.4.3|9=56|35=0|34=13|49=SERVER|52=20220109-20:43:13.000|56=CLIENT|10=140|
2022-01-09 14:43:43,497 : (Admin) R << 8=FIX.4.3|9=56|35=0|34=14|49=CLIENT|52=20220109-20:43:43.000|56=SERVER|10=144|
2022-01-09 14:43:43,499 : (Admin) S >> 8=FIX.4.3|9=56|35=0|34=14|49=SERVER|52=20220109-20:43:43.000|56=CLIENT|10=144|
2022-01-09 14:44:13,378 : (Admin) R << 8=FIX.4.3|9=56|35=0|34=15|49=CLIENT|52=20220109-20:44:13.000|56=SERVER|10=143|
2022-01-09 14:44:13,379 : (Admin) S >> 8=FIX.4.3|9=56|35=0|34=15|49=SERVER|52=20220109-20:44:13.000|56=CLIENT|10=143|
2022-01-09 14:44:43,481 : (Admin) R << 8=FIX.4.3|9=56|35=0|34=16|49=CLIENT|52=20220109-20:44:43.000|56=SERVER|10=147|
2022-01-09 14:44:43,482 : (Admin) S >> 8=FIX.4.3|9=56|35=0|34=16|49=SERVER|52=20220109-20:44:43.000|56=CLIENT|10=147|
2022-01-09 14:45:13,064 : (Admin) R << 8=FIX.4.3|9=56|35=0|34=17|49=CLIENT|52=20220109-20:45:13.000|56=SERVER|10=146|
2022-01-09 14:45:13,065 : (Admin) S >> 8=FIX.4.3|9=56|35=0|34=17|49=SERVER|52=20220109-20:45:13.000|56=CLIENT|10=146|
2022-01-09 14:45:43,368 : (Admin) R << 8=FIX.4.3|9=56|35=0|34=18|49=CLIENT|52=20220109-20:45:43.000|56=SERVER|10=150|
2022-01-09 14:45:43,369 : (Admin) S >> 8=FIX.4.3|9=56|35=0|34=18|49=SERVER|52=20220109-20:45:43.000|56=CLIENT|10=150|
2022-01-09 14:46:13,157 : (Admin) R << 8=FIX.4.3|9=56|35=0|34=19|49=CLIENT|52=20220109-20:46:13.000|56=SERVER|10=149|
2022-01-09 14:46:13,157 : (Admin) S >> 8=FIX.4.3|9=56|35=0|34=19|49=SERVER|52=20220109-20:46:13.000|56=CLIENT|10=149|
2022-01-09 14:46:43,005 : (Admin) R << 8=FIX.4.3|9=56|35=0|34=20|49=CLIENT|52=20220109-20:46:43.000|56=SERVER|10=144|
2022-01-09 14:46:43,007 : (Admin) S >> 8=FIX.4.3|9=56|35=0|34=20|49=SERVER|52=20220109-20:46:43.000|56=CLIENT|10=144|
2022-01-09 14:47:13,421 : (Admin) R << 8=FIX.4.3|9=56|35=0|34=21|49=CLIENT|52=20220109-20:47:13.000|56=SERVER|10=143|
2022-01-09 14:47:13,422 : (Admin) S >> 8=FIX.4.3|9=56|35=0|34=21|49=SERVER|52=20220109-20:47:13.000|56=CLIENT|10=143|
2022-01-09 14:47:43,381 : (Admin) R << 8=FIX.4.3|9=56|35=0|34=22|49=CLIENT|52=20220109-20:47:43.000|56=SERVER|10=147|
2022-01-09 14:47:43,381 : (Admin) S >> 8=FIX.4.3|9=56|35=0|34=22|49=SERVER|52=20220109-20:47:43.000|56=CLIENT|10=147|
2022-01-09 14:48:13,360 : (Admin) R << 8=FIX.4.3|9=56|35=0|34=23|49=CLIENT|52=20220109-20:48:13.000|56=SERVER|10=146|
2022-01-09 14:48:13,361 : (Admin) S >> 8=FIX.4.3|9=56|35=0|34=23|49=SERVER|52=20220109-20:48:13.000|56=CLIENT|10=146|
2022-01-09 14:48:43,322 : (Admin) S >> 8=FIX.4.3|9=56|35=0|34=24|49=SERVER|52=20220109-20:48:43.000|56=CLIENT|10=150|
2022-01-09 14:48:43,329 : (Admin) R << 8=FIX.4.3|9=56|35=0|34=24|49=CLIENT|52=20220109-20:48:43.000|56=SERVER|10=150|
2022-01-09 14:49:13,101 : (Admin) S >> 8=FIX.4.3|9=56|35=0|34=25|49=SERVER|52=20220109-20:49:13.000|56=CLIENT|10=149|
2022-01-09 14:49:13,104 : (Admin) R << 8=FIX.4.3|9=56|35=0|34=25|49=CLIENT|52=20220109-20:49:13.000|56=SERVER|10=149|
2022-01-09 14:49:43,189 : (Admin) R << 8=FIX.4.3|9=56|35=0|34=26|49=CLIENT|52=20220109-20:49:43.000|56=SERVER|10=153|
2022-01-09 14:49:43,190 : (Admin) S >> 8=FIX.4.3|9=56|35=0|34=26|49=SERVER|52=20220109-20:49:43.000|56=CLIENT|10=153|
2022-01-09 14:50:13,171 : (Admin) S >> 8=FIX.4.3|9=56|35=0|34=27|49=SERVER|52=20220109-20:50:13.000|56=CLIENT|10=143|
2022-01-09 14:50:13,175 : (Admin) R << 8=FIX.4.3|9=56|35=0|34=27|49=CLIENT|52=20220109-20:50:13.000|56=SERVER|10=143|
2022-01-09 14:50:43,153 : (Admin) R << 8=FIX.4.3|9=56|35=0|34=28|49=CLIENT|52=20220109-20:50:43.000|56=SERVER|10=147|
2022-01-09 14:50:43,154 : (Admin) S >> 8=FIX.4.3|9=56|35=0|34=28|49=SERVER|52=20220109-20:50:43.000|56=CLIENT|10=147|
2022-01-09 14:51:13,096 : (Admin) R << 8=FIX.4.3|9=56|35=0|34=29|49=CLIENT|52=20220109-20:51:13.000|56=SERVER|10=146|
2022-01-09 14:51:13,097 : (Admin) S >> 8=FIX.4.3|9=56|35=0|34=29|49=SERVER|52=20220109-20:51:13.000|56=CLIENT|10=146|
2022-01-09 14:51:43,283 : (Admin) S >> 8=FIX.4.3|9=56|35=0|34=30|49=SERVER|52=20220109-20:51:43.000|56=CLIENT|10=141|
2022-01-09 14:51:43,286 : (Admin) R << 8=FIX.4.3|9=56|35=0|34=30|49=CLIENT|52=20220109-20:51:43.000|56=SERVER|10=141|
2022-01-09 14:52:13,063 : (Admin) S >> 8=FIX.4.3|9=56|35=0|34=31|49=SERVER|52=20220109-20:52:13.000|56=CLIENT|10=140|
2022-01-09 14:52:13,069 : (Admin) R << 8=FIX.4.3|9=56|35=0|34=31|49=CLIENT|52=20220109-20:52:13.000|56=SERVER|10=140|
2022-01-09 14:52:43,156 : (Admin) S >> 8=FIX.4.3|9=56|35=0|34=32|49=SERVER|52=20220109-20:52:43.000|56=CLIENT|10=144|
2022-01-09 14:52:43,160 : (Admin) R << 8=FIX.4.3|9=56|35=0|34=32|49=CLIENT|52=20220109-20:52:43.000|56=SERVER|10=144|
2022-01-09 14:53:13,168 : (Admin) S >> 8=FIX.4.3|9=56|35=0|34=33|49=SERVER|52=20220109-20:53:13.000|56=CLIENT|10=143|
2022-01-09 14:53:13,172 : (Admin) R << 8=FIX.4.3|9=56|35=0|34=33|49=CLIENT|52=20220109-20:53:13.000|56=SERVER|10=143|
2022-01-09 14:53:43,062 : (Admin) S >> 8=FIX.4.3|9=56|35=0|34=34|49=SERVER|52=20220109-20:53:43.000|56=CLIENT|10=147|
2022-01-09 14:53:43,065 : (Admin) R << 8=FIX.4.3|9=56|35=0|34=34|49=CLIENT|52=20220109-20:53:43.000|56=SERVER|10=147|
2022-01-09 14:54:13,014 : (Admin) R << 8=FIX.4.3|9=56|35=0|34=35|49=CLIENT|52=20220109-20:54:13.000|56=SERVER|10=146|
2022-01-09 14:54:13,015 : (Admin) S >> 8=FIX.4.3|9=56|35=0|34=35|49=SERVER|52=20220109-20:54:13.000|56=CLIENT|10=146|
2022-01-09 14:54:43,150 : (Admin) S >> 8=FIX.4.3|9=56|35=0|34=36|49=SERVER|52=20220109-20:54:43.000|56=CLIENT|10=150|
2022-01-09 14:54:43,153 : (Admin) R << 8=FIX.4.3|9=56|35=0|34=36|49=CLIENT|52=20220109-20:54:43.000|56=SERVER|10=150|
2022-01-09 14:55:13,242 : (Admin) R << 8=FIX.4.3|9=56|35=0|34=37|49=CLIENT|52=20220109-20:55:13.000|56=SERVER|10=149|
2022-01-09 14:55:13,243 : (Admin) S >> 8=FIX.4.3|9=56|35=0|34=37|49=SERVER|52=20220109-20:55:13.000|56=CLIENT|10=149|
2022-01-09 14:55:43,232 : (Admin) R << 8=FIX.4.3|9=56|35=0|34=38|49=CLIENT|52=20220109-20:55:43.000|56=SERVER|10=153|
2022-01-09 14:55:43,233 : (Admin) S >> 8=FIX.4.3|9=56|35=0|34=38|49=SERVER|52=20220109-20:55:43.000|56=CLIENT|10=153|
2022-01-09 14:56:13,174 : (Admin) R << 8=FIX.4.3|9=56|35=0|34=39|49=CLIENT|52=20220109-20:56:13.000|56=SERVER|10=152|
2022-01-09 14:56:13,175 : (Admin) S >> 8=FIX.4.3|9=56|35=0|34=39|49=SERVER|52=20220109-20:56:13.000|56=CLIENT|10=152|
2022-01-09 14:56:43,253 : (Admin) S >> 8=FIX.4.3|9=56|35=0|34=40|49=SERVER|52=20220109-20:56:43.000|56=CLIENT|10=147|
2022-01-09 14:56:43,256 : (Admin) R << 8=FIX.4.3|9=56|35=0|34=40|49=CLIENT|52=20220109-20:56:43.000|56=SERVER|10=147|
2022-01-09 14:57:13,187 : (Admin) S >> 8=FIX.4.3|9=56|35=0|34=41|49=SERVER|52=20220109-20:57:13.000|56=CLIENT|10=146|
2022-01-09 14:57:13,190 : (Admin) R << 8=FIX.4.3|9=56|35=0|34=41|49=CLIENT|52=20220109-20:57:13.000|56=SERVER|10=146|
2022-01-09 14:57:43,147 : (Admin) S >> 8=FIX.4.3|9=56|35=0|34=42|49=SERVER|52=20220109-20:57:43.000|56=CLIENT|10=150|
2022-01-09 14:57:43,150 : (Admin) R << 8=FIX.4.3|9=56|35=0|34=42|49=CLIENT|52=20220109-20:57:43.000|56=SERVER|10=150|
2022-01-09 14:58:13,037 : (Admin) S >> 8=FIX.4.3|9=56|35=0|34=43|49=SERVER|52=20220109-20:58:13.000|56=CLIENT|10=149|
2022-01-09 14:58:13,041 : (Admin) R << 8=FIX.4.3|9=56|35=0|34=43|49=CLIENT|52=20220109-20:58:13.000|56=SERVER|10=149|
2022-01-09 14:58:43,236 : (Admin) S >> 8=FIX.4.3|9=56|35=0|34=44|49=SERVER|52=20220109-20:58:43.000|56=CLIENT|10=153|
2022-01-09 14:58:43,239 : (Admin) R << 8=FIX.4.3|9=56|35=0|34=44|49=CLIENT|52=20220109-20:58:43.000|56=SERVER|10=153|
2022-01-09 14:59:13,043 : (Admin) S >> 8=FIX.4.3|9=56|35=0|34=45|49=SERVER|52=20220109-20:59:13.000|56=CLIENT|10=152|
2022-01-09 14:59:13,046 : (Admin) R << 8=FIX.4.3|9=56|35=0|34=45|49=CLIENT|52=20220109-20:59:13.000|56=SERVER|10=152|
2022-01-09 14:59:43,213 : (Admin) S >> 8=FIX.4.3|9=56|35=0|34=46|49=SERVER|52=20220109-20:59:43.000|56=CLIENT|10=156|
2022-01-09 14:59:43,216 : (Admin) R << 8=FIX.4.3|9=56|35=0|34=46|49=CLIENT|52=20220109-20:59:43.000|56=SERVER|10=156|
2022-01-09 15:00:13,051 : (Admin) R << 8=FIX.4.3|9=56|35=0|34=47|49=CLIENT|52=20220109-21:00:13.000|56=SERVER|10=141|
2022-01-09 15:00:13,052 : (Admin) S >> 8=FIX.4.3|9=56|35=0|34=47|49=SERVER|52=20220109-21:00:13.000|56=CLIENT|10=141|
2022-01-09 15:00:43,139 : (Admin) R << 8=FIX.4.3|9=56|35=0|34=48|49=CLIENT|52=20220109-21:00:43.000|56=SERVER|10=145|
2022-01-09 15:00:43,140 : (Admin) S >> 8=FIX.4.3|9=56|35=0|34=48|49=SERVER|52=20220109-21:00:43.000|56=CLIENT|10=145|
2022-01-09 15:01:13,079 : (Admin) R << 8=FIX.4.3|9=56|35=0|34=49|49=CLIENT|52=20220109-21:01:13.000|56=SERVER|10=144|
2022-01-09 15:01:13,080 : (Admin) S >> 8=FIX.4.3|9=56|35=0|34=49|49=SERVER|52=20220109-21:01:13.000|56=CLIENT|10=144|
2022-01-09 15:01:43,144 : (Admin) S >> 8=FIX.4.3|9=56|35=0|34=50|49=SERVER|52=20220109-21:01:43.000|56=CLIENT|10=139|
2022-01-09 15:01:43,150 : (Admin) R << 8=FIX.4.3|9=56|35=0|34=50|49=CLIENT|52=20220109-21:01:43.000|56=SERVER|10=139|
2022-01-09 15:02:13,112 : (Admin) S >> 8=FIX.4.3|9=56|35=0|34=51|49=SERVER|52=20220109-21:02:13.000|56=CLIENT|10=138|
2022-01-09 15:02:13,115 : (Admin) R << 8=FIX.4.3|9=56|35=0|34=51|49=CLIENT|52=20220109-21:02:13.000|56=SERVER|10=138|
2022-01-09 15:02:43,015 : (Admin) S >> 8=FIX.4.3|9=56|35=0|34=52|49=SERVER|52=20220109-21:02:43.000|56=CLIENT|10=142|
2022-01-09 15:02:43,019 : (Admin) R << 8=FIX.4.3|9=56|35=0|34=52|49=CLIENT|52=20220109-21:02:43.000|56=SERVER|10=142|
2022-01-09 15:03:13,022 : (Admin) R << 8=FIX.4.3|9=56|35=0|34=53|49=CLIENT|52=20220109-21:03:13.000|56=SERVER|10=141|
2022-01-09 15:03:13,023 : (Admin) S >> 8=FIX.4.3|9=56|35=0|34=53|49=SERVER|52=20220109-21:03:13.000|56=CLIENT|10=141|
2022-01-09 15:03:43,055 : (Admin) R << 8=FIX.4.3|9=56|35=0|34=54|49=CLIENT|52=20220109-21:03:43.000|56=SERVER|10=145|
2022-01-09 15:03:43,055 : (Admin) S >> 8=FIX.4.3|9=56|35=0|34=54|49=SERVER|52=20220109-21:03:43.000|56=CLIENT|10=145|
2022-01-09 15:04:13,036 : (Admin) R << 8=FIX.4.3|9=56|35=0|34=55|49=CLIENT|52=20220109-21:04:13.000|56=SERVER|10=144|
2022-01-09 15:04:13,037 : (Admin) S >> 8=FIX.4.3|9=56|35=0|34=55|49=SERVER|52=20220109-21:04:13.000|56=CLIENT|10=144|
2022-01-09 15:04:43,144 : (Admin) R << 8=FIX.4.3|9=56|35=0|34=56|49=CLIENT|52=20220109-21:04:43.000|56=SERVER|10=148|
2022-01-09 15:04:43,145 : (Admin) S >> 8=FIX.4.3|9=56|35=0|34=56|49=SERVER|52=20220109-21:04:43.000|56=CLIENT|10=148|
2022-01-09 15:05:13,125 : (Admin) R << 8=FIX.4.3|9=56|35=0|34=57|49=CLIENT|52=20220109-21:05:13.000|56=SERVER|10=147|
2022-01-09 15:05:13,126 : (Admin) S >> 8=FIX.4.3|9=56|35=0|34=57|49=SERVER|52=20220109-21:05:13.000|56=CLIENT|10=147|
2022-01-09 15:05:43,047 : (Admin) R << 8=FIX.4.3|9=56|35=0|34=58|49=CLIENT|52=20220109-21:05:43.000|56=SERVER|10=151|
2022-01-09 15:05:43,048 : (Admin) S >> 8=FIX.4.3|9=56|35=0|34=58|49=SERVER|52=20220109-21:05:43.000|56=CLIENT|10=151|
2022-01-09 15:06:13,007 : (Admin) R << 8=FIX.4.3|9=56|35=0|34=59|49=CLIENT|52=20220109-21:06:13.000|56=SERVER|10=150|
2022-01-09 15:06:13,008 : (Admin) S >> 8=FIX.4.3|9=56|35=0|34=59|49=SERVER|52=20220109-21:06:13.000|56=CLIENT|10=150|
2022-01-09 15:06:43,004 : (Admin) R << 8=FIX.4.3|9=56|35=0|34=60|49=CLIENT|52=20220109-21:06:43.000|56=SERVER|10=145|
2022-01-09 15:06:43,005 : (Admin) S >> 8=FIX.4.3|9=56|35=0|34=60|49=SERVER|52=20220109-21:06:43.000|56=CLIENT|10=145|
2022-01-09 15:07:13,004 : (Admin) R << 8=FIX.4.3|9=56|35=0|34=61|49=CLIENT|52=20220109-21:07:13.000|56=SERVER|10=144|
2022-01-09 15:07:13,005 : (Admin) S >> 8=FIX.4.3|9=56|35=0|34=61|49=SERVER|52=20220109-21:07:13.000|56=CLIENT|10=144|
2022-01-09 15:07:43,281 : (Admin) R << 8=FIX.4.3|9=56|35=0|34=62|49=CLIENT|52=20220109-21:07:43.000|56=SERVER|10=148|
2022-01-09 15:07:43,282 : (Admin) S >> 8=FIX.4.3|9=56|35=0|34=62|49=SERVER|52=20220109-21:07:43.000|56=CLIENT|10=148|
2022-01-09 15:08:13,375 : (Admin) S >> 8=FIX.4.3|9=56|35=0|34=63|49=SERVER|52=20220109-21:08:13.000|56=CLIENT|10=147|
2022-01-09 15:08:13,379 : (Admin) R << 8=FIX.4.3|9=56|35=0|34=63|49=CLIENT|52=20220109-21:08:13.000|56=SERVER|10=147|
2022-01-09 15:08:49,348 : (Admin) S >> 8=FIX.4.3|9=65|35=1|34=64|49=SERVER|52=20220109-21:08:49.000|56=CLIENT|112=TEST|10=176|
2022-01-09 15:08:49,352 : (Admin) R << 8=FIX.4.3|9=65|35=0|34=64|49=CLIENT|52=20220109-21:08:49.000|56=SERVER|112=TEST|10=175|
2022-01-09 15:09:19,113 : (Admin) R << 8=FIX.4.3|9=56|35=0|34=65|49=CLIENT|52=20220109-21:09:19.000|56=SERVER|10=156|
2022-01-09 15:09:19,114 : (Admin) S >> 8=FIX.4.3|9=56|35=0|34=65|49=SERVER|52=20220109-21:09:19.000|56=CLIENT|10=156|
2022-01-09 15:09:49,133 : (Admin) S >> 8=FIX.4.3|9=56|35=0|34=66|49=SERVER|52=20220109-21:09:49.000|56=CLIENT|10=160|
2022-01-09 15:09:49,136 : (Admin) R << 8=FIX.4.3|9=56|35=0|34=66|49=CLIENT|52=20220109-21:09:49.000|56=SERVER|10=160|
2022-01-09 15:10:19,525 : (Admin) R << 8=FIX.4.3|9=56|35=0|34=67|49=CLIENT|52=20220109-21:10:19.000|56=SERVER|10=150|
2022-01-09 15:10:19,526 : (Admin) S >> 8=FIX.4.3|9=56|35=0|34=67|49=SERVER|52=20220109-21:10:19.000|56=CLIENT|10=150|
2022-01-09 15:10:49,176 : (Admin) R << 8=FIX.4.3|9=56|35=0|34=68|49=CLIENT|52=20220109-21:10:49.000|56=SERVER|10=154|
2022-01-09 15:10:49,176 : (Admin) S >> 8=FIX.4.3|9=56|35=0|34=68|49=SERVER|52=20220109-21:10:49.000|56=CLIENT|10=154|
2022-01-09 15:11:19,258 : (Admin) R << 8=FIX.4.3|9=56|35=0|34=69|49=CLIENT|52=20220109-21:11:19.000|56=SERVER|10=153|
2022-01-09 15:11:19,259 : (Admin) S >> 8=FIX.4.3|9=56|35=0|34=69|49=SERVER|52=20220109-21:11:19.000|56=CLIENT|10=153|
2022-01-09 15:11:49,097 : (Admin) R << 8=FIX.4.3|9=56|35=0|34=70|49=CLIENT|52=20220109-21:11:49.000|56=SERVER|10=148|
2022-01-09 15:11:49,098 : (Admin) S >> 8=FIX.4.3|9=56|35=0|34=70|49=SERVER|52=20220109-21:11:49.000|56=CLIENT|10=148|
2022-01-09 15:12:19,093 : (Admin) R << 8=FIX.4.3|9=56|35=0|34=71|49=CLIENT|52=20220109-21:12:19.000|56=SERVER|10=147|
2022-01-09 15:12:19,094 : (Admin) S >> 8=FIX.4.3|9=56|35=0|34=71|49=SERVER|52=20220109-21:12:19.000|56=CLIENT|10=147|
2022-01-09 15:12:52,589 : (Admin) S >> 8=FIX.4.3|9=56|35=0|34=72|49=SERVER|52=20220109-21:12:52.000|56=CLIENT|10=145|
2022-01-09 15:12:52,592 : (Admin) R << 8=FIX.4.3|9=56|35=0|34=72|49=CLIENT|52=20220109-21:12:52.000|56=SERVER|10=145|
2022-01-09 15:13:22,625 : (Admin) S >> 8=FIX.4.3|9=56|35=0|34=73|49=SERVER|52=20220109-21:13:22.000|56=CLIENT|10=144|
2022-01-09 15:13:22,629 : (Admin) R << 8=FIX.4.3|9=56|35=0|34=73|49=CLIENT|52=20220109-21:13:22.000|56=SERVER|10=144|
2022-01-09 15:13:52,723 : (Admin) S >> 8=FIX.4.3|9=56|35=0|34=74|49=SERVER|52=20220109-21:13:52.000|56=CLIENT|10=148|
2022-01-09 15:13:52,727 : (Admin) R << 8=FIX.4.3|9=56|35=0|34=74|49=CLIENT|52=20220109-21:13:52.000|56=SERVER|10=148|
2022-01-09 15:14:22,218 : (Admin) S >> 8=FIX.4.3|9=56|35=0|34=75|49=SERVER|52=20220109-21:14:22.000|56=CLIENT|10=147|
2022-01-09 15:14:22,222 : (Admin) R << 8=FIX.4.3|9=56|35=0|34=75|49=CLIENT|52=20220109-21:14:22.000|56=SERVER|10=147|
2022-01-09 15:14:52,217 : (Admin) S >> 8=FIX.4.3|9=56|35=0|34=76|49=SERVER|52=20220109-21:14:52.000|56=CLIENT|10=151|
2022-01-09 15:14:52,220 : (Admin) R << 8=FIX.4.3|9=56|35=0|34=76|49=CLIENT|52=20220109-21:14:52.000|56=SERVER|10=151|
2022-01-09 15:15:22,436 : (Admin) S >> 8=FIX.4.3|9=56|35=0|34=77|49=SERVER|52=20220109-21:15:22.000|56=CLIENT|10=150|
2022-01-09 15:15:22,440 : (Admin) R << 8=FIX.4.3|9=56|35=0|34=77|49=CLIENT|52=20220109-21:15:22.000|56=SERVER|10=150|
2022-01-09 15:15:52,702 : (Admin) R << 8=FIX.4.3|9=56|35=0|34=78|49=CLIENT|52=20220109-21:15:52.000|56=SERVER|10=154|
2022-01-09 15:15:52,703 : (Admin) S >> 8=FIX.4.3|9=56|35=0|34=78|49=SERVER|52=20220109-21:15:52.000|56=CLIENT|10=154|
2022-01-09 15:16:22,215 : (Admin) R << 8=FIX.4.3|9=56|35=0|34=79|49=CLIENT|52=20220109-21:16:22.000|56=SERVER|10=153|
2022-01-09 15:16:22,216 : (Admin) S >> 8=FIX.4.3|9=56|35=0|34=79|49=SERVER|52=20220109-21:16:22.000|56=CLIENT|10=153|
2022-01-09 15:16:52,043 : (Admin) R << 8=FIX.4.3|9=56|35=0|34=80|49=CLIENT|52=20220109-21:16:52.000|56=SERVER|10=148|
2022-01-09 15:16:52,044 : (Admin) S >> 8=FIX.4.3|9=56|35=0|34=80|49=SERVER|52=20220109-21:16:52.000|56=CLIENT|10=148|
2022-01-09 15:17:22,230 : (Admin) R << 8=FIX.4.3|9=56|35=0|34=81|49=CLIENT|52=20220109-21:17:22.000|56=SERVER|10=147|
2022-01-09 15:17:22,231 : (Admin) S >> 8=FIX.4.3|9=56|35=0|34=81|49=SERVER|52=20220109-21:17:22.000|56=CLIENT|10=147|
2022-01-09 15:18:01,816 : (Admin) S >> 8=FIX.4.3|9=65|35=1|34=82|49=SERVER|52=20220109-21:18:01.000|56=CLIENT|112=TEST|10=165|
2022-01-09 15:18:01,821 : (Admin) R << 8=FIX.4.3|9=65|35=0|34=82|49=CLIENT|52=20220109-21:18:01.000|56=SERVER|112=TEST|10=164|
2022-01-09 15:18:31,096 : (Admin) S >> 8=FIX.4.3|9=56|35=0|34=83|49=SERVER|52=20220109-21:18:31.000|56=CLIENT|10=150|
2022-01-09 15:18:31,100 : (Admin) R << 8=FIX.4.3|9=56|35=0|34=83|49=CLIENT|52=20220109-21:18:31.000|56=SERVER|10=150|
2022-01-09 15:19:01,226 : (Admin) S >> 8=FIX.4.3|9=56|35=0|34=84|49=SERVER|52=20220109-21:19:01.000|56=CLIENT|10=149|
2022-01-09 15:19:01,229 : (Admin) R << 8=FIX.4.3|9=56|35=0|34=84|49=CLIENT|52=20220109-21:19:01.000|56=SERVER|10=149|
2022-01-09 15:19:31,192 : (Admin) R << 8=FIX.4.3|9=56|35=0|34=85|49=CLIENT|52=20220109-21:19:31.000|56=SERVER|10=153|
2022-01-09 15:19:31,193 : (Admin) S >> 8=FIX.4.3|9=56|35=0|34=85|49=SERVER|52=20220109-21:19:31.000|56=CLIENT|10=153|
2022-01-09 15:20:01,059 : (Admin) R << 8=FIX.4.3|9=56|35=0|34=86|49=CLIENT|52=20220109-21:20:01.000|56=SERVER|10=143|
2022-01-09 15:20:01,059 : (Admin) S >> 8=FIX.4.3|9=56|35=0|34=86|49=SERVER|52=20220109-21:20:01.000|56=CLIENT|10=143|
2022-01-09 15:20:31,274 : (Admin) S >> 8=FIX.4.3|9=56|35=0|34=87|49=SERVER|52=20220109-21:20:31.000|56=CLIENT|10=147|
2022-01-09 15:20:31,277 : (Admin) R << 8=FIX.4.3|9=56|35=0|34=87|49=CLIENT|52=20220109-21:20:31.000|56=SERVER|10=147|
2022-01-09 15:21:01,501 : (Admin) R << 8=FIX.4.3|9=56|35=0|34=88|49=CLIENT|52=20220109-21:21:01.000|56=SERVER|10=146|
2022-01-09 15:21:01,502 : (Admin) S >> 8=FIX.4.3|9=56|35=0|34=88|49=SERVER|52=20220109-21:21:01.000|56=CLIENT|10=146|
2022-01-09 15:27:47,331 : (Admin) R << 8=FIX.4.3|9=73|35=A|34=1|49=CLIENT|52=20220109-21:27:47.000|56=SERVER|98=0|108=30|141=Y|10=185|
2022-01-09 15:27:47,331 : (Admin) S >> 8=FIX.4.3|9=73|35=A|34=1|49=SERVER|52=20220109-21:27:47.000|56=CLIENT|98=0|108=30|141=Y|10=185|
2022-01-09 15:28:17,318 : (Admin) S >> 8=FIX.4.3|9=55|35=0|34=2|49=SERVER|52=20220109-21:28:17.000|56=CLIENT|10=097|
2022-01-09 15:28:17,322 : (Admin) R << 8=FIX.4.3|9=55|35=0|34=2|49=CLIENT|52=20220109-21:28:17.000|56=SERVER|10=097|
2022-01-09 15:28:47,502 : (Admin) S >> 8=FIX.4.3|9=55|35=0|34=3|49=SERVER|52=20220109-21:28:47.000|56=CLIENT|10=101|
2022-01-09 15:28:47,506 : (Admin) R << 8=FIX.4.3|9=55|35=0|34=3|49=CLIENT|52=20220109-21:28:47.000|56=SERVER|10=101|
2022-01-09 15:29:17,223 : (Admin) R << 8=FIX.4.3|9=55|35=0|34=4|49=CLIENT|52=20220109-21:29:17.000|56=SERVER|10=100|
2022-01-09 15:29:17,224 : (Admin) S >> 8=FIX.4.3|9=55|35=0|34=4|49=SERVER|52=20220109-21:29:17.000|56=CLIENT|10=100|
2022-01-09 15:29:47,108 : (Admin) S >> 8=FIX.4.3|9=55|35=0|34=5|49=SERVER|52=20220109-21:29:47.000|56=CLIENT|10=104|
2022-01-09 15:29:47,112 : (Admin) R << 8=FIX.4.3|9=55|35=0|34=5|49=CLIENT|52=20220109-21:29:47.000|56=SERVER|10=104|
2022-01-09 15:32:13,314 : (Admin) R << 8=FIX.4.3|9=73|35=A|34=1|49=CLIENT|52=20220109-21:32:13.000|56=SERVER|98=0|108=30|141=Y|10=174|
2022-01-09 15:32:13,314 : (Admin) S >> 8=FIX.4.3|9=73|35=A|34=1|49=SERVER|52=20220109-21:32:13.000|56=CLIENT|98=0|108=30|141=Y|10=174|
2022-01-09 15:32:43,254 : (Admin) S >> 8=FIX.4.3|9=55|35=0|34=2|49=SERVER|52=20220109-21:32:43.000|56=CLIENT|10=091|
2022-01-09 15:32:43,258 : (Admin) R << 8=FIX.4.3|9=55|35=0|34=2|49=CLIENT|52=20220109-21:32:43.000|56=SERVER|10=091|
2022-01-09 15:33:13,065 : (Admin) R << 8=FIX.4.3|9=55|35=0|34=3|49=CLIENT|52=20220109-21:33:13.000|56=SERVER|10=090|
2022-01-09 15:33:13,066 : (Admin) S >> 8=FIX.4.3|9=55|35=0|34=3|49=SERVER|52=20220109-21:33:13.000|56=CLIENT|10=090|
2022-01-09 15:33:43,069 : (Admin) S >> 8=FIX.4.3|9=55|35=0|34=4|49=SERVER|52=20220109-21:33:43.000|56=CLIENT|10=094|
2022-01-09 15:33:43,072 : (Admin) R << 8=FIX.4.3|9=55|35=0|34=4|49=CLIENT|52=20220109-21:33:43.000|56=SERVER|10=094|
2022-01-09 15:34:13,251 : (Admin) R << 8=FIX.4.3|9=55|35=0|34=5|49=CLIENT|52=20220109-21:34:13.000|56=SERVER|10=093|
2022-01-09 15:34:13,252 : (Admin) S >> 8=FIX.4.3|9=55|35=0|34=5|49=SERVER|52=20220109-21:34:13.000|56=CLIENT|10=093|
2022-01-09 15:34:43,227 : (Admin) R << 8=FIX.4.3|9=55|35=0|34=6|49=CLIENT|52=20220109-21:34:43.000|56=SERVER|10=097|
