2022-01-12 17:49:32,386 : (Admin) R << 8=FIX.4.3|9=73|35=A|34=1|49=CLIENT|52=20220112-23:49:32.000|56=SERVER|98=0|108=30|141=Y|10=179|
2022-01-12 17:49:32,387 : (Admin) S >> 8=FIX.4.3|9=73|35=A|34=1|49=SERVER|52=20220112-23:49:32.000|56=CLIENT|98=0|108=30|141=Y|10=179|
2022-01-12 17:50:02,392 : (Admin) S >> 8=FIX.4.3|9=55|35=0|34=2|49=SERVER|52=20220112-23:50:02.000|56=CLIENT|10=082|
2022-01-12 17:50:02,394 : (Admin) R << 8=FIX.4.3|9=55|35=0|34=2|49=CLIENT|52=20220112-23:50:02.000|56=SERVER|10=082|
2022-01-12 17:50:32,303 : (Admin) S >> 8=FIX.4.3|9=55|35=0|34=3|49=SERVER|52=20220112-23:50:32.000|56=CLIENT|10=086|
2022-01-12 17:50:32,304 : (Admin) R << 8=FIX.4.3|9=55|35=0|34=3|49=CLIENT|52=20220112-23:50:32.000|56=SERVER|10=086|
2022-01-12 17:51:02,144 : (Admin) S >> 8=FIX.4.3|9=55|35=0|34=4|49=SERVER|52=20220112-23:51:02.000|56=CLIENT|10=085|
2022-01-12 17:51:02,144 : (Admin) R << 8=FIX.4.3|9=55|35=0|34=4|49=CLIENT|52=20220112-23:51:02.000|56=SERVER|10=085|
2022-01-12 17:51:32,902 : (Admin) S >> 8=FIX.4.3|9=55|35=0|34=5|49=SERVER|52=20220112-23:51:32.000|56=CLIENT|10=089|
2022-01-12 17:51:32,904 : (Admin) R << 8=FIX.4.3|9=55|35=0|34=5|49=CLIENT|52=20220112-23:51:32.000|56=SERVER|10=089|
2022-01-12 17:52:02,578 : (Admin) S >> 8=FIX.4.3|9=55|35=0|34=6|49=SERVER|52=20220112-23:52:02.000|56=CLIENT|10=088|
2022-01-12 17:52:02,580 : (Admin) R << 8=FIX.4.3|9=55|35=0|34=6|49=CLIENT|52=20220112-23:52:02.000|56=SERVER|10=088|
2022-01-12 17:52:32,146 : (Admin) S >> 8=FIX.4.3|9=55|35=0|34=7|49=SERVER|52=20220112-23:52:32.000|56=CLIENT|10=092|
2022-01-12 17:52:32,148 : (Admin) R << 8=FIX.4.3|9=55|35=0|34=7|49=CLIENT|52=20220112-23:52:32.000|56=SERVER|10=092|
2022-01-12 17:53:02,607 : (Admin) S >> 8=FIX.4.3|9=55|35=0|34=8|49=SERVER|52=20220112-23:53:02.000|56=CLIENT|10=091|
2022-01-12 17:53:02,610 : (Admin) R << 8=FIX.4.3|9=55|35=0|34=8|49=CLIENT|52=20220112-23:53:02.000|56=SERVER|10=091|
2022-01-12 17:53:32,194 : (Admin) R << 8=FIX.4.3|9=55|35=0|34=9|49=CLIENT|52=20220112-23:53:32.000|56=SERVER|10=095|
2022-01-12 17:53:32,195 : (Admin) S >> 8=FIX.4.3|9=55|35=0|34=9|49=SERVER|52=20220112-23:53:32.000|56=CLIENT|10=095|
