2022-01-12 17:49:32,386 : (Admin) R << 8=FIX.4.3|9=73|35=A|34=1|49=CLIENT|52=20220112-23:49:32.000|56=SERVER|98=0|108=30|141=Y|10=179|
2022-01-12 17:49:32,387 : (Admin) S >> 8=FIX.4.3|9=73|35=A|34=1|49=SERVER|52=20220112-23:49:32.000|56=CLIENT|98=0|108=30|141=Y|10=179|
2022-01-12 17:50:02,392 : (Admin) S >> 8=FIX.4.3|9=55|35=0|34=2|49=SERVER|52=20220112-23:50:02.000|56=CLIENT|10=082|
2022-01-12 17:50:02,394 : (Admin) R << 8=FIX.4.3|9=55|35=0|34=2|49=CLIENT|52=20220112-23:50:02.000|56=SERVER|10=082|
2022-01-12 17:50:32,303 : (Admin) S >> 8=FIX.4.3|9=55|35=0|34=3|49=SERVER|52=20220112-23:50:32.000|56=CLIENT|10=086|
2022-01-12 17:50:32,304 : (Admin) R << 8=FIX.4.3|9=55|35=0|34=3|49=CLIENT|52=20220112-23:50:32.000|56=SERVER|10=086|
