2022-01-09 16:55:56,800 : (Admin) S >> 8=FIX.4.3|9=73|35=A|34=1|49=CLIENT|52=20220109-22:55:56.000|56=SERVER|98=0|108=30|141=Y|10=187|
2022-01-09 16:55:56,801 : (Admin) R << 8=FIX.4.3|9=73|35=A|34=1|49=SERVER|52=20220109-22:55:56.000|56=CLIENT|98=0|108=30|141=Y|10=187|
2022-01-09 16:55:57,807 : (App) S >> 8=FIX.4.3|9=151|35=D|34=2|49=CLIENT|52=20220109-22:55:57.000|56=SERVER|11=00001|21=3|38=10000|40=2|44=100|54=1|55=MSFT|58=NewOrderSingle|59=0|60=20220109-22:55:57.807|10=086|
2022-01-09 16:55:57,808 : (App) R << 8=FIX.4.3|9=152|35=8|34=2|49=SERVER|52=20220109-22:55:57.000|56=CLIENT|6=100|11=00001|14=10000|17=00045|31=100|32=10000|37=00045|38=10000|39=2|54=1|55=MSFT|150=2|151=0|10=008|
2022-01-09 16:55:58,870 : (App) S >> 8=FIX.4.3|9=151|35=D|34=3|49=CLIENT|52=20220109-22:55:58.000|56=SERVER|11=00002|21=3|38=10000|40=2|44=100|54=2|55=MSFT|58=NewOrderSingle|59=0|60=20220109-22:55:58.870|10=091|
2022-01-09 16:55:58,872 : (App) R << 8=FIX.4.3|9=152|35=8|34=3|49=SERVER|52=20220109-22:55:58.000|56=CLIENT|6=100|11=00002|14=10000|17=00046|31=100|32=10000|37=00046|38=10000|39=2|54=2|55=MSFT|150=2|151=0|10=014|
2022-01-09 16:56:28,171 : (Admin) R << 8=FIX.4.3|9=55|35=0|34=4|49=SERVER|52=20220109-22:56:28.000|56=CLIENT|10=103|
2022-01-09 16:56:28,171 : (Admin) S >> 8=FIX.4.3|9=55|35=0|34=4|49=CLIENT|52=20220109-22:56:28.000|56=SERVER|10=103|
2022-01-09 16:56:58,068 : (Admin) S >> 8=FIX.4.3|9=55|35=0|34=5|49=CLIENT|52=20220109-22:56:58.000|56=SERVER|10=107|
2022-01-09 16:56:58,071 : (Admin) R << 8=FIX.4.3|9=55|35=0|34=5|49=SERVER|52=20220109-22:56:58.000|56=CLIENT|10=107|
2022-01-09 16:57:28,260 : (Admin) R << 8=FIX.4.3|9=55|35=0|34=6|49=SERVER|52=20220109-22:57:28.000|56=CLIENT|10=106|
2022-01-09 16:57:28,261 : (Admin) S >> 8=FIX.4.3|9=55|35=0|34=6|49=CLIENT|52=20220109-22:57:28.000|56=SERVER|10=106|
2022-01-09 16:57:58,233 : (Admin) R << 8=FIX.4.3|9=55|35=0|34=7|49=SERVER|52=20220109-22:57:58.000|56=CLIENT|10=110|
2022-01-09 16:57:58,233 : (Admin) S >> 8=FIX.4.3|9=55|35=0|34=7|49=CLIENT|52=20220109-22:57:58.000|56=SERVER|10=110|
2022-01-09 16:58:28,231 : (Admin) R << 8=FIX.4.3|9=55|35=0|34=8|49=SERVER|52=20220109-22:58:28.000|56=CLIENT|10=109|
2022-01-09 16:58:28,232 : (Admin) S >> 8=FIX.4.3|9=55|35=0|34=8|49=CLIENT|52=20220109-22:58:28.000|56=SERVER|10=109|
2022-01-09 16:58:58,183 : (Admin) R << 8=FIX.4.3|9=55|35=0|34=9|49=SERVER|52=20220109-22:58:58.000|56=CLIENT|10=113|
2022-01-09 16:58:58,183 : (Admin) S >> 8=FIX.4.3|9=55|35=0|34=9|49=CLIENT|52=20220109-22:58:58.000|56=SERVER|10=113|
2022-01-09 16:59:28,213 : (Admin) R << 8=FIX.4.3|9=56|35=0|34=10|49=SERVER|52=20220109-22:59:28.000|56=CLIENT|10=152|
2022-01-09 16:59:28,213 : (Admin) S >> 8=FIX.4.3|9=56|35=0|34=10|49=CLIENT|52=20220109-22:59:28.000|56=SERVER|10=152|
2022-01-09 16:59:58,064 : (Admin) R << 8=FIX.4.3|9=56|35=0|34=11|49=SERVER|52=20220109-22:59:58.000|56=CLIENT|10=156|
2022-01-09 16:59:58,064 : (Admin) S >> 8=FIX.4.3|9=56|35=0|34=11|49=CLIENT|52=20220109-22:59:58.000|56=SERVER|10=156|
2022-01-09 17:00:28,144 : (Admin) R << 8=FIX.4.3|9=56|35=0|34=12|49=SERVER|52=20220109-23:00:28.000|56=CLIENT|10=141|
2022-01-09 17:00:28,144 : (Admin) S >> 8=FIX.4.3|9=56|35=0|34=12|49=CLIENT|52=20220109-23:00:28.000|56=SERVER|10=141|
2022-01-09 17:00:58,008 : (Admin) R << 8=FIX.4.3|9=56|35=0|34=13|49=SERVER|52=20220109-23:00:58.000|56=CLIENT|10=145|
2022-01-09 17:00:58,008 : (Admin) S >> 8=FIX.4.3|9=56|35=0|34=13|49=CLIENT|52=20220109-23:00:58.000|56=SERVER|10=145|
2022-01-09 17:01:28,054 : (Admin) R << 8=FIX.4.3|9=56|35=0|34=14|49=SERVER|52=20220109-23:01:28.000|56=CLIENT|10=144|
2022-01-09 17:01:28,054 : (Admin) S >> 8=FIX.4.3|9=56|35=0|34=14|49=CLIENT|52=20220109-23:01:28.000|56=SERVER|10=144|
2022-01-09 17:01:58,170 : (Admin) R << 8=FIX.4.3|9=56|35=0|34=15|49=SERVER|52=20220109-23:01:58.000|56=CLIENT|10=148|
2022-01-09 17:01:58,170 : (Admin) S >> 8=FIX.4.3|9=56|35=0|34=15|49=CLIENT|52=20220109-23:01:58.000|56=SERVER|10=148|
2022-01-09 17:02:28,167 : (Admin) R << 8=FIX.4.3|9=56|35=0|34=16|49=SERVER|52=20220109-23:02:28.000|56=CLIENT|10=147|
2022-01-09 17:02:28,167 : (Admin) S >> 8=FIX.4.3|9=56|35=0|34=16|49=CLIENT|52=20220109-23:02:28.000|56=SERVER|10=147|
2022-01-09 17:02:58,074 : (Admin) R << 8=FIX.4.3|9=56|35=0|34=17|49=SERVER|52=20220109-23:02:58.000|56=CLIENT|10=151|
2022-01-09 17:02:58,075 : (Admin) S >> 8=FIX.4.3|9=56|35=0|34=17|49=CLIENT|52=20220109-23:02:58.000|56=SERVER|10=151|
2022-01-09 17:03:07,493 : (App) S >> 8=FIX.4.3|9=152|35=D|34=18|49=CLIENT|52=20220109-23:03:07.000|56=SERVER|11=00003|21=3|38=10000|40=2|44=100|54=1|55=MSFT|58=NewOrderSingle|59=0|60=20220109-23:03:07.493|10=123|
2022-01-09 17:03:07,494 : (App) R << 8=FIX.4.3|9=153|35=8|34=18|49=SERVER|52=20220109-23:03:07.000|56=CLIENT|6=100|11=00003|14=10000|17=00047|31=100|32=10000|37=00047|38=10000|39=2|54=1|55=MSFT|150=2|151=0|10=059|
2022-01-09 17:03:10,614 : (App) S >> 8=FIX.4.3|9=152|35=D|34=19|49=CLIENT|52=20220109-23:03:10.000|56=SERVER|11=00004|21=3|38=10000|40=2|44=100|54=2|55=MSFT|58=NewOrderSingle|59=0|60=20220109-23:03:10.614|10=109|
2022-01-09 17:03:10,615 : (App) R << 8=FIX.4.3|9=153|35=8|34=19|49=SERVER|52=20220109-23:03:10.000|56=CLIENT|6=100|11=00004|14=10000|17=00048|31=100|32=10000|37=00048|38=10000|39=2|54=2|55=MSFT|150=2|151=0|10=058|
2022-01-09 17:03:40,154 : (Admin) R << 8=FIX.4.3|9=56|35=0|34=20|49=SERVER|52=20220109-23:03:40.000|56=CLIENT|10=137|
2022-01-09 17:03:40,154 : (Admin) S >> 8=FIX.4.3|9=56|35=0|34=20|49=CLIENT|52=20220109-23:03:40.000|56=SERVER|10=137|
2022-01-09 17:04:10,077 : (Admin) R << 8=FIX.4.3|9=56|35=0|34=21|49=SERVER|52=20220109-23:04:10.000|56=CLIENT|10=136|
2022-01-09 17:04:10,077 : (Admin) S >> 8=FIX.4.3|9=56|35=0|34=21|49=CLIENT|52=20220109-23:04:10.000|56=SERVER|10=136|
2022-01-09 17:04:40,074 : (Admin) R << 8=FIX.4.3|9=56|35=0|34=22|49=SERVER|52=20220109-23:04:40.000|56=CLIENT|10=140|
2022-01-09 17:04:40,074 : (Admin) S >> 8=FIX.4.3|9=56|35=0|34=22|49=CLIENT|52=20220109-23:04:40.000|56=SERVER|10=140|
2022-01-09 17:05:10,007 : (Admin) R << 8=FIX.4.3|9=56|35=0|34=23|49=SERVER|52=20220109-23:05:10.000|56=CLIENT|10=139|
2022-01-09 17:05:10,008 : (Admin) S >> 8=FIX.4.3|9=56|35=0|34=23|49=CLIENT|52=20220109-23:05:10.000|56=SERVER|10=139|
2022-01-09 17:05:40,109 : (Admin) R << 8=FIX.4.3|9=56|35=0|34=24|49=SERVER|52=20220109-23:05:40.000|56=CLIENT|10=143|
2022-01-09 17:05:40,110 : (Admin) S >> 8=FIX.4.3|9=56|35=0|34=24|49=CLIENT|52=20220109-23:05:40.000|56=SERVER|10=143|
2022-01-09 17:06:10,056 : (Admin) R << 8=FIX.4.3|9=56|35=0|34=25|49=SERVER|52=20220109-23:06:10.000|56=CLIENT|10=142|
2022-01-09 17:06:10,056 : (Admin) S >> 8=FIX.4.3|9=56|35=0|34=25|49=CLIENT|52=20220109-23:06:10.000|56=SERVER|10=142|
2022-01-09 17:06:40,021 : (Admin) R << 8=FIX.4.3|9=56|35=0|34=26|49=SERVER|52=20220109-23:06:40.000|56=CLIENT|10=146|
2022-01-09 17:06:40,022 : (Admin) S >> 8=FIX.4.3|9=56|35=0|34=26|49=CLIENT|52=20220109-23:06:40.000|56=SERVER|10=146|
2022-01-09 17:07:10,147 : (Admin) S >> 8=FIX.4.3|9=56|35=0|34=27|49=CLIENT|52=20220109-23:07:10.000|56=SERVER|10=145|
2022-01-09 17:07:10,152 : (Admin) R << 8=FIX.4.3|9=56|35=0|34=27|49=SERVER|52=20220109-23:07:10.000|56=CLIENT|10=145|
2022-01-09 17:07:40,004 : (Admin) R << 8=FIX.4.3|9=56|35=0|34=28|49=SERVER|52=20220109-23:07:40.000|56=CLIENT|10=149|
2022-01-09 17:07:40,005 : (Admin) S >> 8=FIX.4.3|9=56|35=0|34=28|49=CLIENT|52=20220109-23:07:40.000|56=SERVER|10=149|
2022-01-09 17:08:10,587 : (Admin) R << 8=FIX.4.3|9=56|35=0|34=29|49=SERVER|52=20220109-23:08:10.000|56=CLIENT|10=148|
2022-01-09 17:08:10,587 : (Admin) S >> 8=FIX.4.3|9=56|35=0|34=29|49=CLIENT|52=20220109-23:08:10.000|56=SERVER|10=148|
2022-01-09 17:08:40,110 : (Admin) S >> 8=FIX.4.3|9=56|35=0|34=30|49=CLIENT|52=20220109-23:08:40.000|56=SERVER|10=143|
2022-01-09 17:08:40,114 : (Admin) R << 8=FIX.4.3|9=56|35=0|34=30|49=SERVER|52=20220109-23:08:40.000|56=CLIENT|10=143|
2022-01-09 17:09:10,212 : (Admin) R << 8=FIX.4.3|9=56|35=0|34=31|49=SERVER|52=20220109-23:09:10.000|56=CLIENT|10=142|
2022-01-09 17:09:10,213 : (Admin) S >> 8=FIX.4.3|9=56|35=0|34=31|49=CLIENT|52=20220109-23:09:10.000|56=SERVER|10=142|
2022-01-09 17:09:40,045 : (Admin) R << 8=FIX.4.3|9=56|35=0|34=32|49=SERVER|52=20220109-23:09:40.000|56=CLIENT|10=146|
2022-01-09 17:09:40,046 : (Admin) S >> 8=FIX.4.3|9=56|35=0|34=32|49=CLIENT|52=20220109-23:09:40.000|56=SERVER|10=146|
2022-01-09 17:10:10,629 : (Admin) R << 8=FIX.4.3|9=56|35=0|34=33|49=SERVER|52=20220109-23:10:10.000|56=CLIENT|10=136|
2022-01-09 17:10:10,629 : (Admin) S >> 8=FIX.4.3|9=56|35=0|34=33|49=CLIENT|52=20220109-23:10:10.000|56=SERVER|10=136|
2022-01-09 17:10:40,318 : (Admin) S >> 8=FIX.4.3|9=56|35=0|34=34|49=CLIENT|52=20220109-23:10:40.000|56=SERVER|10=140|
2022-01-09 17:10:40,326 : (Admin) R << 8=FIX.4.3|9=56|35=0|34=34|49=SERVER|52=20220109-23:10:40.000|56=CLIENT|10=140|
2022-01-09 17:11:10,414 : (Admin) R << 8=FIX.4.3|9=56|35=0|34=35|49=SERVER|52=20220109-23:11:10.000|56=CLIENT|10=139|
2022-01-09 17:11:10,415 : (Admin) S >> 8=FIX.4.3|9=56|35=0|34=35|49=CLIENT|52=20220109-23:11:10.000|56=SERVER|10=139|
2022-01-09 17:11:40,271 : (Admin) R << 8=FIX.4.3|9=56|35=0|34=36|49=SERVER|52=20220109-23:11:40.000|56=CLIENT|10=143|
2022-01-09 17:11:40,272 : (Admin) S >> 8=FIX.4.3|9=56|35=0|34=36|49=CLIENT|52=20220109-23:11:40.000|56=SERVER|10=143|
2022-01-09 17:12:10,150 : (Admin) S >> 8=FIX.4.3|9=56|35=0|34=37|49=CLIENT|52=20220109-23:12:10.000|56=SERVER|10=142|
2022-01-09 17:12:10,152 : (Admin) R << 8=FIX.4.3|9=56|35=0|34=37|49=SERVER|52=20220109-23:12:10.000|56=CLIENT|10=142|
2022-01-09 17:12:40,384 : (Admin) R << 8=FIX.4.3|9=56|35=0|34=38|49=SERVER|52=20220109-23:12:40.000|56=CLIENT|10=146|
2022-01-09 17:12:40,385 : (Admin) S >> 8=FIX.4.3|9=56|35=0|34=38|49=CLIENT|52=20220109-23:12:40.000|56=SERVER|10=146|
2022-01-09 17:13:10,329 : (Admin) R << 8=FIX.4.3|9=56|35=0|34=39|49=SERVER|52=20220109-23:13:10.000|56=CLIENT|10=145|
2022-01-09 17:13:10,329 : (Admin) S >> 8=FIX.4.3|9=56|35=0|34=39|49=CLIENT|52=20220109-23:13:10.000|56=SERVER|10=145|
2022-01-09 17:13:40,385 : (Admin) S >> 8=FIX.4.3|9=56|35=0|34=40|49=CLIENT|52=20220109-23:13:40.000|56=SERVER|10=140|
2022-01-09 17:13:40,389 : (Admin) R << 8=FIX.4.3|9=56|35=0|34=40|49=SERVER|52=20220109-23:13:40.000|56=CLIENT|10=140|
2022-01-09 17:14:10,209 : (Admin) S >> 8=FIX.4.3|9=56|35=0|34=41|49=CLIENT|52=20220109-23:14:10.000|56=SERVER|10=139|
2022-01-09 17:14:10,212 : (Admin) R << 8=FIX.4.3|9=56|35=0|34=41|49=SERVER|52=20220109-23:14:10.000|56=CLIENT|10=139|
2022-01-09 17:14:40,237 : (Admin) R << 8=FIX.4.3|9=56|35=0|34=42|49=SERVER|52=20220109-23:14:40.000|56=CLIENT|10=143|
2022-01-09 17:14:40,237 : (Admin) S >> 8=FIX.4.3|9=56|35=0|34=42|49=CLIENT|52=20220109-23:14:40.000|56=SERVER|10=143|
2022-01-09 17:15:10,462 : (Admin) S >> 8=FIX.4.3|9=56|35=0|34=43|49=CLIENT|52=20220109-23:15:10.000|56=SERVER|10=142|
2022-01-09 17:15:10,464 : (Admin) R << 8=FIX.4.3|9=56|35=0|34=43|49=SERVER|52=20220109-23:15:10.000|56=CLIENT|10=142|
2022-01-09 17:16:07,259 : (Admin) S >> 8=FIX.4.3|9=65|35=1|34=44|49=CLIENT|52=20220109-23:16:07.000|56=SERVER|112=TEST|10=169|
2022-01-09 17:16:07,263 : (Admin) R << 8=FIX.4.3|9=65|35=0|34=44|49=SERVER|52=20220109-23:16:07.000|56=CLIENT|112=TEST|10=168|
2022-01-09 17:16:37,362 : (Admin) R << 8=FIX.4.3|9=56|35=0|34=45|49=SERVER|52=20220109-23:16:37.000|56=CLIENT|10=154|
2022-01-09 17:16:37,363 : (Admin) S >> 8=FIX.4.3|9=56|35=0|34=45|49=CLIENT|52=20220109-23:16:37.000|56=SERVER|10=154|
2022-01-09 17:18:56,491 : (Admin) S >> 8=FIX.4.3|9=73|35=A|34=1|49=CLIENT|52=20220109-23:18:56.000|56=SERVER|98=0|108=30|141=Y|10=187|
2022-01-09 17:18:56,497 : (Admin) R << 8=FIX.4.3|9=73|35=A|34=1|49=SERVER|52=20220109-23:18:56.000|56=CLIENT|98=0|108=30|141=Y|10=187|
2022-01-09 17:19:26,105 : (Admin) S >> 8=FIX.4.3|9=55|35=0|34=2|49=CLIENT|52=20220109-23:19:26.000|56=SERVER|10=099|
2022-01-09 17:19:26,107 : (Admin) R << 8=FIX.4.3|9=55|35=0|34=2|49=SERVER|52=20220109-23:19:26.000|56=CLIENT|10=099|
2022-01-09 17:19:56,046 : (Admin) R << 8=FIX.4.3|9=55|35=0|34=3|49=SERVER|52=20220109-23:19:56.000|56=CLIENT|10=103|
2022-01-09 17:19:56,046 : (Admin) S >> 8=FIX.4.3|9=55|35=0|34=3|49=CLIENT|52=20220109-23:19:56.000|56=SERVER|10=103|
2022-01-09 17:20:26,333 : (Admin) R << 8=FIX.4.3|9=55|35=0|34=4|49=SERVER|52=20220109-23:20:26.000|56=CLIENT|10=093|
2022-01-09 17:20:26,333 : (Admin) S >> 8=FIX.4.3|9=55|35=0|34=4|49=CLIENT|52=20220109-23:20:26.000|56=SERVER|10=093|
2022-01-09 17:20:56,310 : (Admin) S >> 8=FIX.4.3|9=55|35=0|34=5|49=CLIENT|52=20220109-23:20:56.000|56=SERVER|10=097|
2022-01-09 17:20:56,312 : (Admin) R << 8=FIX.4.3|9=55|35=0|34=5|49=SERVER|52=20220109-23:20:56.000|56=CLIENT|10=097|
2022-01-09 17:21:26,250 : (Admin) R << 8=FIX.4.3|9=55|35=0|34=6|49=SERVER|52=20220109-23:21:26.000|56=CLIENT|10=096|
2022-01-09 17:21:26,250 : (Admin) S >> 8=FIX.4.3|9=55|35=0|34=6|49=CLIENT|52=20220109-23:21:26.000|56=SERVER|10=096|
2022-01-09 17:22:22,396 : (Admin) S >> 8=FIX.4.3|9=64|35=1|34=7|49=CLIENT|52=20220109-23:22:22.000|56=SERVER|112=TEST|10=113|
2022-01-09 17:22:22,400 : (Admin) R << 8=FIX.4.3|9=64|35=0|34=7|49=SERVER|52=20220109-23:22:22.000|56=CLIENT|112=TEST|10=112|
2022-01-09 17:22:52,385 : (Admin) S >> 8=FIX.4.3|9=55|35=0|34=8|49=CLIENT|52=20220109-23:22:52.000|56=SERVER|10=098|
2022-01-09 17:22:52,388 : (Admin) R << 8=FIX.4.3|9=55|35=0|34=8|49=SERVER|52=20220109-23:22:52.000|56=CLIENT|10=098|
2022-01-09 17:23:22,257 : (Admin) S >> 8=FIX.4.3|9=55|35=0|34=9|49=CLIENT|52=20220109-23:23:22.000|56=SERVER|10=097|
2022-01-09 17:23:22,260 : (Admin) R << 8=FIX.4.3|9=55|35=0|34=9|49=SERVER|52=20220109-23:23:22.000|56=CLIENT|10=097|
2022-01-09 17:23:52,453 : (Admin) S >> 8=FIX.4.3|9=56|35=0|34=10|49=CLIENT|52=20220109-23:23:52.000|56=SERVER|10=141|
2022-01-09 17:23:52,457 : (Admin) R << 8=FIX.4.3|9=56|35=0|34=10|49=SERVER|52=20220109-23:23:52.000|56=CLIENT|10=141|
2022-01-09 17:24:22,609 : (Admin) S >> 8=FIX.4.3|9=56|35=0|34=11|49=CLIENT|52=20220109-23:24:22.000|56=SERVER|10=140|
2022-01-09 17:24:22,612 : (Admin) R << 8=FIX.4.3|9=56|35=0|34=11|49=SERVER|52=20220109-23:24:22.000|56=CLIENT|10=140|
2022-01-09 17:24:58,350 : (Admin) R << 8=FIX.4.3|9=65|35=1|34=12|49=SERVER|52=20220109-23:24:58.000|56=CLIENT|112=TEST|10=169|
2022-01-09 17:24:58,350 : (Admin) S >> 8=FIX.4.3|9=65|35=0|34=12|49=CLIENT|52=20220109-23:24:58.000|56=SERVER|112=TEST|10=168|
2022-01-09 17:25:28,476 : (Admin) S >> 8=FIX.4.3|9=56|35=0|34=13|49=CLIENT|52=20220109-23:25:28.000|56=SERVER|10=149|
2022-01-09 17:25:28,479 : (Admin) R << 8=FIX.4.3|9=56|35=0|34=13|49=SERVER|52=20220109-23:25:28.000|56=CLIENT|10=149|
2022-01-09 17:25:58,189 : (Admin) S >> 8=FIX.4.3|9=56|35=0|34=14|49=CLIENT|52=20220109-23:25:58.000|56=SERVER|10=153|
2022-01-09 17:25:58,193 : (Admin) R << 8=FIX.4.3|9=56|35=0|34=14|49=SERVER|52=20220109-23:25:58.000|56=CLIENT|10=153|
2022-01-09 17:26:28,425 : (Admin) S >> 8=FIX.4.3|9=56|35=0|34=15|49=CLIENT|52=20220109-23:26:28.000|56=SERVER|10=152|
2022-01-09 17:26:28,430 : (Admin) R << 8=FIX.4.3|9=56|35=0|34=15|49=SERVER|52=20220109-23:26:28.000|56=CLIENT|10=152|
2022-01-09 17:26:58,143 : (Admin) R << 8=FIX.4.3|9=56|35=0|34=16|49=SERVER|52=20220109-23:26:58.000|56=CLIENT|10=156|
2022-01-09 17:26:58,144 : (Admin) S >> 8=FIX.4.3|9=56|35=0|34=16|49=CLIENT|52=20220109-23:26:58.000|56=SERVER|10=156|
2022-01-09 17:27:29,161 : (Admin) S >> 8=FIX.4.3|9=56|35=0|34=17|49=CLIENT|52=20220109-23:27:29.000|56=SERVER|10=156|
2022-01-09 17:27:29,165 : (Admin) R << 8=FIX.4.3|9=56|35=0|34=17|49=SERVER|52=20220109-23:27:29.000|56=CLIENT|10=156|
2022-01-09 17:27:59,133 : (Admin) S >> 8=FIX.4.3|9=56|35=0|34=18|49=CLIENT|52=20220109-23:27:59.000|56=SERVER|10=160|
2022-01-09 17:27:59,139 : (Admin) R << 8=FIX.4.3|9=56|35=0|34=18|49=SERVER|52=20220109-23:27:59.000|56=CLIENT|10=160|
2022-01-09 17:28:52,589 : (Admin) R << 8=FIX.4.3|9=65|35=1|34=19|49=SERVER|52=20220109-23:28:52.000|56=CLIENT|112=TEST|10=174|
2022-01-09 17:28:52,590 : (Admin) S >> 8=FIX.4.3|9=65|35=0|34=19|49=CLIENT|52=20220109-23:28:52.000|56=SERVER|112=TEST|10=173|
2022-01-09 17:29:22,072 : (Admin) S >> 8=FIX.4.3|9=56|35=0|34=20|49=CLIENT|52=20220109-23:29:22.000|56=SERVER|10=145|
2022-01-09 17:29:22,075 : (Admin) R << 8=FIX.4.3|9=56|35=0|34=20|49=SERVER|52=20220109-23:29:22.000|56=CLIENT|10=145|
2022-01-09 17:30:00,926 : (Admin) S >> 8=FIX.4.3|9=65|35=1|34=21|49=CLIENT|52=20220109-23:30:00.000|56=SERVER|112=TEST|10=153|
2022-01-09 17:30:00,932 : (Admin) R << 8=FIX.4.3|9=65|35=0|34=21|49=SERVER|52=20220109-23:30:00.000|56=CLIENT|112=TEST|10=152|
2022-01-09 17:30:30,476 : (Admin) S >> 8=FIX.4.3|9=56|35=0|34=22|49=CLIENT|52=20220109-23:30:30.000|56=SERVER|10=138|
2022-01-09 17:30:30,480 : (Admin) R << 8=FIX.4.3|9=56|35=0|34=22|49=SERVER|52=20220109-23:30:30.000|56=CLIENT|10=138|
2022-01-09 17:31:16,612 : (Admin) S >> 8=FIX.4.3|9=65|35=1|34=23|49=CLIENT|52=20220109-23:31:16.000|56=SERVER|112=TEST|10=163|
2022-01-09 17:31:16,616 : (Admin) R << 8=FIX.4.3|9=65|35=0|34=23|49=SERVER|52=20220109-23:31:16.000|56=CLIENT|112=TEST|10=162|
2022-01-09 17:31:46,313 : (Admin) S >> 8=FIX.4.3|9=56|35=0|34=24|49=CLIENT|52=20220109-23:31:46.000|56=SERVER|10=148|
2022-01-09 17:31:46,317 : (Admin) R << 8=FIX.4.3|9=56|35=0|34=24|49=SERVER|52=20220109-23:31:46.000|56=CLIENT|10=148|
2022-01-09 17:32:16,342 : (Admin) S >> 8=FIX.4.3|9=56|35=0|34=25|49=CLIENT|52=20220109-23:32:16.000|56=SERVER|10=147|
2022-01-09 17:32:16,345 : (Admin) R << 8=FIX.4.3|9=56|35=0|34=25|49=SERVER|52=20220109-23:32:16.000|56=CLIENT|10=147|
2022-01-09 17:32:46,052 : (Admin) S >> 8=FIX.4.3|9=56|35=0|34=26|49=CLIENT|52=20220109-23:32:46.000|56=SERVER|10=151|
2022-01-09 17:32:46,056 : (Admin) R << 8=FIX.4.3|9=56|35=0|34=26|49=SERVER|52=20220109-23:32:46.000|56=CLIENT|10=151|
2022-01-09 17:33:16,081 : (Admin) S >> 8=FIX.4.3|9=56|35=0|34=27|49=CLIENT|52=20220109-23:33:16.000|56=SERVER|10=150|
2022-01-09 17:33:16,085 : (Admin) R << 8=FIX.4.3|9=56|35=0|34=27|49=SERVER|52=20220109-23:33:16.000|56=CLIENT|10=150|
2022-01-09 17:33:46,441 : (Admin) S >> 8=FIX.4.3|9=56|35=0|34=28|49=CLIENT|52=20220109-23:33:46.000|56=SERVER|10=154|
2022-01-09 17:33:46,444 : (Admin) R << 8=FIX.4.3|9=56|35=0|34=28|49=SERVER|52=20220109-23:33:46.000|56=CLIENT|10=154|
2022-01-09 17:34:16,030 : (Admin) R << 8=FIX.4.3|9=56|35=0|34=29|49=SERVER|52=20220109-23:34:16.000|56=CLIENT|10=153|
2022-01-09 17:34:16,031 : (Admin) S >> 8=FIX.4.3|9=56|35=0|34=29|49=CLIENT|52=20220109-23:34:16.000|56=SERVER|10=153|
2022-01-09 17:36:22,742 : (Admin) S >> 8=FIX.4.3|9=73|35=A|34=1|49=CLIENT|52=20220109-23:36:22.000|56=SERVER|98=0|108=30|141=Y|10=180|
2022-01-09 17:37:22,706 : (Admin) S >> 8=FIX.4.3|9=73|35=A|34=1|49=CLIENT|52=20220109-23:37:22.000|56=SERVER|98=0|108=30|141=Y|10=181|
2022-01-09 17:37:22,883 : (Admin) R << 8=FIX.4.3|9=73|35=A|34=1|49=SERVER|52=20220109-23:37:22.000|56=CLIENT|98=0|108=30|141=Y|10=181|
2022-01-09 17:37:52,025 : (Admin) R << 8=FIX.4.3|9=55|35=0|34=2|49=SERVER|52=20220109-23:37:52.000|56=CLIENT|10=098|
2022-01-09 17:37:52,026 : (Admin) S >> 8=FIX.4.3|9=55|35=0|34=2|49=CLIENT|52=20220109-23:37:52.000|56=SERVER|10=098|
2022-01-09 17:38:22,118 : (Admin) S >> 8=FIX.4.3|9=55|35=0|34=3|49=CLIENT|52=20220109-23:38:22.000|56=SERVER|10=097|
2022-01-09 17:38:22,121 : (Admin) R << 8=FIX.4.3|9=55|35=0|34=3|49=SERVER|52=20220109-23:38:22.000|56=CLIENT|10=097|
2022-01-09 17:38:52,287 : (Admin) R << 8=FIX.4.3|9=55|35=0|34=4|49=SERVER|52=20220109-23:38:52.000|56=CLIENT|10=101|
2022-01-09 17:38:52,288 : (Admin) S >> 8=FIX.4.3|9=55|35=0|34=4|49=CLIENT|52=20220109-23:38:52.000|56=SERVER|10=101|
2022-01-09 17:39:22,242 : (Admin) S >> 8=FIX.4.3|9=55|35=0|34=5|49=CLIENT|52=20220109-23:39:22.000|56=SERVER|10=100|
2022-01-09 17:39:22,245 : (Admin) R << 8=FIX.4.3|9=55|35=0|34=5|49=SERVER|52=20220109-23:39:22.000|56=CLIENT|10=100|
2022-01-09 17:39:52,029 : (Admin) S >> 8=FIX.4.3|9=55|35=0|34=6|49=CLIENT|52=20220109-23:39:52.000|56=SERVER|10=104|
2022-01-09 17:39:52,033 : (Admin) R << 8=FIX.4.3|9=55|35=0|34=6|49=SERVER|52=20220109-23:39:52.000|56=CLIENT|10=104|
2022-01-09 17:40:22,450 : (Admin) S >> 8=FIX.4.3|9=55|35=0|34=7|49=CLIENT|52=20220109-23:40:22.000|56=SERVER|10=094|
2022-01-09 17:40:22,453 : (Admin) R << 8=FIX.4.3|9=55|35=0|34=7|49=SERVER|52=20220109-23:40:22.000|56=CLIENT|10=094|
2022-01-09 17:40:52,038 : (Admin) R << 8=FIX.4.3|9=55|35=0|34=8|49=SERVER|52=20220109-23:40:52.000|56=CLIENT|10=098|
2022-01-09 17:40:52,039 : (Admin) S >> 8=FIX.4.3|9=55|35=0|34=8|49=CLIENT|52=20220109-23:40:52.000|56=SERVER|10=098|
2022-01-09 17:41:22,232 : (Admin) R << 8=FIX.4.3|9=55|35=0|34=9|49=SERVER|52=20220109-23:41:22.000|56=CLIENT|10=097|
2022-01-09 17:41:22,233 : (Admin) S >> 8=FIX.4.3|9=55|35=0|34=9|49=CLIENT|52=20220109-23:41:22.000|56=SERVER|10=097|
2022-01-09 17:41:52,110 : (Admin) R << 8=FIX.4.3|9=56|35=0|34=10|49=SERVER|52=20220109-23:41:52.000|56=CLIENT|10=141|
2022-01-09 17:41:52,110 : (Admin) S >> 8=FIX.4.3|9=56|35=0|34=10|49=CLIENT|52=20220109-23:41:52.000|56=SERVER|10=141|
2022-01-09 17:42:22,342 : (Admin) R << 8=FIX.4.3|9=56|35=0|34=11|49=SERVER|52=20220109-23:42:22.000|56=CLIENT|10=140|
2022-01-09 17:42:22,343 : (Admin) S >> 8=FIX.4.3|9=56|35=0|34=11|49=CLIENT|52=20220109-23:42:22.000|56=SERVER|10=140|
2022-01-09 17:42:52,225 : (Admin) R << 8=FIX.4.3|9=56|35=0|34=12|49=SERVER|52=20220109-23:42:52.000|56=CLIENT|10=144|
2022-01-09 17:42:52,225 : (Admin) S >> 8=FIX.4.3|9=56|35=0|34=12|49=CLIENT|52=20220109-23:42:52.000|56=SERVER|10=144|
2022-01-09 17:43:22,050 : (Admin) R << 8=FIX.4.3|9=56|35=0|34=13|49=SERVER|52=20220109-23:43:22.000|56=CLIENT|10=143|
2022-01-09 17:43:22,051 : (Admin) S >> 8=FIX.4.3|9=56|35=0|34=13|49=CLIENT|52=20220109-23:43:22.000|56=SERVER|10=143|
2022-01-09 17:43:52,186 : (Admin) S >> 8=FIX.4.3|9=56|35=0|34=14|49=CLIENT|52=20220109-23:43:52.000|56=SERVER|10=147|
2022-01-09 17:43:52,188 : (Admin) R << 8=FIX.4.3|9=56|35=0|34=14|49=SERVER|52=20220109-23:43:52.000|56=CLIENT|10=147|
2022-01-09 17:44:22,114 : (Admin) R << 8=FIX.4.3|9=56|35=0|34=15|49=SERVER|52=20220109-23:44:22.000|56=CLIENT|10=146|
2022-01-09 17:44:22,115 : (Admin) S >> 8=FIX.4.3|9=56|35=0|34=15|49=CLIENT|52=20220109-23:44:22.000|56=SERVER|10=146|
2022-01-09 17:44:52,362 : (Admin) S >> 8=FIX.4.3|9=56|35=0|34=16|49=CLIENT|52=20220109-23:44:52.000|56=SERVER|10=150|
2022-01-09 17:44:52,365 : (Admin) R << 8=FIX.4.3|9=56|35=0|34=16|49=SERVER|52=20220109-23:44:52.000|56=CLIENT|10=150|
2022-01-09 17:45:22,118 : (Admin) S >> 8=FIX.4.3|9=56|35=0|34=17|49=CLIENT|52=20220109-23:45:22.000|56=SERVER|10=149|
2022-01-09 17:45:22,121 : (Admin) R << 8=FIX.4.3|9=56|35=0|34=17|49=SERVER|52=20220109-23:45:22.000|56=CLIENT|10=149|
2022-01-09 17:45:52,353 : (Admin) S >> 8=FIX.4.3|9=56|35=0|34=18|49=CLIENT|52=20220109-23:45:52.000|56=SERVER|10=153|
2022-01-09 17:45:52,356 : (Admin) R << 8=FIX.4.3|9=56|35=0|34=18|49=SERVER|52=20220109-23:45:52.000|56=CLIENT|10=153|
2022-01-09 17:46:22,095 : (Admin) S >> 8=FIX.4.3|9=56|35=0|34=19|49=CLIENT|52=20220109-23:46:22.000|56=SERVER|10=152|
2022-01-09 17:46:22,099 : (Admin) R << 8=FIX.4.3|9=56|35=0|34=19|49=SERVER|52=20220109-23:46:22.000|56=CLIENT|10=152|
2022-01-09 17:46:52,172 : (Admin) S >> 8=FIX.4.3|9=56|35=0|34=20|49=CLIENT|52=20220109-23:46:52.000|56=SERVER|10=147|
2022-01-09 17:46:52,176 : (Admin) R << 8=FIX.4.3|9=56|35=0|34=20|49=SERVER|52=20220109-23:46:52.000|56=CLIENT|10=147|
2022-01-09 17:47:22,076 : (Admin) S >> 8=FIX.4.3|9=56|35=0|34=21|49=CLIENT|52=20220109-23:47:22.000|56=SERVER|10=146|
2022-01-09 17:47:22,079 : (Admin) R << 8=FIX.4.3|9=56|35=0|34=21|49=SERVER|52=20220109-23:47:22.000|56=CLIENT|10=146|
2022-01-09 17:47:52,318 : (Admin) S >> 8=FIX.4.3|9=56|35=0|34=22|49=CLIENT|52=20220109-23:47:52.000|56=SERVER|10=150|
2022-01-09 17:47:52,322 : (Admin) R << 8=FIX.4.3|9=56|35=0|34=22|49=SERVER|52=20220109-23:47:52.000|56=CLIENT|10=150|
2022-01-09 17:48:22,008 : (Admin) R << 8=FIX.4.3|9=56|35=0|34=23|49=SERVER|52=20220109-23:48:22.000|56=CLIENT|10=149|
2022-01-09 17:48:22,009 : (Admin) S >> 8=FIX.4.3|9=56|35=0|34=23|49=CLIENT|52=20220109-23:48:22.000|56=SERVER|10=149|
2022-01-09 17:48:52,326 : (Admin) R << 8=FIX.4.3|9=56|35=0|34=24|49=SERVER|52=20220109-23:48:52.000|56=CLIENT|10=153|
2022-01-09 17:48:52,327 : (Admin) S >> 8=FIX.4.3|9=56|35=0|34=24|49=CLIENT|52=20220109-23:48:52.000|56=SERVER|10=153|
2022-01-09 17:49:22,079 : (Admin) S >> 8=FIX.4.3|9=56|35=0|34=25|49=CLIENT|52=20220109-23:49:22.000|56=SERVER|10=152|
2022-01-09 17:49:22,082 : (Admin) R << 8=FIX.4.3|9=56|35=0|34=25|49=SERVER|52=20220109-23:49:22.000|56=CLIENT|10=152|
2022-01-09 17:49:52,050 : (Admin) S >> 8=FIX.4.3|9=56|35=0|34=26|49=CLIENT|52=20220109-23:49:52.000|56=SERVER|10=156|
2022-01-09 17:49:52,053 : (Admin) R << 8=FIX.4.3|9=56|35=0|34=26|49=SERVER|52=20220109-23:49:52.000|56=CLIENT|10=156|
2022-01-09 17:50:22,122 : (Admin) S >> 8=FIX.4.3|9=56|35=0|34=27|49=CLIENT|52=20220109-23:50:22.000|56=SERVER|10=146|
2022-01-09 17:50:22,126 : (Admin) R << 8=FIX.4.3|9=56|35=0|34=27|49=SERVER|52=20220109-23:50:22.000|56=CLIENT|10=146|
2022-01-09 17:50:52,058 : (Admin) S >> 8=FIX.4.3|9=56|35=0|34=28|49=CLIENT|52=20220109-23:50:52.000|56=SERVER|10=150|
2022-01-09 17:50:52,062 : (Admin) R << 8=FIX.4.3|9=56|35=0|34=28|49=SERVER|52=20220109-23:50:52.000|56=CLIENT|10=150|
2022-01-09 17:51:22,120 : (Admin) R << 8=FIX.4.3|9=56|35=0|34=29|49=SERVER|52=20220109-23:51:22.000|56=CLIENT|10=149|
2022-01-09 17:51:22,120 : (Admin) S >> 8=FIX.4.3|9=56|35=0|34=29|49=CLIENT|52=20220109-23:51:22.000|56=SERVER|10=149|
2022-01-09 17:51:52,042 : (Admin) S >> 8=FIX.4.3|9=56|35=0|34=30|49=CLIENT|52=20220109-23:51:52.000|56=SERVER|10=144|
2022-01-09 17:51:52,048 : (Admin) R << 8=FIX.4.3|9=56|35=0|34=30|49=SERVER|52=20220109-23:51:52.000|56=CLIENT|10=144|
2022-01-09 17:52:22,276 : (Admin) R << 8=FIX.4.3|9=56|35=0|34=31|49=SERVER|52=20220109-23:52:22.000|56=CLIENT|10=143|
2022-01-09 17:52:22,277 : (Admin) S >> 8=FIX.4.3|9=56|35=0|34=31|49=CLIENT|52=20220109-23:52:22.000|56=SERVER|10=143|
2022-01-09 17:52:52,142 : (Admin) R << 8=FIX.4.3|9=56|35=0|34=32|49=SERVER|52=20220109-23:52:52.000|56=CLIENT|10=147|
2022-01-09 17:52:52,143 : (Admin) S >> 8=FIX.4.3|9=56|35=0|34=32|49=CLIENT|52=20220109-23:52:52.000|56=SERVER|10=147|
2022-01-09 17:53:22,062 : (Admin) S >> 8=FIX.4.3|9=56|35=0|34=33|49=CLIENT|52=20220109-23:53:22.000|56=SERVER|10=146|
2022-01-09 17:53:22,065 : (Admin) R << 8=FIX.4.3|9=56|35=0|34=33|49=SERVER|52=20220109-23:53:22.000|56=CLIENT|10=146|
2022-01-09 17:53:52,056 : (Admin) R << 8=FIX.4.3|9=56|35=0|34=34|49=SERVER|52=20220109-23:53:52.000|56=CLIENT|10=150|
2022-01-09 17:53:52,057 : (Admin) S >> 8=FIX.4.3|9=56|35=0|34=34|49=CLIENT|52=20220109-23:53:52.000|56=SERVER|10=150|
2022-01-09 17:54:22,036 : (Admin) S >> 8=FIX.4.3|9=56|35=0|34=35|49=CLIENT|52=20220109-23:54:22.000|56=SERVER|10=149|
2022-01-09 17:54:22,039 : (Admin) R << 8=FIX.4.3|9=56|35=0|34=35|49=SERVER|52=20220109-23:54:22.000|56=CLIENT|10=149|
2022-01-09 17:54:52,015 : (Admin) R << 8=FIX.4.3|9=56|35=0|34=36|49=SERVER|52=20220109-23:54:52.000|56=CLIENT|10=153|
2022-01-09 17:54:52,016 : (Admin) S >> 8=FIX.4.3|9=56|35=0|34=36|49=CLIENT|52=20220109-23:54:52.000|56=SERVER|10=153|
2022-01-09 17:55:22,085 : (Admin) S >> 8=FIX.4.3|9=56|35=0|34=37|49=CLIENT|52=20220109-23:55:22.000|56=SERVER|10=152|
2022-01-09 17:55:22,087 : (Admin) R << 8=FIX.4.3|9=56|35=0|34=37|49=SERVER|52=20220109-23:55:22.000|56=CLIENT|10=152|
2022-01-09 17:55:52,103 : (Admin) S >> 8=FIX.4.3|9=56|35=0|34=38|49=CLIENT|52=20220109-23:55:52.000|56=SERVER|10=156|
2022-01-09 17:55:52,106 : (Admin) R << 8=FIX.4.3|9=56|35=0|34=38|49=SERVER|52=20220109-23:55:52.000|56=CLIENT|10=156|
2022-01-09 17:56:22,039 : (Admin) S >> 8=FIX.4.3|9=56|35=0|34=39|49=CLIENT|52=20220109-23:56:22.000|56=SERVER|10=155|
2022-01-09 17:56:22,042 : (Admin) R << 8=FIX.4.3|9=56|35=0|34=39|49=SERVER|52=20220109-23:56:22.000|56=CLIENT|10=155|
2022-01-09 17:56:52,163 : (Admin) S >> 8=FIX.4.3|9=56|35=0|34=40|49=CLIENT|52=20220109-23:56:52.000|56=SERVER|10=150|
2022-01-09 17:56:52,167 : (Admin) R << 8=FIX.4.3|9=56|35=0|34=40|49=SERVER|52=20220109-23:56:52.000|56=CLIENT|10=150|
2022-01-09 17:57:22,090 : (Admin) S >> 8=FIX.4.3|9=56|35=0|34=41|49=CLIENT|52=20220109-23:57:22.000|56=SERVER|10=149|
2022-01-09 17:57:22,094 : (Admin) R << 8=FIX.4.3|9=56|35=0|34=41|49=SERVER|52=20220109-23:57:22.000|56=CLIENT|10=149|
2022-01-09 17:57:52,064 : (Admin) R << 8=FIX.4.3|9=56|35=0|34=42|49=SERVER|52=20220109-23:57:52.000|56=CLIENT|10=153|
2022-01-09 17:57:52,065 : (Admin) S >> 8=FIX.4.3|9=56|35=0|34=42|49=CLIENT|52=20220109-23:57:52.000|56=SERVER|10=153|
2022-01-09 17:58:22,082 : (Admin) R << 8=FIX.4.3|9=56|35=0|34=43|49=SERVER|52=20220109-23:58:22.000|56=CLIENT|10=152|
2022-01-09 17:58:22,083 : (Admin) S >> 8=FIX.4.3|9=56|35=0|34=43|49=CLIENT|52=20220109-23:58:22.000|56=SERVER|10=152|
2022-01-09 17:58:52,034 : (Admin) R << 8=FIX.4.3|9=56|35=0|34=44|49=SERVER|52=20220109-23:58:52.000|56=CLIENT|10=156|
2022-01-09 17:58:52,034 : (Admin) S >> 8=FIX.4.3|9=56|35=0|34=44|49=CLIENT|52=20220109-23:58:52.000|56=SERVER|10=156|
2022-01-09 17:59:22,056 : (Admin) S >> 8=FIX.4.3|9=56|35=0|34=45|49=CLIENT|52=20220109-23:59:22.000|56=SERVER|10=155|
2022-01-09 17:59:22,060 : (Admin) R << 8=FIX.4.3|9=56|35=0|34=45|49=SERVER|52=20220109-23:59:22.000|56=CLIENT|10=155|
2022-01-09 17:59:52,101 : (Admin) S >> 8=FIX.4.3|9=56|35=0|34=46|49=CLIENT|52=20220109-23:59:52.000|56=SERVER|10=159|
2022-01-09 17:59:52,104 : (Admin) R << 8=FIX.4.3|9=56|35=0|34=46|49=SERVER|52=20220109-23:59:52.000|56=CLIENT|10=159|
2022-01-09 18:00:00,001 : (Admin) S >> 8=FIX.4.3|9=56|35=5|34=47|49=CLIENT|52=20220110-00:00:00.000|56=SERVER|10=131|
2022-01-09 18:00:00,010 : (Admin) S >> 8=FIX.4.3|9=73|35=A|34=1|49=CLIENT|52=20220110-00:00:00.000|56=SERVER|98=0|108=30|141=Y|10=154|
2022-01-09 18:00:22,069 : (Admin) S >> 8=FIX.4.3|9=73|35=A|34=1|49=CLIENT|52=20220110-00:00:22.000|56=SERVER|98=0|108=30|141=Y|10=158|
2022-01-09 18:00:22,077 : (Admin) R << 8=FIX.4.3|9=73|35=A|34=1|49=SERVER|52=20220110-00:00:22.000|56=CLIENT|98=0|108=30|141=Y|10=158|
2022-01-09 18:00:52,010 : (Admin) S >> 8=FIX.4.3|9=55|35=0|34=2|49=CLIENT|52=20220110-00:00:52.000|56=SERVER|10=075|
2022-01-09 18:00:52,015 : (Admin) R << 8=FIX.4.3|9=55|35=0|34=2|49=SERVER|52=20220110-00:00:52.000|56=CLIENT|10=075|
2022-01-09 18:01:22,183 : (Admin) R << 8=FIX.4.3|9=55|35=0|34=3|49=SERVER|52=20220110-00:01:22.000|56=CLIENT|10=074|
2022-01-09 18:01:22,184 : (Admin) S >> 8=FIX.4.3|9=55|35=0|34=3|49=CLIENT|52=20220110-00:01:22.000|56=SERVER|10=074|
2022-01-09 18:01:52,133 : (Admin) R << 8=FIX.4.3|9=55|35=0|34=4|49=SERVER|52=20220110-00:01:52.000|56=CLIENT|10=078|
2022-01-09 18:01:52,133 : (Admin) S >> 8=FIX.4.3|9=55|35=0|34=4|49=CLIENT|52=20220110-00:01:52.000|56=SERVER|10=078|
2022-01-09 18:02:22,775 : (Admin) R << 8=FIX.4.3|9=55|35=0|34=5|49=SERVER|52=20220110-00:02:22.000|56=CLIENT|10=077|
2022-01-09 18:02:22,776 : (Admin) S >> 8=FIX.4.3|9=55|35=0|34=5|49=CLIENT|52=20220110-00:02:22.000|56=SERVER|10=077|
2022-01-09 18:02:52,190 : (Admin) R << 8=FIX.4.3|9=55|35=0|34=6|49=SERVER|52=20220110-00:02:52.000|56=CLIENT|10=081|
2022-01-09 18:02:52,191 : (Admin) S >> 8=FIX.4.3|9=55|35=0|34=6|49=CLIENT|52=20220110-00:02:52.000|56=SERVER|10=081|
2022-01-09 18:03:22,288 : (Admin) R << 8=FIX.4.3|9=55|35=0|34=7|49=SERVER|52=20220110-00:03:22.000|56=CLIENT|10=080|
2022-01-09 18:03:22,289 : (Admin) S >> 8=FIX.4.3|9=55|35=0|34=7|49=CLIENT|52=20220110-00:03:22.000|56=SERVER|10=080|
2022-01-09 18:03:52,107 : (Admin) R << 8=FIX.4.3|9=55|35=0|34=8|49=SERVER|52=20220110-00:03:52.000|56=CLIENT|10=084|
2022-01-09 18:03:52,107 : (Admin) S >> 8=FIX.4.3|9=55|35=0|34=8|49=CLIENT|52=20220110-00:03:52.000|56=SERVER|10=084|
2022-01-09 18:04:22,216 : (Admin) S >> 8=FIX.4.3|9=55|35=0|34=9|49=CLIENT|52=20220110-00:04:22.000|56=SERVER|10=083|
2022-01-09 18:04:22,219 : (Admin) R << 8=FIX.4.3|9=55|35=0|34=9|49=SERVER|52=20220110-00:04:22.000|56=CLIENT|10=083|
2022-01-09 18:04:52,126 : (Admin) S >> 8=FIX.4.3|9=56|35=0|34=10|49=CLIENT|52=20220110-00:04:52.000|56=SERVER|10=127|
2022-01-09 18:04:52,130 : (Admin) R << 8=FIX.4.3|9=56|35=0|34=10|49=SERVER|52=20220110-00:04:52.000|56=CLIENT|10=127|
2022-01-09 18:05:22,126 : (Admin) R << 8=FIX.4.3|9=56|35=0|34=11|49=SERVER|52=20220110-00:05:22.000|56=CLIENT|10=126|
2022-01-09 18:05:22,127 : (Admin) S >> 8=FIX.4.3|9=56|35=0|34=11|49=CLIENT|52=20220110-00:05:22.000|56=SERVER|10=126|
2022-01-09 18:05:52,632 : (Admin) S >> 8=FIX.4.3|9=56|35=0|34=12|49=CLIENT|52=20220110-00:05:52.000|56=SERVER|10=130|
2022-01-09 18:05:52,636 : (Admin) R << 8=FIX.4.3|9=56|35=0|34=12|49=SERVER|52=20220110-00:05:52.000|56=CLIENT|10=130|
2022-01-09 18:06:22,181 : (Admin) R << 8=FIX.4.3|9=56|35=0|34=13|49=SERVER|52=20220110-00:06:22.000|56=CLIENT|10=129|
2022-01-09 18:06:22,181 : (Admin) S >> 8=FIX.4.3|9=56|35=0|34=13|49=CLIENT|52=20220110-00:06:22.000|56=SERVER|10=129|
2022-01-09 18:06:52,293 : (Admin) S >> 8=FIX.4.3|9=56|35=0|34=14|49=CLIENT|52=20220110-00:06:52.000|56=SERVER|10=133|
2022-01-09 18:06:52,297 : (Admin) R << 8=FIX.4.3|9=56|35=0|34=14|49=SERVER|52=20220110-00:06:52.000|56=CLIENT|10=133|
2022-01-09 18:07:22,236 : (Admin) S >> 8=FIX.4.3|9=56|35=0|34=15|49=CLIENT|52=20220110-00:07:22.000|56=SERVER|10=132|
2022-01-09 18:07:22,239 : (Admin) R << 8=FIX.4.3|9=56|35=0|34=15|49=SERVER|52=20220110-00:07:22.000|56=CLIENT|10=132|
2022-01-09 18:07:52,808 : (Admin) R << 8=FIX.4.3|9=56|35=0|34=16|49=SERVER|52=20220110-00:07:52.000|56=CLIENT|10=136|
2022-01-09 18:07:52,809 : (Admin) S >> 8=FIX.4.3|9=56|35=0|34=16|49=CLIENT|52=20220110-00:07:52.000|56=SERVER|10=136|
2022-01-09 18:08:22,233 : (Admin) R << 8=FIX.4.3|9=56|35=0|34=17|49=SERVER|52=20220110-00:08:22.000|56=CLIENT|10=135|
2022-01-09 18:08:22,234 : (Admin) S >> 8=FIX.4.3|9=56|35=0|34=17|49=CLIENT|52=20220110-00:08:22.000|56=SERVER|10=135|
2022-01-09 18:08:52,230 : (Admin) R << 8=FIX.4.3|9=56|35=0|34=18|49=SERVER|52=20220110-00:08:52.000|56=CLIENT|10=139|
2022-01-09 18:08:52,231 : (Admin) S >> 8=FIX.4.3|9=56|35=0|34=18|49=CLIENT|52=20220110-00:08:52.000|56=SERVER|10=139|
2022-01-09 18:09:22,351 : (Admin) S >> 8=FIX.4.3|9=56|35=0|34=19|49=CLIENT|52=20220110-00:09:22.000|56=SERVER|10=138|
2022-01-09 18:09:22,354 : (Admin) R << 8=FIX.4.3|9=56|35=0|34=19|49=SERVER|52=20220110-00:09:22.000|56=CLIENT|10=138|
2022-01-09 18:09:52,252 : (Admin) S >> 8=FIX.4.3|9=56|35=0|34=20|49=CLIENT|52=20220110-00:09:52.000|56=SERVER|10=133|
2022-01-09 18:09:52,256 : (Admin) R << 8=FIX.4.3|9=56|35=0|34=20|49=SERVER|52=20220110-00:09:52.000|56=CLIENT|10=133|
2022-01-09 18:10:22,318 : (Admin) R << 8=FIX.4.3|9=56|35=0|34=21|49=SERVER|52=20220110-00:10:22.000|56=CLIENT|10=123|
2022-01-09 18:10:22,319 : (Admin) S >> 8=FIX.4.3|9=56|35=0|34=21|49=CLIENT|52=20220110-00:10:22.000|56=SERVER|10=123|
2022-01-09 18:10:52,040 : (Admin) R << 8=FIX.4.3|9=56|35=0|34=22|49=SERVER|52=20220110-00:10:52.000|56=CLIENT|10=127|
2022-01-09 18:10:52,040 : (Admin) S >> 8=FIX.4.3|9=56|35=0|34=22|49=CLIENT|52=20220110-00:10:52.000|56=SERVER|10=127|
2022-01-09 18:11:22,222 : (Admin) S >> 8=FIX.4.3|9=56|35=0|34=23|49=CLIENT|52=20220110-00:11:22.000|56=SERVER|10=126|
2022-01-09 18:11:22,224 : (Admin) R << 8=FIX.4.3|9=56|35=0|34=23|49=SERVER|52=20220110-00:11:22.000|56=CLIENT|10=126|
2022-01-09 18:11:52,171 : (Admin) S >> 8=FIX.4.3|9=56|35=0|34=24|49=CLIENT|52=20220110-00:11:52.000|56=SERVER|10=130|
2022-01-09 18:11:52,175 : (Admin) R << 8=FIX.4.3|9=56|35=0|34=24|49=SERVER|52=20220110-00:11:52.000|56=CLIENT|10=130|
2022-01-09 18:12:22,798 : (Admin) R << 8=FIX.4.3|9=56|35=0|34=25|49=SERVER|52=20220110-00:12:22.000|56=CLIENT|10=129|
2022-01-09 18:12:22,799 : (Admin) S >> 8=FIX.4.3|9=56|35=0|34=25|49=CLIENT|52=20220110-00:12:22.000|56=SERVER|10=129|
2022-01-09 18:12:52,389 : (Admin) R << 8=FIX.4.3|9=56|35=0|34=26|49=SERVER|52=20220110-00:12:52.000|56=CLIENT|10=133|
2022-01-09 18:12:52,389 : (Admin) S >> 8=FIX.4.3|9=56|35=0|34=26|49=CLIENT|52=20220110-00:12:52.000|56=SERVER|10=133|
2022-01-09 18:13:22,463 : (Admin) R << 8=FIX.4.3|9=56|35=0|34=27|49=SERVER|52=20220110-00:13:22.000|56=CLIENT|10=132|
2022-01-09 18:13:22,464 : (Admin) S >> 8=FIX.4.3|9=56|35=0|34=27|49=CLIENT|52=20220110-00:13:22.000|56=SERVER|10=132|
2022-01-09 18:13:52,268 : (Admin) R << 8=FIX.4.3|9=56|35=0|34=28|49=SERVER|52=20220110-00:13:52.000|56=CLIENT|10=136|
2022-01-09 18:13:52,269 : (Admin) S >> 8=FIX.4.3|9=56|35=0|34=28|49=CLIENT|52=20220110-00:13:52.000|56=SERVER|10=136|
2022-01-09 18:14:22,198 : (Admin) S >> 8=FIX.4.3|9=56|35=0|34=29|49=CLIENT|52=20220110-00:14:22.000|56=SERVER|10=135|
2022-01-09 18:14:22,201 : (Admin) R << 8=FIX.4.3|9=56|35=0|34=29|49=SERVER|52=20220110-00:14:22.000|56=CLIENT|10=135|
2022-01-09 18:14:52,280 : (Admin) R << 8=FIX.4.3|9=56|35=0|34=30|49=SERVER|52=20220110-00:14:52.000|56=CLIENT|10=130|
2022-01-09 18:14:52,281 : (Admin) S >> 8=FIX.4.3|9=56|35=0|34=30|49=CLIENT|52=20220110-00:14:52.000|56=SERVER|10=130|
2022-01-09 18:15:22,080 : (Admin) R << 8=FIX.4.3|9=56|35=0|34=31|49=SERVER|52=20220110-00:15:22.000|56=CLIENT|10=129|
2022-01-09 18:15:22,081 : (Admin) S >> 8=FIX.4.3|9=56|35=0|34=31|49=CLIENT|52=20220110-00:15:22.000|56=SERVER|10=129|
2022-01-09 18:15:52,330 : (Admin) S >> 8=FIX.4.3|9=56|35=0|34=32|49=CLIENT|52=20220110-00:15:52.000|56=SERVER|10=133|
2022-01-09 18:15:52,333 : (Admin) R << 8=FIX.4.3|9=56|35=0|34=32|49=SERVER|52=20220110-00:15:52.000|56=CLIENT|10=133|
2022-01-09 18:16:22,369 : (Admin) S >> 8=FIX.4.3|9=56|35=0|34=33|49=CLIENT|52=20220110-00:16:22.000|56=SERVER|10=132|
2022-01-09 18:16:22,372 : (Admin) R << 8=FIX.4.3|9=56|35=0|34=33|49=SERVER|52=20220110-00:16:22.000|56=CLIENT|10=132|
2022-01-09 18:16:52,185 : (Admin) R << 8=FIX.4.3|9=56|35=0|34=34|49=SERVER|52=20220110-00:16:52.000|56=CLIENT|10=136|
2022-01-09 18:16:52,186 : (Admin) S >> 8=FIX.4.3|9=56|35=0|34=34|49=CLIENT|52=20220110-00:16:52.000|56=SERVER|10=136|
2022-01-09 18:17:22,442 : (Admin) R << 8=FIX.4.3|9=56|35=0|34=35|49=SERVER|52=20220110-00:17:22.000|56=CLIENT|10=135|
2022-01-09 18:17:22,443 : (Admin) S >> 8=FIX.4.3|9=56|35=0|34=35|49=CLIENT|52=20220110-00:17:22.000|56=SERVER|10=135|
2022-01-09 18:17:52,361 : (Admin) R << 8=FIX.4.3|9=56|35=0|34=36|49=SERVER|52=20220110-00:17:52.000|56=CLIENT|10=139|
2022-01-09 18:17:52,362 : (Admin) S >> 8=FIX.4.3|9=56|35=0|34=36|49=CLIENT|52=20220110-00:17:52.000|56=SERVER|10=139|
2022-01-09 18:18:22,490 : (Admin) S >> 8=FIX.4.3|9=56|35=0|34=37|49=CLIENT|52=20220110-00:18:22.000|56=SERVER|10=138|
2022-01-09 18:18:22,493 : (Admin) R << 8=FIX.4.3|9=56|35=0|34=37|49=SERVER|52=20220110-00:18:22.000|56=CLIENT|10=138|
2022-01-09 18:18:52,385 : (Admin) S >> 8=FIX.4.3|9=56|35=0|34=38|49=CLIENT|52=20220110-00:18:52.000|56=SERVER|10=142|
2022-01-09 18:18:52,388 : (Admin) R << 8=FIX.4.3|9=56|35=0|34=38|49=SERVER|52=20220110-00:18:52.000|56=CLIENT|10=142|
2022-01-09 18:19:22,217 : (Admin) R << 8=FIX.4.3|9=56|35=0|34=39|49=SERVER|52=20220110-00:19:22.000|56=CLIENT|10=141|
2022-01-09 18:19:22,218 : (Admin) S >> 8=FIX.4.3|9=56|35=0|34=39|49=CLIENT|52=20220110-00:19:22.000|56=SERVER|10=141|
2022-01-09 18:19:53,393 : (Admin) S >> 8=FIX.4.3|9=56|35=0|34=40|49=CLIENT|52=20220110-00:19:53.000|56=SERVER|10=137|
2022-01-09 18:19:53,394 : (Admin) R << 8=FIX.4.3|9=56|35=0|34=40|49=SERVER|52=20220110-00:19:53.000|56=CLIENT|10=137|
2022-01-09 18:20:23,224 : (Admin) R << 8=FIX.4.3|9=56|35=0|34=41|49=SERVER|52=20220110-00:20:23.000|56=CLIENT|10=127|
2022-01-09 18:20:23,224 : (Admin) S >> 8=FIX.4.3|9=56|35=0|34=41|49=CLIENT|52=20220110-00:20:23.000|56=SERVER|10=127|
2022-01-09 18:21:59,333 : (Admin) S >> 8=FIX.4.3|9=73|35=A|34=1|49=CLIENT|52=20220110-00:21:59.000|56=SERVER|98=0|108=30|141=Y|10=171|
2022-01-09 18:22:59,476 : (Admin) S >> 8=FIX.4.3|9=73|35=A|34=1|49=CLIENT|52=20220110-00:22:59.000|56=SERVER|98=0|108=30|141=Y|10=172|
2022-01-09 18:22:59,478 : (Admin) R << 8=FIX.4.3|9=73|35=A|34=1|49=SERVER|52=20220110-00:22:59.000|56=CLIENT|98=0|108=30|141=Y|10=172|
2022-01-09 18:23:29,304 : (Admin) S >> 8=FIX.4.3|9=55|35=0|34=2|49=CLIENT|52=20220110-00:23:29.000|56=SERVER|10=084|
2022-01-09 18:23:29,307 : (Admin) R << 8=FIX.4.3|9=55|35=0|34=2|49=SERVER|52=20220110-00:23:29.000|56=CLIENT|10=084|
2022-01-09 18:23:59,017 : (Admin) S >> 8=FIX.4.3|9=55|35=0|34=3|49=CLIENT|52=20220110-00:23:59.000|56=SERVER|10=088|
2022-01-09 18:23:59,021 : (Admin) R << 8=FIX.4.3|9=55|35=0|34=3|49=SERVER|52=20220110-00:23:59.000|56=CLIENT|10=088|
2022-01-09 18:24:29,065 : (Admin) R << 8=FIX.4.3|9=55|35=0|34=4|49=SERVER|52=20220110-00:24:29.000|56=CLIENT|10=087|
2022-01-09 18:24:29,066 : (Admin) S >> 8=FIX.4.3|9=55|35=0|34=4|49=CLIENT|52=20220110-00:24:29.000|56=SERVER|10=087|
2022-01-09 18:24:59,190 : (Admin) S >> 8=FIX.4.3|9=55|35=0|34=5|49=CLIENT|52=20220110-00:24:59.000|56=SERVER|10=091|
2022-01-09 18:24:59,194 : (Admin) R << 8=FIX.4.3|9=55|35=0|34=5|49=SERVER|52=20220110-00:24:59.000|56=CLIENT|10=091|
2022-01-09 18:25:29,369 : (Admin) R << 8=FIX.4.3|9=55|35=0|34=6|49=SERVER|52=20220110-00:25:29.000|56=CLIENT|10=090|
2022-01-09 18:25:29,370 : (Admin) S >> 8=FIX.4.3|9=55|35=0|34=6|49=CLIENT|52=20220110-00:25:29.000|56=SERVER|10=090|
2022-01-09 18:25:59,432 : (Admin) S >> 8=FIX.4.3|9=55|35=0|34=7|49=CLIENT|52=20220110-00:25:59.000|56=SERVER|10=094|
2022-01-09 18:25:59,436 : (Admin) R << 8=FIX.4.3|9=55|35=0|34=7|49=SERVER|52=20220110-00:25:59.000|56=CLIENT|10=094|
2022-01-09 18:26:29,202 : (Admin) R << 8=FIX.4.3|9=55|35=0|34=8|49=SERVER|52=20220110-00:26:29.000|56=CLIENT|10=093|
2022-01-09 18:26:29,203 : (Admin) S >> 8=FIX.4.3|9=55|35=0|34=8|49=CLIENT|52=20220110-00:26:29.000|56=SERVER|10=093|
2022-01-09 18:27:09,135 : (Admin) R << 8=FIX.4.3|9=64|35=1|34=9|49=SERVER|52=20220110-00:27:09.000|56=CLIENT|112=TEST|10=112|
2022-01-09 18:27:09,135 : (Admin) S >> 8=FIX.4.3|9=64|35=0|34=9|49=CLIENT|52=20220110-00:27:09.000|56=SERVER|112=TEST|10=111|
2022-01-09 18:27:39,150 : (Admin) S >> 8=FIX.4.3|9=56|35=0|34=10|49=CLIENT|52=20220110-00:27:39.000|56=SERVER|10=137|
2022-01-09 18:27:39,154 : (Admin) R << 8=FIX.4.3|9=56|35=0|34=10|49=SERVER|52=20220110-00:27:39.000|56=CLIENT|10=137|
2022-01-09 18:28:09,048 : (Admin) R << 8=FIX.4.3|9=56|35=0|34=11|49=SERVER|52=20220110-00:28:09.000|56=CLIENT|10=136|
2022-01-09 18:28:09,049 : (Admin) S >> 8=FIX.4.3|9=56|35=0|34=11|49=CLIENT|52=20220110-00:28:09.000|56=SERVER|10=136|
2022-01-09 18:28:39,238 : (Admin) S >> 8=FIX.4.3|9=56|35=0|34=12|49=CLIENT|52=20220110-00:28:39.000|56=SERVER|10=140|
2022-01-09 18:28:39,241 : (Admin) R << 8=FIX.4.3|9=56|35=0|34=12|49=SERVER|52=20220110-00:28:39.000|56=CLIENT|10=140|
2022-01-09 18:29:09,108 : (Admin) R << 8=FIX.4.3|9=56|35=0|34=13|49=SERVER|52=20220110-00:29:09.000|56=CLIENT|10=139|
2022-01-09 18:29:09,108 : (Admin) S >> 8=FIX.4.3|9=56|35=0|34=13|49=CLIENT|52=20220110-00:29:09.000|56=SERVER|10=139|
2022-01-09 18:29:39,277 : (Admin) R << 8=FIX.4.3|9=56|35=0|34=14|49=SERVER|52=20220110-00:29:39.000|56=CLIENT|10=143|
2022-01-09 18:29:39,277 : (Admin) S >> 8=FIX.4.3|9=56|35=0|34=14|49=CLIENT|52=20220110-00:29:39.000|56=SERVER|10=143|
2022-01-09 18:30:09,190 : (Admin) R << 8=FIX.4.3|9=56|35=0|34=15|49=SERVER|52=20220110-00:30:09.000|56=CLIENT|10=133|
2022-01-09 18:30:09,191 : (Admin) S >> 8=FIX.4.3|9=56|35=0|34=15|49=CLIENT|52=20220110-00:30:09.000|56=SERVER|10=133|
2022-01-09 18:30:39,424 : (Admin) R << 8=FIX.4.3|9=56|35=0|34=16|49=SERVER|52=20220110-00:30:39.000|56=CLIENT|10=137|
2022-01-09 18:30:39,425 : (Admin) S >> 8=FIX.4.3|9=56|35=0|34=16|49=CLIENT|52=20220110-00:30:39.000|56=SERVER|10=137|
2022-01-09 18:31:09,001 : (Admin) S >> 8=FIX.4.3|9=56|35=0|34=17|49=CLIENT|52=20220110-00:31:09.000|56=SERVER|10=136|
2022-01-09 18:31:09,004 : (Admin) R << 8=FIX.4.3|9=56|35=0|34=17|49=SERVER|52=20220110-00:31:09.000|56=CLIENT|10=136|
2022-01-09 18:31:55,450 : (Admin) R << 8=FIX.4.3|9=65|35=1|34=18|49=SERVER|52=20220110-00:31:55.000|56=CLIENT|112=TEST|10=157|
2022-01-09 18:31:55,451 : (Admin) S >> 8=FIX.4.3|9=65|35=0|34=18|49=CLIENT|52=20220110-00:31:55.000|56=SERVER|112=TEST|10=156|
2022-01-09 18:32:25,219 : (Admin) S >> 8=FIX.4.3|9=56|35=0|34=19|49=CLIENT|52=20220110-00:32:25.000|56=SERVER|10=137|
2022-01-09 18:32:25,222 : (Admin) R << 8=FIX.4.3|9=56|35=0|34=19|49=SERVER|52=20220110-00:32:25.000|56=CLIENT|10=137|
2022-01-09 18:32:55,515 : (Admin) R << 8=FIX.4.3|9=56|35=0|34=20|49=SERVER|52=20220110-00:32:55.000|56=CLIENT|10=132|
2022-01-09 18:32:55,516 : (Admin) S >> 8=FIX.4.3|9=56|35=0|34=20|49=CLIENT|52=20220110-00:32:55.000|56=SERVER|10=132|
2022-01-09 18:33:25,292 : (Admin) S >> 8=FIX.4.3|9=56|35=0|34=21|49=CLIENT|52=20220110-00:33:25.000|56=SERVER|10=131|
2022-01-09 18:33:25,296 : (Admin) R << 8=FIX.4.3|9=56|35=0|34=21|49=SERVER|52=20220110-00:33:25.000|56=CLIENT|10=131|
2022-01-09 18:34:10,966 : (Admin) R << 8=FIX.4.3|9=65|35=1|34=22|49=SERVER|52=20220110-00:34:10.000|56=CLIENT|112=TEST|10=146|
2022-01-09 18:34:10,967 : (Admin) S >> 8=FIX.4.3|9=65|35=0|34=22|49=CLIENT|52=20220110-00:34:10.000|56=SERVER|112=TEST|10=145|
2022-01-09 18:34:40,291 : (Admin) S >> 8=FIX.4.3|9=56|35=0|34=23|49=CLIENT|52=20220110-00:34:40.000|56=SERVER|10=131|
2022-01-09 18:34:40,295 : (Admin) R << 8=FIX.4.3|9=56|35=0|34=23|49=SERVER|52=20220110-00:34:40.000|56=CLIENT|10=131|
2022-01-09 18:35:10,037 : (Admin) S >> 8=FIX.4.3|9=56|35=0|34=24|49=CLIENT|52=20220110-00:35:10.000|56=SERVER|10=130|
2022-01-09 18:35:10,041 : (Admin) R << 8=FIX.4.3|9=56|35=0|34=24|49=SERVER|52=20220110-00:35:10.000|56=CLIENT|10=130|
2022-01-09 18:35:40,257 : (Admin) R << 8=FIX.4.3|9=56|35=0|34=25|49=SERVER|52=20220110-00:35:40.000|56=CLIENT|10=134|
2022-01-09 18:35:40,258 : (Admin) S >> 8=FIX.4.3|9=56|35=0|34=25|49=CLIENT|52=20220110-00:35:40.000|56=SERVER|10=134|
2022-01-09 18:36:10,197 : (Admin) S >> 8=FIX.4.3|9=56|35=0|34=26|49=CLIENT|52=20220110-00:36:10.000|56=SERVER|10=133|
2022-01-09 18:36:10,200 : (Admin) R << 8=FIX.4.3|9=56|35=0|34=26|49=SERVER|52=20220110-00:36:10.000|56=CLIENT|10=133|
2022-01-09 18:36:40,061 : (Admin) S >> 8=FIX.4.3|9=56|35=0|34=27|49=CLIENT|52=20220110-00:36:40.000|56=SERVER|10=137|
2022-01-09 18:36:40,064 : (Admin) R << 8=FIX.4.3|9=56|35=0|34=27|49=SERVER|52=20220110-00:36:40.000|56=CLIENT|10=137|
2022-01-09 18:37:10,035 : (Admin) S >> 8=FIX.4.3|9=56|35=0|34=28|49=CLIENT|52=20220110-00:37:10.000|56=SERVER|10=136|
2022-01-09 18:37:10,038 : (Admin) R << 8=FIX.4.3|9=56|35=0|34=28|49=SERVER|52=20220110-00:37:10.000|56=CLIENT|10=136|
2022-01-09 18:37:42,257 : (Admin) R << 8=FIX.4.3|9=56|35=0|34=29|49=SERVER|52=20220110-00:37:42.000|56=CLIENT|10=142|
2022-01-09 18:37:42,257 : (Admin) S >> 8=FIX.4.3|9=56|35=0|34=29|49=CLIENT|52=20220110-00:37:42.000|56=SERVER|10=142|
2022-01-09 18:38:12,133 : (Admin) R << 8=FIX.4.3|9=56|35=0|34=30|49=SERVER|52=20220110-00:38:12.000|56=CLIENT|10=132|
2022-01-09 18:38:12,134 : (Admin) S >> 8=FIX.4.3|9=56|35=0|34=30|49=CLIENT|52=20220110-00:38:12.000|56=SERVER|10=132|
2022-01-09 18:38:44,516 : (Admin) R << 8=FIX.4.3|9=56|35=0|34=31|49=SERVER|52=20220110-00:38:44.000|56=CLIENT|10=138|
2022-01-09 18:38:44,517 : (Admin) S >> 8=FIX.4.3|9=56|35=0|34=31|49=CLIENT|52=20220110-00:38:44.000|56=SERVER|10=138|
2022-01-09 18:39:14,068 : (Admin) R << 8=FIX.4.3|9=56|35=0|34=32|49=SERVER|52=20220110-00:39:14.000|56=CLIENT|10=137|
2022-01-09 18:39:14,069 : (Admin) S >> 8=FIX.4.3|9=56|35=0|34=32|49=CLIENT|52=20220110-00:39:14.000|56=SERVER|10=137|
2022-01-09 18:39:44,306 : (Admin) R << 8=FIX.4.3|9=56|35=0|34=33|49=SERVER|52=20220110-00:39:44.000|56=CLIENT|10=141|
2022-01-09 18:39:44,306 : (Admin) S >> 8=FIX.4.3|9=56|35=0|34=33|49=CLIENT|52=20220110-00:39:44.000|56=SERVER|10=141|
2022-01-09 18:40:14,286 : (Admin) R << 8=FIX.4.3|9=56|35=0|34=34|49=SERVER|52=20220110-00:40:14.000|56=CLIENT|10=131|
2022-01-09 18:40:14,286 : (Admin) S >> 8=FIX.4.3|9=56|35=0|34=34|49=CLIENT|52=20220110-00:40:14.000|56=SERVER|10=131|
2022-01-09 18:40:44,077 : (Admin) R << 8=FIX.4.3|9=56|35=0|34=35|49=SERVER|52=20220110-00:40:44.000|56=CLIENT|10=135|
2022-01-09 18:40:44,078 : (Admin) S >> 8=FIX.4.3|9=56|35=0|34=35|49=CLIENT|52=20220110-00:40:44.000|56=SERVER|10=135|
2022-01-09 18:41:14,113 : (Admin) R << 8=FIX.4.3|9=56|35=0|34=36|49=SERVER|52=20220110-00:41:14.000|56=CLIENT|10=134|
2022-01-09 18:41:14,114 : (Admin) S >> 8=FIX.4.3|9=56|35=0|34=36|49=CLIENT|52=20220110-00:41:14.000|56=SERVER|10=134|
2022-01-09 18:41:44,136 : (Admin) R << 8=FIX.4.3|9=56|35=0|34=37|49=SERVER|52=20220110-00:41:44.000|56=CLIENT|10=138|
2022-01-09 18:41:44,136 : (Admin) S >> 8=FIX.4.3|9=56|35=0|34=37|49=CLIENT|52=20220110-00:41:44.000|56=SERVER|10=138|
2022-01-09 18:42:14,179 : (Admin) R << 8=FIX.4.3|9=56|35=0|34=38|49=SERVER|52=20220110-00:42:14.000|56=CLIENT|10=137|
2022-01-09 18:42:14,180 : (Admin) S >> 8=FIX.4.3|9=56|35=0|34=38|49=CLIENT|52=20220110-00:42:14.000|56=SERVER|10=137|
2022-01-09 18:42:44,192 : (Admin) R << 8=FIX.4.3|9=56|35=0|34=39|49=SERVER|52=20220110-00:42:44.000|56=CLIENT|10=141|
2022-01-09 18:42:44,193 : (Admin) S >> 8=FIX.4.3|9=56|35=0|34=39|49=CLIENT|52=20220110-00:42:44.000|56=SERVER|10=141|
2022-01-09 18:43:14,259 : (Admin) R << 8=FIX.4.3|9=56|35=0|34=40|49=SERVER|52=20220110-00:43:14.000|56=CLIENT|10=131|
2022-01-09 18:43:14,259 : (Admin) S >> 8=FIX.4.3|9=56|35=0|34=40|49=CLIENT|52=20220110-00:43:14.000|56=SERVER|10=131|
2022-01-09 18:43:44,011 : (Admin) R << 8=FIX.4.3|9=56|35=0|34=41|49=SERVER|52=20220110-00:43:44.000|56=CLIENT|10=135|
2022-01-09 18:43:44,012 : (Admin) S >> 8=FIX.4.3|9=56|35=0|34=41|49=CLIENT|52=20220110-00:43:44.000|56=SERVER|10=135|
2022-01-09 18:44:14,150 : (Admin) R << 8=FIX.4.3|9=56|35=0|34=42|49=SERVER|52=20220110-00:44:14.000|56=CLIENT|10=134|
2022-01-09 18:44:14,151 : (Admin) S >> 8=FIX.4.3|9=56|35=0|34=42|49=CLIENT|52=20220110-00:44:14.000|56=SERVER|10=134|
2022-01-09 18:44:44,044 : (Admin) R << 8=FIX.4.3|9=56|35=0|34=43|49=SERVER|52=20220110-00:44:44.000|56=CLIENT|10=138|
2022-01-09 18:44:44,046 : (Admin) S >> 8=FIX.4.3|9=56|35=0|34=43|49=CLIENT|52=20220110-00:44:44.000|56=SERVER|10=138|
2022-01-09 18:45:14,236 : (Admin) R << 8=FIX.4.3|9=56|35=0|34=44|49=SERVER|52=20220110-00:45:14.000|56=CLIENT|10=137|
2022-01-09 18:45:14,237 : (Admin) S >> 8=FIX.4.3|9=56|35=0|34=44|49=CLIENT|52=20220110-00:45:14.000|56=SERVER|10=137|
2022-01-09 18:45:44,021 : (Admin) S >> 8=FIX.4.3|9=56|35=0|34=45|49=CLIENT|52=20220110-00:45:44.000|56=SERVER|10=141|
2022-01-09 18:45:44,024 : (Admin) R << 8=FIX.4.3|9=56|35=0|34=45|49=SERVER|52=20220110-00:45:44.000|56=CLIENT|10=141|
2022-01-09 18:46:14,196 : (Admin) R << 8=FIX.4.3|9=56|35=0|34=46|49=SERVER|52=20220110-00:46:14.000|56=CLIENT|10=140|
2022-01-09 18:46:14,197 : (Admin) S >> 8=FIX.4.3|9=56|35=0|34=46|49=CLIENT|52=20220110-00:46:14.000|56=SERVER|10=140|
2022-01-09 18:46:44,060 : (Admin) R << 8=FIX.4.3|9=56|35=0|34=47|49=SERVER|52=20220110-00:46:44.000|56=CLIENT|10=144|
2022-01-09 18:46:44,061 : (Admin) S >> 8=FIX.4.3|9=56|35=0|34=47|49=CLIENT|52=20220110-00:46:44.000|56=SERVER|10=144|
2022-01-09 18:47:14,127 : (Admin) R << 8=FIX.4.3|9=56|35=0|34=48|49=SERVER|52=20220110-00:47:14.000|56=CLIENT|10=143|
2022-01-09 18:47:14,127 : (Admin) S >> 8=FIX.4.3|9=56|35=0|34=48|49=CLIENT|52=20220110-00:47:14.000|56=SERVER|10=143|
2022-01-09 18:47:44,048 : (Admin) R << 8=FIX.4.3|9=56|35=0|34=49|49=SERVER|52=20220110-00:47:44.000|56=CLIENT|10=147|
2022-01-09 18:47:44,049 : (Admin) S >> 8=FIX.4.3|9=56|35=0|34=49|49=CLIENT|52=20220110-00:47:44.000|56=SERVER|10=147|
2022-01-09 18:48:14,143 : (Admin) R << 8=FIX.4.3|9=56|35=0|34=50|49=SERVER|52=20220110-00:48:14.000|56=CLIENT|10=137|
2022-01-09 18:48:14,144 : (Admin) S >> 8=FIX.4.3|9=56|35=0|34=50|49=CLIENT|52=20220110-00:48:14.000|56=SERVER|10=137|
2022-01-09 18:48:44,111 : (Admin) R << 8=FIX.4.3|9=56|35=0|34=51|49=SERVER|52=20220110-00:48:44.000|56=CLIENT|10=141|
2022-01-09 18:48:44,111 : (Admin) S >> 8=FIX.4.3|9=56|35=0|34=51|49=CLIENT|52=20220110-00:48:44.000|56=SERVER|10=141|
2022-01-09 18:49:14,005 : (Admin) S >> 8=FIX.4.3|9=56|35=0|34=52|49=CLIENT|52=20220110-00:49:14.000|56=SERVER|10=140|
2022-01-09 18:49:14,009 : (Admin) R << 8=FIX.4.3|9=56|35=0|34=52|49=SERVER|52=20220110-00:49:14.000|56=CLIENT|10=140|
2022-01-09 18:49:44,069 : (Admin) R << 8=FIX.4.3|9=56|35=0|34=53|49=SERVER|52=20220110-00:49:44.000|56=CLIENT|10=144|
2022-01-09 18:49:44,069 : (Admin) S >> 8=FIX.4.3|9=56|35=0|34=53|49=CLIENT|52=20220110-00:49:44.000|56=SERVER|10=144|
2022-01-09 18:50:14,005 : (Admin) R << 8=FIX.4.3|9=56|35=0|34=54|49=SERVER|52=20220110-00:50:14.000|56=CLIENT|10=134|
2022-01-09 18:50:14,009 : (Admin) S >> 8=FIX.4.3|9=56|35=0|34=54|49=CLIENT|52=20220110-00:50:14.000|56=SERVER|10=134|
2022-01-09 18:50:44,117 : (Admin) S >> 8=FIX.4.3|9=56|35=0|34=55|49=CLIENT|52=20220110-00:50:44.000|56=SERVER|10=138|
2022-01-09 18:50:44,121 : (Admin) R << 8=FIX.4.3|9=56|35=0|34=55|49=SERVER|52=20220110-00:50:44.000|56=CLIENT|10=138|
2022-01-09 18:51:14,025 : (Admin) R << 8=FIX.4.3|9=56|35=0|34=56|49=SERVER|52=20220110-00:51:14.000|56=CLIENT|10=137|
2022-01-09 18:51:14,026 : (Admin) S >> 8=FIX.4.3|9=56|35=0|34=56|49=CLIENT|52=20220110-00:51:14.000|56=SERVER|10=137|
2022-01-09 18:51:44,203 : (Admin) S >> 8=FIX.4.3|9=56|35=0|34=57|49=CLIENT|52=20220110-00:51:44.000|56=SERVER|10=141|
2022-01-09 18:51:44,207 : (Admin) R << 8=FIX.4.3|9=56|35=0|34=57|49=SERVER|52=20220110-00:51:44.000|56=CLIENT|10=141|
2022-01-09 18:52:14,206 : (Admin) S >> 8=FIX.4.3|9=56|35=0|34=58|49=CLIENT|52=20220110-00:52:14.000|56=SERVER|10=140|
2022-01-09 18:52:14,210 : (Admin) R << 8=FIX.4.3|9=56|35=0|34=58|49=SERVER|52=20220110-00:52:14.000|56=CLIENT|10=140|
2022-01-09 18:52:44,218 : (Admin) S >> 8=FIX.4.3|9=56|35=0|34=59|49=CLIENT|52=20220110-00:52:44.000|56=SERVER|10=144|
2022-01-09 18:52:44,224 : (Admin) R << 8=FIX.4.3|9=56|35=0|34=59|49=SERVER|52=20220110-00:52:44.000|56=CLIENT|10=144|
2022-01-09 18:53:14,176 : (Admin) S >> 8=FIX.4.3|9=56|35=0|34=60|49=CLIENT|52=20220110-00:53:14.000|56=SERVER|10=134|
2022-01-09 18:53:14,180 : (Admin) R << 8=FIX.4.3|9=56|35=0|34=60|49=SERVER|52=20220110-00:53:14.000|56=CLIENT|10=134|
2022-01-09 18:53:44,094 : (Admin) S >> 8=FIX.4.3|9=56|35=0|34=61|49=CLIENT|52=20220110-00:53:44.000|56=SERVER|10=138|
2022-01-09 18:53:44,098 : (Admin) R << 8=FIX.4.3|9=56|35=0|34=61|49=SERVER|52=20220110-00:53:44.000|56=CLIENT|10=138|
2022-01-09 18:54:14,126 : (Admin) S >> 8=FIX.4.3|9=56|35=0|34=62|49=CLIENT|52=20220110-00:54:14.000|56=SERVER|10=137|
2022-01-09 18:54:14,132 : (Admin) R << 8=FIX.4.3|9=56|35=0|34=62|49=SERVER|52=20220110-00:54:14.000|56=CLIENT|10=137|
2022-01-09 18:54:44,042 : (Admin) S >> 8=FIX.4.3|9=56|35=0|34=63|49=CLIENT|52=20220110-00:54:44.000|56=SERVER|10=141|
2022-01-09 18:54:44,048 : (Admin) R << 8=FIX.4.3|9=56|35=0|34=63|49=SERVER|52=20220110-00:54:44.000|56=CLIENT|10=141|
2022-01-09 18:55:14,005 : (Admin) R << 8=FIX.4.3|9=56|35=0|34=64|49=SERVER|52=20220110-00:55:14.000|56=CLIENT|10=140|
2022-01-09 18:55:14,006 : (Admin) S >> 8=FIX.4.3|9=56|35=0|34=64|49=CLIENT|52=20220110-00:55:14.000|56=SERVER|10=140|
2022-01-09 18:55:44,132 : (Admin) S >> 8=FIX.4.3|9=56|35=0|34=65|49=CLIENT|52=20220110-00:55:44.000|56=SERVER|10=144|
2022-01-09 18:55:44,136 : (Admin) R << 8=FIX.4.3|9=56|35=0|34=65|49=SERVER|52=20220110-00:55:44.000|56=CLIENT|10=144|
2022-01-09 18:56:14,160 : (Admin) S >> 8=FIX.4.3|9=56|35=0|34=66|49=CLIENT|52=20220110-00:56:14.000|56=SERVER|10=143|
2022-01-09 18:56:14,165 : (Admin) R << 8=FIX.4.3|9=56|35=0|34=66|49=SERVER|52=20220110-00:56:14.000|56=CLIENT|10=143|
2022-01-09 18:56:44,008 : (Admin) S >> 8=FIX.4.3|9=56|35=0|34=67|49=CLIENT|52=20220110-00:56:44.000|56=SERVER|10=147|
2022-01-09 18:56:44,014 : (Admin) R << 8=FIX.4.3|9=56|35=0|34=67|49=SERVER|52=20220110-00:56:44.000|56=CLIENT|10=147|
2022-01-09 18:57:14,170 : (Admin) S >> 8=FIX.4.3|9=56|35=0|34=68|49=CLIENT|52=20220110-00:57:14.000|56=SERVER|10=146|
2022-01-09 18:57:14,173 : (Admin) R << 8=FIX.4.3|9=56|35=0|34=68|49=SERVER|52=20220110-00:57:14.000|56=CLIENT|10=146|
2022-01-09 18:57:44,179 : (Admin) S >> 8=FIX.4.3|9=56|35=0|34=69|49=CLIENT|52=20220110-00:57:44.000|56=SERVER|10=150|
2022-01-09 18:57:44,183 : (Admin) R << 8=FIX.4.3|9=56|35=0|34=69|49=SERVER|52=20220110-00:57:44.000|56=CLIENT|10=150|
2022-01-09 18:58:14,102 : (Admin) S >> 8=FIX.4.3|9=56|35=0|34=70|49=CLIENT|52=20220110-00:58:14.000|56=SERVER|10=140|
2022-01-09 18:58:14,105 : (Admin) R << 8=FIX.4.3|9=56|35=0|34=70|49=SERVER|52=20220110-00:58:14.000|56=CLIENT|10=140|
2022-01-09 18:58:44,114 : (Admin) S >> 8=FIX.4.3|9=56|35=0|34=71|49=CLIENT|52=20220110-00:58:44.000|56=SERVER|10=144|
2022-01-09 18:58:44,118 : (Admin) R << 8=FIX.4.3|9=56|35=0|34=71|49=SERVER|52=20220110-00:58:44.000|56=CLIENT|10=144|
2022-01-09 18:59:14,022 : (Admin) S >> 8=FIX.4.3|9=56|35=0|34=72|49=CLIENT|52=20220110-00:59:14.000|56=SERVER|10=143|
2022-01-09 18:59:14,026 : (Admin) R << 8=FIX.4.3|9=56|35=0|34=72|49=SERVER|52=20220110-00:59:14.000|56=CLIENT|10=143|
2022-01-09 18:59:44,117 : (Admin) S >> 8=FIX.4.3|9=56|35=0|34=73|49=CLIENT|52=20220110-00:59:44.000|56=SERVER|10=147|
2022-01-09 18:59:44,122 : (Admin) R << 8=FIX.4.3|9=56|35=0|34=73|49=SERVER|52=20220110-00:59:44.000|56=CLIENT|10=147|
2022-01-09 19:00:14,028 : (Admin) S >> 8=FIX.4.3|9=56|35=0|34=74|49=CLIENT|52=20220110-01:00:14.000|56=SERVER|10=132|
2022-01-09 19:00:14,032 : (Admin) R << 8=FIX.4.3|9=56|35=0|34=74|49=SERVER|52=20220110-01:00:14.000|56=CLIENT|10=132|
2022-01-09 19:00:44,045 : (Admin) S >> 8=FIX.4.3|9=56|35=0|34=75|49=CLIENT|52=20220110-01:00:44.000|56=SERVER|10=136|
2022-01-09 19:00:44,049 : (Admin) R << 8=FIX.4.3|9=56|35=0|34=75|49=SERVER|52=20220110-01:00:44.000|56=CLIENT|10=136|
2022-01-09 19:01:14,507 : (Admin) R << 8=FIX.4.3|9=56|35=0|34=76|49=SERVER|52=20220110-01:01:14.000|56=CLIENT|10=135|
2022-01-09 19:01:14,508 : (Admin) S >> 8=FIX.4.3|9=56|35=0|34=76|49=CLIENT|52=20220110-01:01:14.000|56=SERVER|10=135|
2022-01-09 19:01:44,538 : (Admin) S >> 8=FIX.4.3|9=56|35=0|34=77|49=CLIENT|52=20220110-01:01:44.000|56=SERVER|10=139|
2022-01-09 19:01:44,542 : (Admin) R << 8=FIX.4.3|9=56|35=0|34=77|49=SERVER|52=20220110-01:01:44.000|56=CLIENT|10=139|
2022-01-09 19:02:14,340 : (Admin) S >> 8=FIX.4.3|9=56|35=0|34=78|49=CLIENT|52=20220110-01:02:14.000|56=SERVER|10=138|
2022-01-09 19:02:14,343 : (Admin) R << 8=FIX.4.3|9=56|35=0|34=78|49=SERVER|52=20220110-01:02:14.000|56=CLIENT|10=138|
2022-01-09 19:02:44,752 : (Admin) R << 8=FIX.4.3|9=56|35=0|34=79|49=SERVER|52=20220110-01:02:44.000|56=CLIENT|10=142|
2022-01-09 19:02:44,753 : (Admin) S >> 8=FIX.4.3|9=56|35=0|34=79|49=CLIENT|52=20220110-01:02:44.000|56=SERVER|10=142|
2022-01-09 19:03:14,029 : (Admin) R << 8=FIX.4.3|9=56|35=0|34=80|49=SERVER|52=20220110-01:03:14.000|56=CLIENT|10=132|
2022-01-09 19:03:14,029 : (Admin) S >> 8=FIX.4.3|9=56|35=0|34=80|49=CLIENT|52=20220110-01:03:14.000|56=SERVER|10=132|
2022-01-09 19:03:44,275 : (Admin) S >> 8=FIX.4.3|9=56|35=0|34=81|49=CLIENT|52=20220110-01:03:44.000|56=SERVER|10=136|
2022-01-09 19:03:44,281 : (Admin) R << 8=FIX.4.3|9=56|35=0|34=81|49=SERVER|52=20220110-01:03:44.000|56=CLIENT|10=136|
2022-01-09 19:04:14,345 : (Admin) S >> 8=FIX.4.3|9=56|35=0|34=82|49=CLIENT|52=20220110-01:04:14.000|56=SERVER|10=135|
2022-01-09 19:04:14,349 : (Admin) R << 8=FIX.4.3|9=56|35=0|34=82|49=SERVER|52=20220110-01:04:14.000|56=CLIENT|10=135|
2022-01-09 19:04:44,198 : (Admin) S >> 8=FIX.4.3|9=56|35=0|34=83|49=CLIENT|52=20220110-01:04:44.000|56=SERVER|10=139|
2022-01-09 19:04:44,201 : (Admin) R << 8=FIX.4.3|9=56|35=0|34=83|49=SERVER|52=20220110-01:04:44.000|56=CLIENT|10=139|
2022-01-09 19:05:14,478 : (Admin) R << 8=FIX.4.3|9=56|35=0|34=84|49=SERVER|52=20220110-01:05:14.000|56=CLIENT|10=138|
2022-01-09 19:05:14,479 : (Admin) S >> 8=FIX.4.3|9=56|35=0|34=84|49=CLIENT|52=20220110-01:05:14.000|56=SERVER|10=138|
2022-01-09 19:05:44,412 : (Admin) R << 8=FIX.4.3|9=56|35=0|34=85|49=SERVER|52=20220110-01:05:44.000|56=CLIENT|10=142|
2022-01-09 19:05:44,413 : (Admin) S >> 8=FIX.4.3|9=56|35=0|34=85|49=CLIENT|52=20220110-01:05:44.000|56=SERVER|10=142|
2022-01-09 19:06:14,058 : (Admin) R << 8=FIX.4.3|9=56|35=0|34=86|49=SERVER|52=20220110-01:06:14.000|56=CLIENT|10=141|
2022-01-09 19:06:14,058 : (Admin) S >> 8=FIX.4.3|9=56|35=0|34=86|49=CLIENT|52=20220110-01:06:14.000|56=SERVER|10=141|
2022-01-09 19:06:44,133 : (Admin) R << 8=FIX.4.3|9=56|35=0|34=87|49=SERVER|52=20220110-01:06:44.000|56=CLIENT|10=145|
2022-01-09 19:06:44,134 : (Admin) S >> 8=FIX.4.3|9=56|35=0|34=87|49=CLIENT|52=20220110-01:06:44.000|56=SERVER|10=145|
2022-01-09 19:07:14,020 : (Admin) S >> 8=FIX.4.3|9=56|35=0|34=88|49=CLIENT|52=20220110-01:07:14.000|56=SERVER|10=144|
2022-01-09 19:07:14,024 : (Admin) R << 8=FIX.4.3|9=56|35=0|34=88|49=SERVER|52=20220110-01:07:14.000|56=CLIENT|10=144|
2022-01-09 19:07:44,201 : (Admin) R << 8=FIX.4.3|9=56|35=0|34=89|49=SERVER|52=20220110-01:07:44.000|56=CLIENT|10=148|
2022-01-09 19:07:44,202 : (Admin) S >> 8=FIX.4.3|9=56|35=0|34=89|49=CLIENT|52=20220110-01:07:44.000|56=SERVER|10=148|
2022-01-09 19:08:14,053 : (Admin) R << 8=FIX.4.3|9=56|35=0|34=90|49=SERVER|52=20220110-01:08:14.000|56=CLIENT|10=138|
2022-01-09 19:08:14,054 : (Admin) S >> 8=FIX.4.3|9=56|35=0|34=90|49=CLIENT|52=20220110-01:08:14.000|56=SERVER|10=138|
2022-01-09 19:08:44,326 : (Admin) R << 8=FIX.4.3|9=56|35=0|34=91|49=SERVER|52=20220110-01:08:44.000|56=CLIENT|10=142|
2022-01-09 19:08:44,326 : (Admin) S >> 8=FIX.4.3|9=56|35=0|34=91|49=CLIENT|52=20220110-01:08:44.000|56=SERVER|10=142|
2022-01-09 19:09:14,230 : (Admin) R << 8=FIX.4.3|9=56|35=0|34=92|49=SERVER|52=20220110-01:09:14.000|56=CLIENT|10=141|
2022-01-09 19:09:14,231 : (Admin) S >> 8=FIX.4.3|9=56|35=0|34=92|49=CLIENT|52=20220110-01:09:14.000|56=SERVER|10=141|
2022-01-09 19:09:44,133 : (Admin) S >> 8=FIX.4.3|9=56|35=0|34=93|49=CLIENT|52=20220110-01:09:44.000|56=SERVER|10=145|
2022-01-09 19:09:44,137 : (Admin) R << 8=FIX.4.3|9=56|35=0|34=93|49=SERVER|52=20220110-01:09:44.000|56=CLIENT|10=145|
2022-01-09 19:10:14,008 : (Admin) R << 8=FIX.4.3|9=56|35=0|34=94|49=SERVER|52=20220110-01:10:14.000|56=CLIENT|10=135|
2022-01-09 19:10:14,009 : (Admin) S >> 8=FIX.4.3|9=56|35=0|34=94|49=CLIENT|52=20220110-01:10:14.000|56=SERVER|10=135|
2022-01-09 19:10:44,198 : (Admin) R << 8=FIX.4.3|9=56|35=0|34=95|49=SERVER|52=20220110-01:10:44.000|56=CLIENT|10=139|
2022-01-09 19:10:44,198 : (Admin) S >> 8=FIX.4.3|9=56|35=0|34=95|49=CLIENT|52=20220110-01:10:44.000|56=SERVER|10=139|
2022-01-09 19:11:14,396 : (Admin) S >> 8=FIX.4.3|9=56|35=0|34=96|49=CLIENT|52=20220110-01:11:14.000|56=SERVER|10=138|
2022-01-09 19:11:14,400 : (Admin) R << 8=FIX.4.3|9=56|35=0|34=96|49=SERVER|52=20220110-01:11:14.000|56=CLIENT|10=138|
2022-01-09 19:11:44,404 : (Admin) S >> 8=FIX.4.3|9=56|35=0|34=97|49=CLIENT|52=20220110-01:11:44.000|56=SERVER|10=142|
2022-01-09 19:11:44,408 : (Admin) R << 8=FIX.4.3|9=56|35=0|34=97|49=SERVER|52=20220110-01:11:44.000|56=CLIENT|10=142|
2022-01-09 19:12:32,099 : (Admin) R << 8=FIX.4.3|9=65|35=1|34=98|49=SERVER|52=20220110-01:12:32.000|56=CLIENT|112=TEST|10=160|
2022-01-09 19:12:32,099 : (Admin) S >> 8=FIX.4.3|9=65|35=0|34=98|49=CLIENT|52=20220110-01:12:32.000|56=SERVER|112=TEST|10=159|
2022-01-09 19:13:02,155 : (Admin) R << 8=FIX.4.3|9=56|35=0|34=99|49=SERVER|52=20220110-01:13:02.000|56=CLIENT|10=140|
2022-01-09 19:13:02,156 : (Admin) S >> 8=FIX.4.3|9=56|35=0|34=99|49=CLIENT|52=20220110-01:13:02.000|56=SERVER|10=140|
2022-01-09 19:13:37,938 : (Admin) R << 8=FIX.4.3|9=57|35=0|34=100|49=SERVER|52=20220110-01:13:37.000|56=CLIENT|10=180|
2022-01-09 19:13:37,939 : (Admin) S >> 8=FIX.4.3|9=57|35=0|34=100|49=CLIENT|52=20220110-01:13:37.000|56=SERVER|10=180|
2022-01-09 19:14:07,329 : (Admin) R << 8=FIX.4.3|9=57|35=0|34=101|49=SERVER|52=20220110-01:14:07.000|56=CLIENT|10=179|
2022-01-09 19:14:07,329 : (Admin) S >> 8=FIX.4.3|9=57|35=0|34=101|49=CLIENT|52=20220110-01:14:07.000|56=SERVER|10=179|
2022-01-09 19:14:37,008 : (Admin) S >> 8=FIX.4.3|9=57|35=0|34=102|49=CLIENT|52=20220110-01:14:37.000|56=SERVER|10=183|
2022-01-09 19:14:37,012 : (Admin) R << 8=FIX.4.3|9=57|35=0|34=102|49=SERVER|52=20220110-01:14:37.000|56=CLIENT|10=183|
2022-01-09 19:15:07,437 : (Admin) R << 8=FIX.4.3|9=57|35=0|34=103|49=SERVER|52=20220110-01:15:07.000|56=CLIENT|10=182|
2022-01-09 19:15:07,438 : (Admin) S >> 8=FIX.4.3|9=57|35=0|34=103|49=CLIENT|52=20220110-01:15:07.000|56=SERVER|10=182|
2022-01-09 19:17:30,765 : (Admin) S >> 8=FIX.4.3|9=73|35=A|34=1|49=CLIENT|52=20220110-01:17:30.000|56=SERVER|98=0|108=30|141=Y|10=166|
2022-01-09 19:18:30,754 : (Admin) S >> 8=FIX.4.3|9=73|35=A|34=1|49=CLIENT|52=20220110-01:18:30.000|56=SERVER|98=0|108=30|141=Y|10=167|
2022-01-09 19:18:30,761 : (Admin) R << 8=FIX.4.3|9=73|35=A|34=1|49=SERVER|52=20220110-01:18:30.000|56=CLIENT|98=0|108=30|141=Y|10=167|
2022-01-09 19:19:00,349 : (Admin) R << 8=FIX.4.3|9=55|35=0|34=2|49=SERVER|52=20220110-01:19:00.000|56=CLIENT|10=079|
2022-01-09 19:19:00,350 : (Admin) S >> 8=FIX.4.3|9=55|35=0|34=2|49=CLIENT|52=20220110-01:19:00.000|56=SERVER|10=079|
2022-01-09 19:19:39,915 : (Admin) S >> 8=FIX.4.3|9=64|35=1|34=3|49=CLIENT|52=20220110-01:19:39.000|56=SERVER|112=TEST|10=111|
2022-01-09 19:19:39,916 : (Admin) R << 8=FIX.4.3|9=64|35=1|34=3|49=SERVER|52=20220110-01:19:39.000|56=CLIENT|112=TEST|10=111|
2022-01-09 19:19:39,917 : (Admin) S >> 8=FIX.4.3|9=64|35=0|34=4|49=CLIENT|52=20220110-01:19:39.000|56=SERVER|112=TEST|10=111|
2022-01-09 19:19:39,917 : (Admin) R << 8=FIX.4.3|9=64|35=0|34=4|49=SERVER|52=20220110-01:19:39.000|56=CLIENT|112=TEST|10=111|
2022-01-09 19:20:09,240 : (Admin) S >> 8=FIX.4.3|9=55|35=0|34=5|49=CLIENT|52=20220110-01:20:09.000|56=SERVER|10=083|
2022-01-09 19:20:09,241 : (Admin) R << 8=FIX.4.3|9=55|35=0|34=5|49=SERVER|52=20220110-01:20:09.000|56=CLIENT|10=083|
2022-01-09 19:20:39,100 : (Admin) R << 8=FIX.4.3|9=55|35=0|34=6|49=SERVER|52=20220110-01:20:39.000|56=CLIENT|10=087|
2022-01-09 19:20:39,101 : (Admin) S >> 8=FIX.4.3|9=55|35=0|34=6|49=CLIENT|52=20220110-01:20:39.000|56=SERVER|10=087|
2022-01-09 19:21:09,129 : (Admin) R << 8=FIX.4.3|9=55|35=0|34=7|49=SERVER|52=20220110-01:21:09.000|56=CLIENT|10=086|
2022-01-09 19:21:09,130 : (Admin) S >> 8=FIX.4.3|9=55|35=0|34=7|49=CLIENT|52=20220110-01:21:09.000|56=SERVER|10=086|
2022-01-09 19:21:39,267 : (Admin) R << 8=FIX.4.3|9=55|35=0|34=8|49=SERVER|52=20220110-01:21:39.000|56=CLIENT|10=090|
2022-01-09 19:21:39,267 : (Admin) S >> 8=FIX.4.3|9=55|35=0|34=8|49=CLIENT|52=20220110-01:21:39.000|56=SERVER|10=090|
2022-01-09 19:22:09,496 : (Admin) R << 8=FIX.4.3|9=55|35=0|34=9|49=SERVER|52=20220110-01:22:09.000|56=CLIENT|10=089|
2022-01-09 19:22:09,497 : (Admin) S >> 8=FIX.4.3|9=55|35=0|34=9|49=CLIENT|52=20220110-01:22:09.000|56=SERVER|10=089|
2022-01-09 19:22:39,274 : (Admin) R << 8=FIX.4.3|9=56|35=0|34=10|49=SERVER|52=20220110-01:22:39.000|56=CLIENT|10=133|
2022-01-09 19:22:39,274 : (Admin) S >> 8=FIX.4.3|9=56|35=0|34=10|49=CLIENT|52=20220110-01:22:39.000|56=SERVER|10=133|
2022-01-09 19:23:09,080 : (Admin) S >> 8=FIX.4.3|9=56|35=0|34=11|49=CLIENT|52=20220110-01:23:09.000|56=SERVER|10=132|
2022-01-09 19:23:09,083 : (Admin) R << 8=FIX.4.3|9=56|35=0|34=11|49=SERVER|52=20220110-01:23:09.000|56=CLIENT|10=132|
2022-01-09 19:23:51,212 : (Admin) R << 8=FIX.4.3|9=65|35=1|34=12|49=SERVER|52=20220110-01:23:51.000|56=CLIENT|112=TEST|10=149|
2022-01-09 19:23:51,213 : (Admin) S >> 8=FIX.4.3|9=65|35=0|34=12|49=CLIENT|52=20220110-01:23:51.000|56=SERVER|112=TEST|10=148|
2022-01-09 19:24:21,058 : (Admin) R << 8=FIX.4.3|9=56|35=0|34=13|49=SERVER|52=20220110-01:24:21.000|56=CLIENT|10=129|
2022-01-09 19:24:21,058 : (Admin) S >> 8=FIX.4.3|9=56|35=0|34=13|49=CLIENT|52=20220110-01:24:21.000|56=SERVER|10=129|
2022-01-09 19:24:51,018 : (Admin) R << 8=FIX.4.3|9=56|35=0|34=14|49=SERVER|52=20220110-01:24:51.000|56=CLIENT|10=133|
2022-01-09 19:24:51,018 : (Admin) S >> 8=FIX.4.3|9=56|35=0|34=14|49=CLIENT|52=20220110-01:24:51.000|56=SERVER|10=133|
2022-01-09 19:25:21,133 : (Admin) R << 8=FIX.4.3|9=56|35=0|34=15|49=SERVER|52=20220110-01:25:21.000|56=CLIENT|10=132|
2022-01-09 19:25:21,134 : (Admin) S >> 8=FIX.4.3|9=56|35=0|34=15|49=CLIENT|52=20220110-01:25:21.000|56=SERVER|10=132|
2022-01-09 19:25:51,047 : (Admin) R << 8=FIX.4.3|9=56|35=0|34=16|49=SERVER|52=20220110-01:25:51.000|56=CLIENT|10=136|
2022-01-09 19:25:51,048 : (Admin) S >> 8=FIX.4.3|9=56|35=0|34=16|49=CLIENT|52=20220110-01:25:51.000|56=SERVER|10=136|
2022-01-09 19:26:21,195 : (Admin) S >> 8=FIX.4.3|9=56|35=0|34=17|49=CLIENT|52=20220110-01:26:21.000|56=SERVER|10=135|
2022-01-09 19:26:21,199 : (Admin) R << 8=FIX.4.3|9=56|35=0|34=17|49=SERVER|52=20220110-01:26:21.000|56=CLIENT|10=135|
2022-01-09 19:26:51,352 : (Admin) R << 8=FIX.4.3|9=56|35=0|34=18|49=SERVER|52=20220110-01:26:51.000|56=CLIENT|10=139|
2022-01-09 19:26:51,353 : (Admin) S >> 8=FIX.4.3|9=56|35=0|34=18|49=CLIENT|52=20220110-01:26:51.000|56=SERVER|10=139|
2022-01-09 19:27:21,193 : (Admin) R << 8=FIX.4.3|9=56|35=0|34=19|49=SERVER|52=20220110-01:27:21.000|56=CLIENT|10=138|
2022-01-09 19:27:21,194 : (Admin) S >> 8=FIX.4.3|9=56|35=0|34=19|49=CLIENT|52=20220110-01:27:21.000|56=SERVER|10=138|
2022-01-09 19:27:51,022 : (Admin) R << 8=FIX.4.3|9=56|35=0|34=20|49=SERVER|52=20220110-01:27:51.000|56=CLIENT|10=133|
2022-01-09 19:27:51,023 : (Admin) S >> 8=FIX.4.3|9=56|35=0|34=20|49=CLIENT|52=20220110-01:27:51.000|56=SERVER|10=133|
2022-01-09 19:28:21,380 : (Admin) R << 8=FIX.4.3|9=56|35=0|34=21|49=SERVER|52=20220110-01:28:21.000|56=CLIENT|10=132|
2022-01-09 19:28:21,381 : (Admin) S >> 8=FIX.4.3|9=56|35=0|34=21|49=CLIENT|52=20220110-01:28:21.000|56=SERVER|10=132|
2022-01-09 19:28:51,125 : (Admin) R << 8=FIX.4.3|9=56|35=0|34=22|49=SERVER|52=20220110-01:28:51.000|56=CLIENT|10=136|
2022-01-09 19:28:51,126 : (Admin) S >> 8=FIX.4.3|9=56|35=0|34=22|49=CLIENT|52=20220110-01:28:51.000|56=SERVER|10=136|
2022-01-09 19:29:21,394 : (Admin) R << 8=FIX.4.3|9=56|35=0|34=23|49=SERVER|52=20220110-01:29:21.000|56=CLIENT|10=135|
2022-01-09 19:29:21,394 : (Admin) S >> 8=FIX.4.3|9=56|35=0|34=23|49=CLIENT|52=20220110-01:29:21.000|56=SERVER|10=135|
2022-01-09 19:29:51,234 : (Admin) R << 8=FIX.4.3|9=56|35=0|34=24|49=SERVER|52=20220110-01:29:51.000|56=CLIENT|10=139|
2022-01-09 19:29:51,235 : (Admin) S >> 8=FIX.4.3|9=56|35=0|34=24|49=CLIENT|52=20220110-01:29:51.000|56=SERVER|10=139|
2022-01-09 19:30:21,003 : (Admin) S >> 8=FIX.4.3|9=56|35=0|34=25|49=CLIENT|52=20220110-01:30:21.000|56=SERVER|10=129|
2022-01-09 19:30:21,008 : (Admin) R << 8=FIX.4.3|9=56|35=0|34=25|49=SERVER|52=20220110-01:30:21.000|56=CLIENT|10=129|
2022-01-09 19:30:51,020 : (Admin) S >> 8=FIX.4.3|9=56|35=0|34=26|49=CLIENT|52=20220110-01:30:51.000|56=SERVER|10=133|
2022-01-09 19:30:51,024 : (Admin) R << 8=FIX.4.3|9=56|35=0|34=26|49=SERVER|52=20220110-01:30:51.000|56=CLIENT|10=133|
2022-01-09 19:31:21,028 : (Admin) R << 8=FIX.4.3|9=56|35=0|34=27|49=SERVER|52=20220110-01:31:21.000|56=CLIENT|10=132|
2022-01-09 19:31:21,029 : (Admin) S >> 8=FIX.4.3|9=56|35=0|34=27|49=CLIENT|52=20220110-01:31:21.000|56=SERVER|10=132|
2022-01-09 19:31:51,299 : (Admin) R << 8=FIX.4.3|9=56|35=0|34=28|49=SERVER|52=20220110-01:31:51.000|56=CLIENT|10=136|
2022-01-09 19:31:51,300 : (Admin) S >> 8=FIX.4.3|9=56|35=0|34=28|49=CLIENT|52=20220110-01:31:51.000|56=SERVER|10=136|
2022-01-09 19:32:21,083 : (Admin) S >> 8=FIX.4.3|9=56|35=0|34=29|49=CLIENT|52=20220110-01:32:21.000|56=SERVER|10=135|
2022-01-09 19:32:21,086 : (Admin) R << 8=FIX.4.3|9=56|35=0|34=29|49=SERVER|52=20220110-01:32:21.000|56=CLIENT|10=135|
2022-01-09 19:32:51,009 : (Admin) S >> 8=FIX.4.3|9=56|35=0|34=30|49=CLIENT|52=20220110-01:32:51.000|56=SERVER|10=130|
2022-01-09 19:32:51,013 : (Admin) R << 8=FIX.4.3|9=56|35=0|34=30|49=SERVER|52=20220110-01:32:51.000|56=CLIENT|10=130|
2022-01-09 19:33:21,119 : (Admin) R << 8=FIX.4.3|9=56|35=0|34=31|49=SERVER|52=20220110-01:33:21.000|56=CLIENT|10=129|
2022-01-09 19:33:21,119 : (Admin) S >> 8=FIX.4.3|9=56|35=0|34=31|49=CLIENT|52=20220110-01:33:21.000|56=SERVER|10=129|
2022-01-09 19:33:51,195 : (Admin) R << 8=FIX.4.3|9=56|35=0|34=32|49=SERVER|52=20220110-01:33:51.000|56=CLIENT|10=133|
2022-01-09 19:33:51,195 : (Admin) S >> 8=FIX.4.3|9=56|35=0|34=32|49=CLIENT|52=20220110-01:33:51.000|56=SERVER|10=133|
2022-01-09 19:34:21,017 : (Admin) R << 8=FIX.4.3|9=56|35=0|34=33|49=SERVER|52=20220110-01:34:21.000|56=CLIENT|10=132|
2022-01-09 19:34:21,018 : (Admin) S >> 8=FIX.4.3|9=56|35=0|34=33|49=CLIENT|52=20220110-01:34:21.000|56=SERVER|10=132|
2022-01-09 19:34:51,142 : (Admin) R << 8=FIX.4.3|9=56|35=0|34=34|49=SERVER|52=20220110-01:34:51.000|56=CLIENT|10=136|
2022-01-09 19:34:51,143 : (Admin) S >> 8=FIX.4.3|9=56|35=0|34=34|49=CLIENT|52=20220110-01:34:51.000|56=SERVER|10=136|
2022-01-09 19:39:32,982 : (Admin) S >> 8=FIX.4.3|9=73|35=A|34=1|49=CLIENT|52=20220110-01:39:32.000|56=SERVER|98=0|108=30|141=Y|10=172|
2022-01-09 19:39:32,985 : (Admin) R << 8=FIX.4.3|9=73|35=A|34=1|49=SERVER|52=20220110-01:39:32.000|56=CLIENT|98=0|108=30|141=Y|10=172|
2022-01-09 19:40:02,208 : (Admin) R << 8=FIX.4.3|9=55|35=0|34=2|49=SERVER|52=20220110-01:40:02.000|56=CLIENT|10=075|
2022-01-09 19:40:02,208 : (Admin) S >> 8=FIX.4.3|9=55|35=0|34=2|49=CLIENT|52=20220110-01:40:02.000|56=SERVER|10=075|
2022-01-09 19:40:32,036 : (Admin) R << 8=FIX.4.3|9=55|35=0|34=3|49=SERVER|52=20220110-01:40:32.000|56=CLIENT|10=079|
2022-01-09 19:40:32,037 : (Admin) S >> 8=FIX.4.3|9=55|35=0|34=3|49=CLIENT|52=20220110-01:40:32.000|56=SERVER|10=079|
2022-01-09 19:41:58,823 : (Admin) S >> 8=FIX.4.3|9=73|35=A|34=1|49=CLIENT|52=20220110-01:41:58.000|56=SERVER|98=0|108=30|141=Y|10=173|
2022-01-09 19:44:08,888 : (Admin) S >> 8=FIX.4.3|9=73|35=A|34=1|49=CLIENT|52=20220110-01:44:08.000|56=SERVER|98=0|108=30|141=Y|10=171|
2022-01-09 19:44:08,893 : (Admin) R << 8=FIX.4.3|9=73|35=A|34=1|49=SERVER|52=20220110-01:44:08.000|56=CLIENT|98=0|108=30|141=Y|10=171|
2022-01-09 19:44:38,164 : (Admin) R << 8=FIX.4.3|9=55|35=0|34=2|49=SERVER|52=20220110-01:44:38.000|56=CLIENT|10=088|
2022-01-09 19:44:38,165 : (Admin) S >> 8=FIX.4.3|9=55|35=0|34=2|49=CLIENT|52=20220110-01:44:38.000|56=SERVER|10=088|
2022-01-09 19:48:36,544 : (Admin) S >> 8=FIX.4.3|9=73|35=A|34=1|49=CLIENT|52=20220110-01:48:36.000|56=SERVER|98=0|108=30|141=Y|10=176|
2022-01-09 19:48:36,550 : (Admin) R << 8=FIX.4.3|9=73|35=A|34=1|49=SERVER|52=20220110-01:48:36.000|56=CLIENT|98=0|108=30|141=Y|10=176|
2022-01-09 19:49:06,020 : (Admin) R << 8=FIX.4.3|9=55|35=0|34=2|49=SERVER|52=20220110-01:49:06.000|56=CLIENT|10=088|
2022-01-09 19:49:06,020 : (Admin) S >> 8=FIX.4.3|9=55|35=0|34=2|49=CLIENT|52=20220110-01:49:06.000|56=SERVER|10=088|
2022-01-09 19:49:36,007 : (Admin) R << 8=FIX.4.3|9=55|35=0|34=3|49=SERVER|52=20220110-01:49:36.000|56=CLIENT|10=092|
2022-01-09 19:49:36,008 : (Admin) S >> 8=FIX.4.3|9=55|35=0|34=3|49=CLIENT|52=20220110-01:49:36.000|56=SERVER|10=092|
2022-01-09 19:50:06,224 : (Admin) S >> 8=FIX.4.3|9=55|35=0|34=4|49=CLIENT|52=20220110-01:50:06.000|56=SERVER|10=082|
2022-01-09 19:50:06,227 : (Admin) R << 8=FIX.4.3|9=55|35=0|34=4|49=SERVER|52=20220110-01:50:06.000|56=CLIENT|10=082|
2022-01-09 19:50:36,220 : (Admin) R << 8=FIX.4.3|9=55|35=0|34=5|49=SERVER|52=20220110-01:50:36.000|56=CLIENT|10=086|
2022-01-09 19:50:36,221 : (Admin) S >> 8=FIX.4.3|9=55|35=0|34=5|49=CLIENT|52=20220110-01:50:36.000|56=SERVER|10=086|
2022-01-09 19:51:06,053 : (Admin) S >> 8=FIX.4.3|9=55|35=0|34=6|49=CLIENT|52=20220110-01:51:06.000|56=SERVER|10=085|
2022-01-09 19:51:06,057 : (Admin) R << 8=FIX.4.3|9=55|35=0|34=6|49=SERVER|52=20220110-01:51:06.000|56=CLIENT|10=085|
2022-01-09 19:51:36,377 : (Admin) S >> 8=FIX.4.3|9=55|35=0|34=7|49=CLIENT|52=20220110-01:51:36.000|56=SERVER|10=089|
2022-01-09 19:51:36,380 : (Admin) R << 8=FIX.4.3|9=55|35=0|34=7|49=SERVER|52=20220110-01:51:36.000|56=CLIENT|10=089|
2022-01-09 19:52:06,242 : (Admin) S >> 8=FIX.4.3|9=55|35=0|34=8|49=CLIENT|52=20220110-01:52:06.000|56=SERVER|10=088|
2022-01-09 19:52:06,245 : (Admin) R << 8=FIX.4.3|9=55|35=0|34=8|49=SERVER|52=20220110-01:52:06.000|56=CLIENT|10=088|
2022-01-09 19:52:36,175 : (Admin) S >> 8=FIX.4.3|9=55|35=0|34=9|49=CLIENT|52=20220110-01:52:36.000|56=SERVER|10=092|
2022-01-09 19:52:36,178 : (Admin) R << 8=FIX.4.3|9=55|35=0|34=9|49=SERVER|52=20220110-01:52:36.000|56=CLIENT|10=092|
2022-01-09 19:53:06,087 : (Admin) S >> 8=FIX.4.3|9=56|35=0|34=10|49=CLIENT|52=20220110-01:53:06.000|56=SERVER|10=131|
2022-01-09 19:53:06,091 : (Admin) R << 8=FIX.4.3|9=56|35=0|34=10|49=SERVER|52=20220110-01:53:06.000|56=CLIENT|10=131|
2022-01-09 19:53:36,034 : (Admin) S >> 8=FIX.4.3|9=56|35=0|34=11|49=CLIENT|52=20220110-01:53:36.000|56=SERVER|10=135|
2022-01-09 19:53:36,038 : (Admin) R << 8=FIX.4.3|9=56|35=0|34=11|49=SERVER|52=20220110-01:53:36.000|56=CLIENT|10=135|
2022-01-09 19:54:06,386 : (Admin) S >> 8=FIX.4.3|9=56|35=0|34=12|49=CLIENT|52=20220110-01:54:06.000|56=SERVER|10=134|
2022-01-09 19:54:06,390 : (Admin) R << 8=FIX.4.3|9=56|35=0|34=12|49=SERVER|52=20220110-01:54:06.000|56=CLIENT|10=134|
2022-01-09 19:54:36,188 : (Admin) S >> 8=FIX.4.3|9=56|35=0|34=13|49=CLIENT|52=20220110-01:54:36.000|56=SERVER|10=138|
2022-01-09 19:54:36,191 : (Admin) R << 8=FIX.4.3|9=56|35=0|34=13|49=SERVER|52=20220110-01:54:36.000|56=CLIENT|10=138|
2022-01-09 19:55:06,218 : (Admin) R << 8=FIX.4.3|9=56|35=0|34=14|49=SERVER|52=20220110-01:55:06.000|56=CLIENT|10=137|
2022-01-09 19:55:06,218 : (Admin) S >> 8=FIX.4.3|9=56|35=0|34=14|49=CLIENT|52=20220110-01:55:06.000|56=SERVER|10=137|
2022-01-09 19:55:36,066 : (Admin) S >> 8=FIX.4.3|9=56|35=0|34=15|49=CLIENT|52=20220110-01:55:36.000|56=SERVER|10=141|
2022-01-09 19:55:36,069 : (Admin) R << 8=FIX.4.3|9=56|35=0|34=15|49=SERVER|52=20220110-01:55:36.000|56=CLIENT|10=141|
2022-01-09 19:56:06,063 : (Admin) S >> 8=FIX.4.3|9=56|35=0|34=16|49=CLIENT|52=20220110-01:56:06.000|56=SERVER|10=140|
2022-01-09 19:56:06,068 : (Admin) R << 8=FIX.4.3|9=56|35=0|34=16|49=SERVER|52=20220110-01:56:06.000|56=CLIENT|10=140|
2022-01-09 19:56:36,180 : (Admin) S >> 8=FIX.4.3|9=56|35=0|34=17|49=CLIENT|52=20220110-01:56:36.000|56=SERVER|10=144|
2022-01-09 19:56:36,186 : (Admin) R << 8=FIX.4.3|9=56|35=0|34=17|49=SERVER|52=20220110-01:56:36.000|56=CLIENT|10=144|
2022-01-09 19:57:06,167 : (Admin) R << 8=FIX.4.3|9=56|35=0|34=18|49=SERVER|52=20220110-01:57:06.000|56=CLIENT|10=143|
2022-01-09 19:57:06,168 : (Admin) S >> 8=FIX.4.3|9=56|35=0|34=18|49=CLIENT|52=20220110-01:57:06.000|56=SERVER|10=143|
2022-01-09 19:57:36,051 : (Admin) S >> 8=FIX.4.3|9=56|35=0|34=19|49=CLIENT|52=20220110-01:57:36.000|56=SERVER|10=147|
2022-01-09 19:57:36,054 : (Admin) R << 8=FIX.4.3|9=56|35=0|34=19|49=SERVER|52=20220110-01:57:36.000|56=CLIENT|10=147|
2022-01-09 19:58:06,299 : (Admin) S >> 8=FIX.4.3|9=56|35=0|34=20|49=CLIENT|52=20220110-01:58:06.000|56=SERVER|10=137|
2022-01-09 19:58:06,302 : (Admin) R << 8=FIX.4.3|9=56|35=0|34=20|49=SERVER|52=20220110-01:58:06.000|56=CLIENT|10=137|
2022-01-09 19:58:36,070 : (Admin) S >> 8=FIX.4.3|9=56|35=0|34=21|49=CLIENT|52=20220110-01:58:36.000|56=SERVER|10=141|
2022-01-09 19:58:36,076 : (Admin) R << 8=FIX.4.3|9=56|35=0|34=21|49=SERVER|52=20220110-01:58:36.000|56=CLIENT|10=141|
2022-01-09 19:59:06,337 : (Admin) S >> 8=FIX.4.3|9=56|35=0|34=22|49=CLIENT|52=20220110-01:59:06.000|56=SERVER|10=140|
2022-01-09 19:59:06,343 : (Admin) R << 8=FIX.4.3|9=56|35=0|34=22|49=SERVER|52=20220110-01:59:06.000|56=CLIENT|10=140|
2022-01-09 19:59:36,298 : (Admin) S >> 8=FIX.4.3|9=56|35=0|34=23|49=CLIENT|52=20220110-01:59:36.000|56=SERVER|10=144|
2022-01-09 19:59:36,301 : (Admin) R << 8=FIX.4.3|9=56|35=0|34=23|49=SERVER|52=20220110-01:59:36.000|56=CLIENT|10=144|
2022-01-09 20:00:06,257 : (Admin) S >> 8=FIX.4.3|9=56|35=0|34=24|49=CLIENT|52=20220110-02:00:06.000|56=SERVER|10=129|
2022-01-09 20:00:06,261 : (Admin) R << 8=FIX.4.3|9=56|35=0|34=24|49=SERVER|52=20220110-02:00:06.000|56=CLIENT|10=129|
2022-01-09 20:00:36,157 : (Admin) R << 8=FIX.4.3|9=56|35=0|34=25|49=SERVER|52=20220110-02:00:36.000|56=CLIENT|10=133|
2022-01-09 20:00:36,158 : (Admin) S >> 8=FIX.4.3|9=56|35=0|34=25|49=CLIENT|52=20220110-02:00:36.000|56=SERVER|10=133|
2022-01-09 20:01:06,019 : (Admin) S >> 8=FIX.4.3|9=56|35=0|34=26|49=CLIENT|52=20220110-02:01:06.000|56=SERVER|10=132|
2022-01-09 20:01:06,023 : (Admin) R << 8=FIX.4.3|9=56|35=0|34=26|49=SERVER|52=20220110-02:01:06.000|56=CLIENT|10=132|
2022-01-09 20:01:36,104 : (Admin) S >> 8=FIX.4.3|9=56|35=0|34=27|49=CLIENT|52=20220110-02:01:36.000|56=SERVER|10=136|
2022-01-09 20:01:36,108 : (Admin) R << 8=FIX.4.3|9=56|35=0|34=27|49=SERVER|52=20220110-02:01:36.000|56=CLIENT|10=136|
2022-01-09 20:02:06,074 : (Admin) S >> 8=FIX.4.3|9=56|35=0|34=28|49=CLIENT|52=20220110-02:02:06.000|56=SERVER|10=135|
2022-01-09 20:02:06,079 : (Admin) R << 8=FIX.4.3|9=56|35=0|34=28|49=SERVER|52=20220110-02:02:06.000|56=CLIENT|10=135|
2022-01-09 20:02:36,035 : (Admin) S >> 8=FIX.4.3|9=56|35=0|34=29|49=CLIENT|52=20220110-02:02:36.000|56=SERVER|10=139|
2022-01-09 20:02:36,038 : (Admin) R << 8=FIX.4.3|9=56|35=0|34=29|49=SERVER|52=20220110-02:02:36.000|56=CLIENT|10=139|
2022-01-09 20:03:06,001 : (Admin) S >> 8=FIX.4.3|9=56|35=0|34=30|49=CLIENT|52=20220110-02:03:06.000|56=SERVER|10=129|
2022-01-09 20:03:06,004 : (Admin) R << 8=FIX.4.3|9=56|35=0|34=30|49=SERVER|52=20220110-02:03:06.000|56=CLIENT|10=129|
2022-01-09 20:03:36,228 : (Admin) S >> 8=FIX.4.3|9=56|35=0|34=31|49=CLIENT|52=20220110-02:03:36.000|56=SERVER|10=133|
2022-01-09 20:03:36,231 : (Admin) R << 8=FIX.4.3|9=56|35=0|34=31|49=SERVER|52=20220110-02:03:36.000|56=CLIENT|10=133|
2022-01-09 20:04:06,111 : (Admin) S >> 8=FIX.4.3|9=56|35=0|34=32|49=CLIENT|52=20220110-02:04:06.000|56=SERVER|10=132|
2022-01-09 20:04:06,117 : (Admin) R << 8=FIX.4.3|9=56|35=0|34=32|49=SERVER|52=20220110-02:04:06.000|56=CLIENT|10=132|
2022-01-09 20:04:36,085 : (Admin) S >> 8=FIX.4.3|9=56|35=0|34=33|49=CLIENT|52=20220110-02:04:36.000|56=SERVER|10=136|
2022-01-09 20:04:36,091 : (Admin) R << 8=FIX.4.3|9=56|35=0|34=33|49=SERVER|52=20220110-02:04:36.000|56=CLIENT|10=136|
2022-01-09 20:05:06,053 : (Admin) S >> 8=FIX.4.3|9=56|35=0|34=34|49=CLIENT|52=20220110-02:05:06.000|56=SERVER|10=135|
2022-01-09 20:05:06,056 : (Admin) R << 8=FIX.4.3|9=56|35=0|34=34|49=SERVER|52=20220110-02:05:06.000|56=CLIENT|10=135|
2022-01-09 20:05:36,033 : (Admin) S >> 8=FIX.4.3|9=56|35=0|34=35|49=CLIENT|52=20220110-02:05:36.000|56=SERVER|10=139|
2022-01-09 20:05:36,036 : (Admin) R << 8=FIX.4.3|9=56|35=0|34=35|49=SERVER|52=20220110-02:05:36.000|56=CLIENT|10=139|
2022-01-09 20:06:06,007 : (Admin) S >> 8=FIX.4.3|9=56|35=0|34=36|49=CLIENT|52=20220110-02:06:06.000|56=SERVER|10=138|
2022-01-09 20:06:06,010 : (Admin) R << 8=FIX.4.3|9=56|35=0|34=36|49=SERVER|52=20220110-02:06:06.000|56=CLIENT|10=138|
2022-01-09 20:06:36,062 : (Admin) S >> 8=FIX.4.3|9=56|35=0|34=37|49=CLIENT|52=20220110-02:06:36.000|56=SERVER|10=142|
2022-01-09 20:06:36,067 : (Admin) R << 8=FIX.4.3|9=56|35=0|34=37|49=SERVER|52=20220110-02:06:36.000|56=CLIENT|10=142|
2022-01-09 20:07:06,032 : (Admin) S >> 8=FIX.4.3|9=56|35=0|34=38|49=CLIENT|52=20220110-02:07:06.000|56=SERVER|10=141|
2022-01-09 20:07:06,035 : (Admin) R << 8=FIX.4.3|9=56|35=0|34=38|49=SERVER|52=20220110-02:07:06.000|56=CLIENT|10=141|
2022-01-09 20:07:36,026 : (Admin) S >> 8=FIX.4.3|9=56|35=0|34=39|49=CLIENT|52=20220110-02:07:36.000|56=SERVER|10=145|
2022-01-09 20:07:36,030 : (Admin) R << 8=FIX.4.3|9=56|35=0|34=39|49=SERVER|52=20220110-02:07:36.000|56=CLIENT|10=145|
2022-01-09 20:08:06,173 : (Admin) R << 8=FIX.4.3|9=56|35=0|34=40|49=SERVER|52=20220110-02:08:06.000|56=CLIENT|10=135|
2022-01-09 20:08:06,174 : (Admin) S >> 8=FIX.4.3|9=56|35=0|34=40|49=CLIENT|52=20220110-02:08:06.000|56=SERVER|10=135|
2022-01-09 20:08:36,212 : (Admin) S >> 8=FIX.4.3|9=56|35=0|34=41|49=CLIENT|52=20220110-02:08:36.000|56=SERVER|10=139|
2022-01-09 20:08:36,216 : (Admin) R << 8=FIX.4.3|9=56|35=0|34=41|49=SERVER|52=20220110-02:08:36.000|56=CLIENT|10=139|
2022-01-09 20:09:06,090 : (Admin) S >> 8=FIX.4.3|9=56|35=0|34=42|49=CLIENT|52=20220110-02:09:06.000|56=SERVER|10=138|
2022-01-09 20:09:06,096 : (Admin) R << 8=FIX.4.3|9=56|35=0|34=42|49=SERVER|52=20220110-02:09:06.000|56=CLIENT|10=138|
2022-01-09 20:09:36,488 : (Admin) R << 8=FIX.4.3|9=56|35=0|34=43|49=SERVER|52=20220110-02:09:36.000|56=CLIENT|10=142|
2022-01-09 20:09:36,489 : (Admin) S >> 8=FIX.4.3|9=56|35=0|34=43|49=CLIENT|52=20220110-02:09:36.000|56=SERVER|10=142|
2022-01-09 20:10:06,483 : (Admin) R << 8=FIX.4.3|9=56|35=0|34=44|49=SERVER|52=20220110-02:10:06.000|56=CLIENT|10=132|
2022-01-09 20:10:06,484 : (Admin) S >> 8=FIX.4.3|9=56|35=0|34=44|49=CLIENT|52=20220110-02:10:06.000|56=SERVER|10=132|
2022-01-09 20:10:36,076 : (Admin) R << 8=FIX.4.3|9=56|35=0|34=45|49=SERVER|52=20220110-02:10:36.000|56=CLIENT|10=136|
2022-01-09 20:10:36,077 : (Admin) S >> 8=FIX.4.3|9=56|35=0|34=45|49=CLIENT|52=20220110-02:10:36.000|56=SERVER|10=136|
2022-01-09 20:11:06,232 : (Admin) S >> 8=FIX.4.3|9=56|35=0|34=46|49=CLIENT|52=20220110-02:11:06.000|56=SERVER|10=135|
2022-01-09 20:11:06,235 : (Admin) R << 8=FIX.4.3|9=56|35=0|34=46|49=SERVER|52=20220110-02:11:06.000|56=CLIENT|10=135|
2022-01-09 20:11:36,211 : (Admin) S >> 8=FIX.4.3|9=56|35=0|34=47|49=CLIENT|52=20220110-02:11:36.000|56=SERVER|10=139|
2022-01-09 20:11:36,215 : (Admin) R << 8=FIX.4.3|9=56|35=0|34=47|49=SERVER|52=20220110-02:11:36.000|56=CLIENT|10=139|
2022-01-09 20:12:06,001 : (Admin) S >> 8=FIX.4.3|9=56|35=0|34=48|49=CLIENT|52=20220110-02:12:06.000|56=SERVER|10=138|
2022-01-09 20:12:06,006 : (Admin) R << 8=FIX.4.3|9=56|35=0|34=48|49=SERVER|52=20220110-02:12:06.000|56=CLIENT|10=138|
2022-01-09 20:12:36,194 : (Admin) R << 8=FIX.4.3|9=56|35=0|34=49|49=SERVER|52=20220110-02:12:36.000|56=CLIENT|10=142|
2022-01-09 20:12:36,195 : (Admin) S >> 8=FIX.4.3|9=56|35=0|34=49|49=CLIENT|52=20220110-02:12:36.000|56=SERVER|10=142|
2022-01-09 20:13:06,540 : (Admin) S >> 8=FIX.4.3|9=56|35=0|34=50|49=CLIENT|52=20220110-02:13:06.000|56=SERVER|10=132|
2022-01-09 20:13:06,543 : (Admin) R << 8=FIX.4.3|9=56|35=0|34=50|49=SERVER|52=20220110-02:13:06.000|56=CLIENT|10=132|
2022-01-09 20:13:36,006 : (Admin) R << 8=FIX.4.3|9=56|35=0|34=51|49=SERVER|52=20220110-02:13:36.000|56=CLIENT|10=136|
2022-01-09 20:13:36,008 : (Admin) S >> 8=FIX.4.3|9=56|35=0|34=51|49=CLIENT|52=20220110-02:13:36.000|56=SERVER|10=136|
2022-01-09 20:14:06,017 : (Admin) S >> 8=FIX.4.3|9=56|35=0|34=52|49=CLIENT|52=20220110-02:14:06.000|56=SERVER|10=135|
2022-01-09 20:14:06,019 : (Admin) R << 8=FIX.4.3|9=56|35=0|34=52|49=SERVER|52=20220110-02:14:06.000|56=CLIENT|10=135|
2022-01-09 20:14:36,545 : (Admin) R << 8=FIX.4.3|9=56|35=0|34=53|49=SERVER|52=20220110-02:14:36.000|56=CLIENT|10=139|
2022-01-09 20:14:36,546 : (Admin) S >> 8=FIX.4.3|9=56|35=0|34=53|49=CLIENT|52=20220110-02:14:36.000|56=SERVER|10=139|
2022-01-09 20:15:06,236 : (Admin) S >> 8=FIX.4.3|9=56|35=0|34=54|49=CLIENT|52=20220110-02:15:06.000|56=SERVER|10=138|
2022-01-09 20:15:06,240 : (Admin) R << 8=FIX.4.3|9=56|35=0|34=54|49=SERVER|52=20220110-02:15:06.000|56=CLIENT|10=138|
2022-01-09 20:15:36,451 : (Admin) R << 8=FIX.4.3|9=56|35=0|34=55|49=SERVER|52=20220110-02:15:36.000|56=CLIENT|10=142|
2022-01-09 20:15:36,453 : (Admin) S >> 8=FIX.4.3|9=56|35=0|34=55|49=CLIENT|52=20220110-02:15:36.000|56=SERVER|10=142|
2022-01-09 20:16:06,190 : (Admin) R << 8=FIX.4.3|9=56|35=0|34=56|49=SERVER|52=20220110-02:16:06.000|56=CLIENT|10=141|
2022-01-09 20:16:06,191 : (Admin) S >> 8=FIX.4.3|9=56|35=0|34=56|49=CLIENT|52=20220110-02:16:06.000|56=SERVER|10=141|
2022-01-09 20:16:36,055 : (Admin) R << 8=FIX.4.3|9=56|35=0|34=57|49=SERVER|52=20220110-02:16:36.000|56=CLIENT|10=145|
2022-01-09 20:16:36,056 : (Admin) S >> 8=FIX.4.3|9=56|35=0|34=57|49=CLIENT|52=20220110-02:16:36.000|56=SERVER|10=145|
2022-01-09 20:17:06,086 : (Admin) R << 8=FIX.4.3|9=56|35=0|34=58|49=SERVER|52=20220110-02:17:06.000|56=CLIENT|10=144|
2022-01-09 20:17:06,087 : (Admin) S >> 8=FIX.4.3|9=56|35=0|34=58|49=CLIENT|52=20220110-02:17:06.000|56=SERVER|10=144|
2022-01-09 20:17:36,110 : (Admin) R << 8=FIX.4.3|9=56|35=0|34=59|49=SERVER|52=20220110-02:17:36.000|56=CLIENT|10=148|
2022-01-09 20:17:36,111 : (Admin) S >> 8=FIX.4.3|9=56|35=0|34=59|49=CLIENT|52=20220110-02:17:36.000|56=SERVER|10=148|
2022-01-09 20:18:06,421 : (Admin) S >> 8=FIX.4.3|9=56|35=0|34=60|49=CLIENT|52=20220110-02:18:06.000|56=SERVER|10=138|
2022-01-09 20:18:06,425 : (Admin) R << 8=FIX.4.3|9=56|35=0|34=60|49=SERVER|52=20220110-02:18:06.000|56=CLIENT|10=138|
2022-01-09 20:18:36,540 : (Admin) R << 8=FIX.4.3|9=56|35=0|34=61|49=SERVER|52=20220110-02:18:36.000|56=CLIENT|10=142|
2022-01-09 20:18:36,541 : (Admin) S >> 8=FIX.4.3|9=56|35=0|34=61|49=CLIENT|52=20220110-02:18:36.000|56=SERVER|10=142|
2022-01-09 20:19:39,161 : (Admin) S >> 8=FIX.4.3|9=65|35=1|34=62|49=CLIENT|52=20220110-02:19:39.000|56=SERVER|112=TEST|10=166|
2022-01-09 20:19:39,164 : (Admin) R << 8=FIX.4.3|9=65|35=0|34=62|49=SERVER|52=20220110-02:19:39.000|56=CLIENT|112=TEST|10=165|
2022-01-09 20:20:09,046 : (Admin) S >> 8=FIX.4.3|9=56|35=0|34=63|49=CLIENT|52=20220110-02:20:09.000|56=SERVER|10=137|
2022-01-09 20:20:09,047 : (Admin) R << 8=FIX.4.3|9=56|35=0|34=63|49=SERVER|52=20220110-02:20:09.000|56=CLIENT|10=137|
2022-01-09 20:21:05,374 : (Admin) S >> 8=FIX.4.3|9=65|35=1|34=64|49=CLIENT|52=20220110-02:21:05.000|56=SERVER|112=TEST|10=154|
2022-01-09 20:21:05,377 : (Admin) R << 8=FIX.4.3|9=65|35=0|34=64|49=SERVER|52=20220110-02:21:05.000|56=CLIENT|112=TEST|10=153|
2022-01-09 20:21:35,033 : (Admin) S >> 8=FIX.4.3|9=56|35=0|34=65|49=CLIENT|52=20220110-02:21:35.000|56=SERVER|10=139|
2022-01-09 20:21:35,037 : (Admin) R << 8=FIX.4.3|9=56|35=0|34=65|49=SERVER|52=20220110-02:21:35.000|56=CLIENT|10=139|
2022-01-09 20:23:17,211 : (Admin) S >> 8=FIX.4.3|9=73|35=A|34=1|49=CLIENT|52=20220110-02:23:17.000|56=SERVER|98=0|108=30|141=Y|10=169|
2022-01-09 20:24:17,781 : (Admin) S >> 8=FIX.4.3|9=73|35=A|34=1|49=CLIENT|52=20220110-02:24:17.000|56=SERVER|98=0|108=30|141=Y|10=170|
2022-01-09 20:24:17,786 : (Admin) R << 8=FIX.4.3|9=73|35=A|34=1|49=SERVER|52=20220110-02:24:17.000|56=CLIENT|98=0|108=30|141=Y|10=170|
2022-01-09 20:24:47,290 : (Admin) R << 8=FIX.4.3|9=55|35=0|34=2|49=SERVER|52=20220110-02:24:47.000|56=CLIENT|10=087|
2022-01-09 20:24:47,291 : (Admin) S >> 8=FIX.4.3|9=55|35=0|34=2|49=CLIENT|52=20220110-02:24:47.000|56=SERVER|10=087|
2022-01-09 20:25:17,219 : (Admin) R << 8=FIX.4.3|9=55|35=0|34=3|49=SERVER|52=20220110-02:25:17.000|56=CLIENT|10=086|
2022-01-09 20:25:17,220 : (Admin) S >> 8=FIX.4.3|9=55|35=0|34=3|49=CLIENT|52=20220110-02:25:17.000|56=SERVER|10=086|
2022-01-09 20:25:47,069 : (Admin) R << 8=FIX.4.3|9=55|35=0|34=4|49=SERVER|52=20220110-02:25:47.000|56=CLIENT|10=090|
2022-01-09 20:25:47,070 : (Admin) S >> 8=FIX.4.3|9=55|35=0|34=4|49=CLIENT|52=20220110-02:25:47.000|56=SERVER|10=090|
2022-01-09 20:26:17,310 : (Admin) R << 8=FIX.4.3|9=55|35=0|34=5|49=SERVER|52=20220110-02:26:17.000|56=CLIENT|10=089|
2022-01-09 20:26:17,311 : (Admin) S >> 8=FIX.4.3|9=55|35=0|34=5|49=CLIENT|52=20220110-02:26:17.000|56=SERVER|10=089|
2022-01-09 20:26:47,431 : (Admin) R << 8=FIX.4.3|9=55|35=0|34=6|49=SERVER|52=20220110-02:26:47.000|56=CLIENT|10=093|
2022-01-09 20:26:47,431 : (Admin) S >> 8=FIX.4.3|9=55|35=0|34=6|49=CLIENT|52=20220110-02:26:47.000|56=SERVER|10=093|
2022-01-09 20:27:17,005 : (Admin) R << 8=FIX.4.3|9=55|35=0|34=7|49=SERVER|52=20220110-02:27:17.000|56=CLIENT|10=092|
2022-01-09 20:27:17,006 : (Admin) S >> 8=FIX.4.3|9=55|35=0|34=7|49=CLIENT|52=20220110-02:27:17.000|56=SERVER|10=092|
2022-01-09 20:27:47,116 : (Admin) S >> 8=FIX.4.3|9=55|35=0|34=8|49=CLIENT|52=20220110-02:27:47.000|56=SERVER|10=096|
2022-01-09 20:27:47,120 : (Admin) R << 8=FIX.4.3|9=55|35=0|34=8|49=SERVER|52=20220110-02:27:47.000|56=CLIENT|10=096|
2022-01-09 20:28:17,025 : (Admin) S >> 8=FIX.4.3|9=55|35=0|34=9|49=CLIENT|52=20220110-02:28:17.000|56=SERVER|10=095|
2022-01-09 20:28:17,029 : (Admin) R << 8=FIX.4.3|9=55|35=0|34=9|49=SERVER|52=20220110-02:28:17.000|56=CLIENT|10=095|
2022-01-09 20:28:47,297 : (Admin) R << 8=FIX.4.3|9=56|35=0|34=10|49=SERVER|52=20220110-02:28:47.000|56=CLIENT|10=139|
2022-01-09 20:28:47,297 : (Admin) S >> 8=FIX.4.3|9=56|35=0|34=10|49=CLIENT|52=20220110-02:28:47.000|56=SERVER|10=139|
2022-01-09 20:29:17,302 : (Admin) R << 8=FIX.4.3|9=56|35=0|34=11|49=SERVER|52=20220110-02:29:17.000|56=CLIENT|10=138|
2022-01-09 20:29:17,303 : (Admin) S >> 8=FIX.4.3|9=56|35=0|34=11|49=CLIENT|52=20220110-02:29:17.000|56=SERVER|10=138|
2022-01-09 20:29:47,078 : (Admin) R << 8=FIX.4.3|9=56|35=0|34=12|49=SERVER|52=20220110-02:29:47.000|56=CLIENT|10=142|
2022-01-09 20:29:47,079 : (Admin) S >> 8=FIX.4.3|9=56|35=0|34=12|49=CLIENT|52=20220110-02:29:47.000|56=SERVER|10=142|
2022-01-09 20:30:17,308 : (Admin) R << 8=FIX.4.3|9=56|35=0|34=13|49=SERVER|52=20220110-02:30:17.000|56=CLIENT|10=132|
2022-01-09 20:30:17,309 : (Admin) S >> 8=FIX.4.3|9=56|35=0|34=13|49=CLIENT|52=20220110-02:30:17.000|56=SERVER|10=132|
2022-01-09 20:30:47,104 : (Admin) R << 8=FIX.4.3|9=56|35=0|34=14|49=SERVER|52=20220110-02:30:47.000|56=CLIENT|10=136|
2022-01-09 20:30:47,105 : (Admin) S >> 8=FIX.4.3|9=56|35=0|34=14|49=CLIENT|52=20220110-02:30:47.000|56=SERVER|10=136|
2022-01-09 20:31:17,230 : (Admin) R << 8=FIX.4.3|9=56|35=0|34=15|49=SERVER|52=20220110-02:31:17.000|56=CLIENT|10=135|
2022-01-09 20:31:17,230 : (Admin) S >> 8=FIX.4.3|9=56|35=0|34=15|49=CLIENT|52=20220110-02:31:17.000|56=SERVER|10=135|
2022-01-09 20:31:47,159 : (Admin) R << 8=FIX.4.3|9=56|35=0|34=16|49=SERVER|52=20220110-02:31:47.000|56=CLIENT|10=139|
2022-01-09 20:31:47,160 : (Admin) S >> 8=FIX.4.3|9=56|35=0|34=16|49=CLIENT|52=20220110-02:31:47.000|56=SERVER|10=139|
2022-01-09 20:32:17,180 : (Admin) R << 8=FIX.4.3|9=56|35=0|34=17|49=SERVER|52=20220110-02:32:17.000|56=CLIENT|10=138|
2022-01-09 20:32:17,181 : (Admin) S >> 8=FIX.4.3|9=56|35=0|34=17|49=CLIENT|52=20220110-02:32:17.000|56=SERVER|10=138|
2022-01-09 20:32:47,209 : (Admin) R << 8=FIX.4.3|9=56|35=0|34=18|49=SERVER|52=20220110-02:32:47.000|56=CLIENT|10=142|
2022-01-09 20:32:47,210 : (Admin) S >> 8=FIX.4.3|9=56|35=0|34=18|49=CLIENT|52=20220110-02:32:47.000|56=SERVER|10=142|
2022-01-09 20:33:17,028 : (Admin) R << 8=FIX.4.3|9=56|35=0|34=19|49=SERVER|52=20220110-02:33:17.000|56=CLIENT|10=141|
2022-01-09 20:33:17,029 : (Admin) S >> 8=FIX.4.3|9=56|35=0|34=19|49=CLIENT|52=20220110-02:33:17.000|56=SERVER|10=141|
2022-01-09 20:33:47,257 : (Admin) R << 8=FIX.4.3|9=56|35=0|34=20|49=SERVER|52=20220110-02:33:47.000|56=CLIENT|10=136|
2022-01-09 20:33:47,258 : (Admin) S >> 8=FIX.4.3|9=56|35=0|34=20|49=CLIENT|52=20220110-02:33:47.000|56=SERVER|10=136|
2022-01-09 20:34:17,219 : (Admin) R << 8=FIX.4.3|9=56|35=0|34=21|49=SERVER|52=20220110-02:34:17.000|56=CLIENT|10=135|
2022-01-09 20:34:17,219 : (Admin) S >> 8=FIX.4.3|9=56|35=0|34=21|49=CLIENT|52=20220110-02:34:17.000|56=SERVER|10=135|
2022-01-09 20:34:47,121 : (Admin) R << 8=FIX.4.3|9=56|35=0|34=22|49=SERVER|52=20220110-02:34:47.000|56=CLIENT|10=139|
2022-01-09 20:34:47,121 : (Admin) S >> 8=FIX.4.3|9=56|35=0|34=22|49=CLIENT|52=20220110-02:34:47.000|56=SERVER|10=139|
2022-01-09 20:35:17,091 : (Admin) S >> 8=FIX.4.3|9=56|35=0|34=23|49=CLIENT|52=20220110-02:35:17.000|56=SERVER|10=138|
2022-01-09 20:35:17,095 : (Admin) R << 8=FIX.4.3|9=56|35=0|34=23|49=SERVER|52=20220110-02:35:17.000|56=CLIENT|10=138|
2022-01-09 20:35:47,250 : (Admin) R << 8=FIX.4.3|9=56|35=0|34=24|49=SERVER|52=20220110-02:35:47.000|56=CLIENT|10=142|
2022-01-09 20:35:47,250 : (Admin) S >> 8=FIX.4.3|9=56|35=0|34=24|49=CLIENT|52=20220110-02:35:47.000|56=SERVER|10=142|
2022-01-09 20:36:17,144 : (Admin) R << 8=FIX.4.3|9=56|35=0|34=25|49=SERVER|52=20220110-02:36:17.000|56=CLIENT|10=141|
2022-01-09 20:36:17,145 : (Admin) S >> 8=FIX.4.3|9=56|35=0|34=25|49=CLIENT|52=20220110-02:36:17.000|56=SERVER|10=141|
2022-01-09 20:36:47,031 : (Admin) R << 8=FIX.4.3|9=56|35=0|34=26|49=SERVER|52=20220110-02:36:47.000|56=CLIENT|10=145|
2022-01-09 20:36:47,032 : (Admin) S >> 8=FIX.4.3|9=56|35=0|34=26|49=CLIENT|52=20220110-02:36:47.000|56=SERVER|10=145|
2022-01-09 20:37:17,028 : (Admin) R << 8=FIX.4.3|9=56|35=0|34=27|49=SERVER|52=20220110-02:37:17.000|56=CLIENT|10=144|
2022-01-09 20:37:17,029 : (Admin) S >> 8=FIX.4.3|9=56|35=0|34=27|49=CLIENT|52=20220110-02:37:17.000|56=SERVER|10=144|
2022-01-09 20:37:47,091 : (Admin) R << 8=FIX.4.3|9=56|35=0|34=28|49=SERVER|52=20220110-02:37:47.000|56=CLIENT|10=148|
2022-01-09 20:37:47,092 : (Admin) S >> 8=FIX.4.3|9=56|35=0|34=28|49=CLIENT|52=20220110-02:37:47.000|56=SERVER|10=148|
2022-01-09 20:38:17,093 : (Admin) S >> 8=FIX.4.3|9=56|35=0|34=29|49=CLIENT|52=20220110-02:38:17.000|56=SERVER|10=147|
2022-01-09 20:38:17,096 : (Admin) R << 8=FIX.4.3|9=56|35=0|34=29|49=SERVER|52=20220110-02:38:17.000|56=CLIENT|10=147|
2022-01-09 20:38:47,005 : (Admin) R << 8=FIX.4.3|9=56|35=0|34=30|49=SERVER|52=20220110-02:38:47.000|56=CLIENT|10=142|
2022-01-09 20:38:47,006 : (Admin) S >> 8=FIX.4.3|9=56|35=0|34=30|49=CLIENT|52=20220110-02:38:47.000|56=SERVER|10=142|
2022-01-09 20:39:17,089 : (Admin) R << 8=FIX.4.3|9=56|35=0|34=31|49=SERVER|52=20220110-02:39:17.000|56=CLIENT|10=141|
2022-01-09 20:39:17,089 : (Admin) S >> 8=FIX.4.3|9=56|35=0|34=31|49=CLIENT|52=20220110-02:39:17.000|56=SERVER|10=141|
2022-01-09 20:39:47,046 : (Admin) S >> 8=FIX.4.3|9=56|35=0|34=32|49=CLIENT|52=20220110-02:39:47.000|56=SERVER|10=145|
2022-01-09 20:39:47,049 : (Admin) R << 8=FIX.4.3|9=56|35=0|34=32|49=SERVER|52=20220110-02:39:47.000|56=CLIENT|10=145|
2022-01-09 20:40:17,004 : (Admin) R << 8=FIX.4.3|9=56|35=0|34=33|49=SERVER|52=20220110-02:40:17.000|56=CLIENT|10=135|
2022-01-09 20:40:17,005 : (Admin) S >> 8=FIX.4.3|9=56|35=0|34=33|49=CLIENT|52=20220110-02:40:17.000|56=SERVER|10=135|
2022-01-09 20:40:47,031 : (Admin) R << 8=FIX.4.3|9=56|35=0|34=34|49=SERVER|52=20220110-02:40:47.000|56=CLIENT|10=139|
2022-01-09 20:40:47,032 : (Admin) S >> 8=FIX.4.3|9=56|35=0|34=34|49=CLIENT|52=20220110-02:40:47.000|56=SERVER|10=139|
2022-01-09 20:41:17,214 : (Admin) R << 8=FIX.4.3|9=56|35=0|34=35|49=SERVER|52=20220110-02:41:17.000|56=CLIENT|10=138|
2022-01-09 20:41:17,214 : (Admin) S >> 8=FIX.4.3|9=56|35=0|34=35|49=CLIENT|52=20220110-02:41:17.000|56=SERVER|10=138|
2022-01-09 20:41:47,241 : (Admin) R << 8=FIX.4.3|9=56|35=0|34=36|49=SERVER|52=20220110-02:41:47.000|56=CLIENT|10=142|
2022-01-09 20:41:47,242 : (Admin) S >> 8=FIX.4.3|9=56|35=0|34=36|49=CLIENT|52=20220110-02:41:47.000|56=SERVER|10=142|
2022-01-09 20:42:17,094 : (Admin) R << 8=FIX.4.3|9=56|35=0|34=37|49=SERVER|52=20220110-02:42:17.000|56=CLIENT|10=141|
2022-01-09 20:42:17,094 : (Admin) S >> 8=FIX.4.3|9=56|35=0|34=37|49=CLIENT|52=20220110-02:42:17.000|56=SERVER|10=141|
2022-01-09 20:42:47,400 : (Admin) S >> 8=FIX.4.3|9=56|35=0|34=38|49=CLIENT|52=20220110-02:42:47.000|56=SERVER|10=145|
2022-01-09 20:42:47,403 : (Admin) R << 8=FIX.4.3|9=56|35=0|34=38|49=SERVER|52=20220110-02:42:47.000|56=CLIENT|10=145|
2022-01-09 20:43:17,352 : (Admin) S >> 8=FIX.4.3|9=56|35=0|34=39|49=CLIENT|52=20220110-02:43:17.000|56=SERVER|10=144|
2022-01-09 20:43:17,356 : (Admin) R << 8=FIX.4.3|9=56|35=0|34=39|49=SERVER|52=20220110-02:43:17.000|56=CLIENT|10=144|
2022-01-09 20:43:47,535 : (Admin) R << 8=FIX.4.3|9=56|35=0|34=40|49=SERVER|52=20220110-02:43:47.000|56=CLIENT|10=139|
2022-01-09 20:43:47,535 : (Admin) S >> 8=FIX.4.3|9=56|35=0|34=40|49=CLIENT|52=20220110-02:43:47.000|56=SERVER|10=139|
2022-01-09 20:44:17,427 : (Admin) S >> 8=FIX.4.3|9=56|35=0|34=41|49=CLIENT|52=20220110-02:44:17.000|56=SERVER|10=138|
2022-01-09 20:44:17,430 : (Admin) R << 8=FIX.4.3|9=56|35=0|34=41|49=SERVER|52=20220110-02:44:17.000|56=CLIENT|10=138|
2022-01-09 20:44:47,031 : (Admin) S >> 8=FIX.4.3|9=56|35=0|34=42|49=CLIENT|52=20220110-02:44:47.000|56=SERVER|10=142|
2022-01-09 20:44:47,035 : (Admin) R << 8=FIX.4.3|9=56|35=0|34=42|49=SERVER|52=20220110-02:44:47.000|56=CLIENT|10=142|
2022-01-09 20:45:17,545 : (Admin) S >> 8=FIX.4.3|9=56|35=0|34=43|49=CLIENT|52=20220110-02:45:17.000|56=SERVER|10=141|
2022-01-09 20:45:17,548 : (Admin) R << 8=FIX.4.3|9=56|35=0|34=43|49=SERVER|52=20220110-02:45:17.000|56=CLIENT|10=141|
2022-01-09 20:45:47,062 : (Admin) S >> 8=FIX.4.3|9=56|35=0|34=44|49=CLIENT|52=20220110-02:45:47.000|56=SERVER|10=145|
2022-01-09 20:45:47,067 : (Admin) R << 8=FIX.4.3|9=56|35=0|34=44|49=SERVER|52=20220110-02:45:47.000|56=CLIENT|10=145|
2022-01-09 20:46:17,258 : (Admin) R << 8=FIX.4.3|9=56|35=0|34=45|49=SERVER|52=20220110-02:46:17.000|56=CLIENT|10=144|
2022-01-09 20:46:17,259 : (Admin) S >> 8=FIX.4.3|9=56|35=0|34=45|49=CLIENT|52=20220110-02:46:17.000|56=SERVER|10=144|
2022-01-09 20:46:47,213 : (Admin) S >> 8=FIX.4.3|9=56|35=0|34=46|49=CLIENT|52=20220110-02:46:47.000|56=SERVER|10=148|
2022-01-09 20:46:47,216 : (Admin) R << 8=FIX.4.3|9=56|35=0|34=46|49=SERVER|52=20220110-02:46:47.000|56=CLIENT|10=148|
2022-01-09 20:47:17,394 : (Admin) S >> 8=FIX.4.3|9=56|35=0|34=47|49=CLIENT|52=20220110-02:47:17.000|56=SERVER|10=147|
